{
  "_format": "hh-sol-artifact-1",
  "contractName": "ElectronicsNFT",
  "sourceName": "contracts/ElectronicsNFT.sol",
  "abi": [
    {
      "inputs": [],
      "stateMutability": "nonpayable",
      "type": "constructor"
    },
    {
      "inputs": [
        {
          "internalType": "address",
          "name": "sender",
          "type": "address"
        },
        {
          "internalType": "uint256",
          "name": "tokenId",
          "type": "uint256"
        },
        {
          "internalType": "address",
          "name": "owner",
          "type": "address"
        }
      ],
      "name": "ERC721IncorrectOwner",
      "type": "error"
    },
    {
      "inputs": [
        {
          "internalType": "address",
          "name": "operator",
          "type": "address"
        },
        {
          "internalType": "uint256",
          "name": "tokenId",
          "type": "uint256"
        }
      ],
      "name": "ERC721InsufficientApproval",
      "type": "error"
    },
    {
      "inputs": [
        {
          "internalType": "address",
          "name": "approver",
          "type": "address"
        }
      ],
      "name": "ERC721InvalidApprover",
      "type": "error"
    },
    {
      "inputs": [
        {
          "internalType": "address",
          "name": "operator",
          "type": "address"
        }
      ],
      "name": "ERC721InvalidOperator",
      "type": "error"
    },
    {
      "inputs": [
        {
          "internalType": "address",
          "name": "owner",
          "type": "address"
        }
      ],
      "name": "ERC721InvalidOwner",
      "type": "error"
    },
    {
      "inputs": [
        {
          "internalType": "address",
          "name": "receiver",
          "type": "address"
        }
      ],
      "name": "ERC721InvalidReceiver",
      "type": "error"
    },
    {
      "inputs": [
        {
          "internalType": "address",
          "name": "sender",
          "type": "address"
        }
      ],
      "name": "ERC721InvalidSender",
      "type": "error"
    },
    {
      "inputs": [
        {
          "internalType": "uint256",
          "name": "tokenId",
          "type": "uint256"
        }
      ],
      "name": "ERC721NonexistentToken",
      "type": "error"
    },
    {
      "inputs": [
        {
          "internalType": "address",
          "name": "owner",
          "type": "address"
        }
      ],
      "name": "OwnableInvalidOwner",
      "type": "error"
    },
    {
      "inputs": [
        {
          "internalType": "address",
          "name": "account",
          "type": "address"
        }
      ],
      "name": "OwnableUnauthorizedAccount",
      "type": "error"
    },
    {
      "inputs": [],
      "name": "ReentrancyGuardReentrantCall",
      "type": "error"
    },
    {
      "anonymous": false,
      "inputs": [
        {
          "indexed": true,
          "internalType": "address",
          "name": "owner",
          "type": "address"
        },
        {
          "indexed": true,
          "internalType": "address",
          "name": "approved",
          "type": "address"
        },
        {
          "indexed": true,
          "internalType": "uint256",
          "name": "tokenId",
          "type": "uint256"
        }
      ],
      "name": "Approval",
      "type": "event"
    },
    {
      "anonymous": false,
      "inputs": [
        {
          "indexed": true,
          "internalType": "address",
          "name": "owner",
          "type": "address"
        },
        {
          "indexed": true,
          "internalType": "address",
          "name": "operator",
          "type": "address"
        },
        {
          "indexed": false,
          "internalType": "bool",
          "name": "approved",
          "type": "bool"
        }
      ],
      "name": "ApprovalForAll",
      "type": "event"
    },
    {
      "anonymous": false,
      "inputs": [
        {
          "indexed": false,
          "internalType": "uint256",
          "name": "_fromTokenId",
          "type": "uint256"
        },
        {
          "indexed": false,
          "internalType": "uint256",
          "name": "_toTokenId",
          "type": "uint256"
        }
      ],
      "name": "BatchMetadataUpdate",
      "type": "event"
    },
    {
      "anonymous": false,
      "inputs": [
        {
          "indexed": true,
          "internalType": "uint256",
          "name": "tokenId",
          "type": "uint256"
        },
        {
          "indexed": true,
          "internalType": "address",
          "name": "owner",
          "type": "address"
        },
        {
          "indexed": false,
          "internalType": "string",
          "name": "serialNumber",
          "type": "string"
        },
        {
          "indexed": false,
          "internalType": "string",
          "name": "tokenURI",
          "type": "string"
        }
      ],
      "name": "DeviceMinted",
      "type": "event"
    },
    {
      "anonymous": false,
      "inputs": [
        {
          "indexed": true,
          "internalType": "uint256",
          "name": "tokenId",
          "type": "uint256"
        }
      ],
      "name": "DeviceVerified",
      "type": "event"
    },
    {
      "anonymous": false,
      "inputs": [
        {
          "indexed": false,
          "internalType": "uint256",
          "name": "_tokenId",
          "type": "uint256"
        }
      ],
      "name": "MetadataUpdate",
      "type": "event"
    },
    {
      "anonymous": false,
      "inputs": [
        {
          "indexed": true,
          "internalType": "address",
          "name": "previousOwner",
          "type": "address"
        },
        {
          "indexed": true,
          "internalType": "address",
          "name": "newOwner",
          "type": "address"
        }
      ],
      "name": "OwnershipTransferred",
      "type": "event"
    },
    {
      "anonymous": false,
      "inputs": [
        {
          "indexed": true,
          "internalType": "uint256",
          "name": "tokenId",
          "type": "uint256"
        },
        {
          "indexed": true,
          "internalType": "address",
          "name": "reviewer",
          "type": "address"
        },
        {
          "indexed": false,
          "internalType": "bytes32",
          "name": "reviewHash",
          "type": "bytes32"
        }
      ],
      "name": "ReviewSubmitted",
      "type": "event"
    },
    {
      "anonymous": false,
      "inputs": [
        {
          "indexed": true,
          "internalType": "address",
          "name": "from",
          "type": "address"
        },
        {
          "indexed": true,
          "internalType": "address",
          "name": "to",
          "type": "address"
        },
        {
          "indexed": true,
          "internalType": "uint256",
          "name": "tokenId",
          "type": "uint256"
        }
      ],
      "name": "Transfer",
      "type": "event"
    },
    {
      "inputs": [
        {
          "internalType": "address",
          "name": "to",
          "type": "address"
        },
        {
          "internalType": "uint256",
          "name": "tokenId",
          "type": "uint256"
        }
      ],
      "name": "approve",
      "outputs": [],
      "stateMutability": "nonpayable",
      "type": "function"
    },
    {
      "inputs": [
        {
          "internalType": "address",
          "name": "owner",
          "type": "address"
        }
      ],
      "name": "balanceOf",
      "outputs": [
        {
          "internalType": "uint256",
          "name": "",
          "type": "uint256"
        }
      ],
      "stateMutability": "view",
      "type": "function"
    },
    {
      "inputs": [
        {
          "internalType": "uint256",
          "name": "tokenId",
          "type": "uint256"
        }
      ],
      "name": "getApproved",
      "outputs": [
        {
          "internalType": "address",
          "name": "",
          "type": "address"
        }
      ],
      "stateMutability": "view",
      "type": "function"
    },
    {
      "inputs": [
        {
          "internalType": "uint256",
          "name": "tokenId",
          "type": "uint256"
        }
      ],
      "name": "getDevice",
      "outputs": [
        {
          "components": [
            {
              "internalType": "string",
              "name": "brand",
              "type": "string"
            },
            {
              "internalType": "string",
              "name": "model",
              "type": "string"
            },
            {
              "internalType": "string",
              "name": "serialNumber",
              "type": "string"
            },
            {
              "internalType": "string",
              "name": "warrantyExpiry",
              "type": "string"
            },
            {
              "internalType": "uint256",
              "name": "mintedAt",
              "type": "uint256"
            },
            {
              "internalType": "address",
              "name": "originalOwner",
              "type": "address"
            },
            {
              "internalType": "bool",
              "name": "isVerified",
              "type": "bool"
            }
          ],
          "internalType": "struct ElectronicsNFT.ElectronicDevice",
          "name": "",
          "type": "tuple"
        }
      ],
      "stateMutability": "view",
      "type": "function"
    },
    {
      "inputs": [
        {
          "internalType": "string",
          "name": "serialNumber",
          "type": "string"
        }
      ],
      "name": "getDeviceBySerial",
      "outputs": [
        {
          "components": [
            {
              "internalType": "string",
              "name": "brand",
              "type": "string"
            },
            {
              "internalType": "string",
              "name": "model",
              "type": "string"
            },
            {
              "internalType": "string",
              "name": "serialNumber",
              "type": "string"
            },
            {
              "internalType": "string",
              "name": "warrantyExpiry",
              "type": "string"
            },
            {
              "internalType": "uint256",
              "name": "mintedAt",
              "type": "uint256"
            },
            {
              "internalType": "address",
              "name": "originalOwner",
              "type": "address"
            },
            {
              "internalType": "bool",
              "name": "isVerified",
              "type": "bool"
            }
          ],
          "internalType": "struct ElectronicsNFT.ElectronicDevice",
          "name": "",
          "type": "tuple"
        }
      ],
      "stateMutability": "view",
      "type": "function"
    },
    {
      "inputs": [],
      "name": "getTotalDevices",
      "outputs": [
        {
          "internalType": "uint256",
          "name": "",
          "type": "uint256"
        }
      ],
      "stateMutability": "view",
      "type": "function"
    },
    {
      "inputs": [
        {
          "internalType": "address",
          "name": "owner",
          "type": "address"
        },
        {
          "internalType": "address",
          "name": "operator",
          "type": "address"
        }
      ],
      "name": "isApprovedForAll",
      "outputs": [
        {
          "internalType": "bool",
          "name": "",
          "type": "bool"
        }
      ],
      "stateMutability": "view",
      "type": "function"
    },
    {
      "inputs": [
        {
          "internalType": "uint256",
          "name": "tokenId",
          "type": "uint256"
        }
      ],
      "name": "isDeviceVerified",
      "outputs": [
        {
          "internalType": "bool",
          "name": "",
          "type": "bool"
        }
      ],
      "stateMutability": "view",
      "type": "function"
    },
    {
      "inputs": [
        {
          "internalType": "address",
          "name": "to",
          "type": "address"
        },
        {
          "internalType": "string",
          "name": "serialNumber",
          "type": "string"
        },
        {
          "internalType": "string",
          "name": "brand",
          "type": "string"
        },
        {
          "internalType": "string",
          "name": "model",
          "type": "string"
        },
        {
          "internalType": "string",
          "name": "warrantyExpiry",
          "type": "string"
        },
        {
          "internalType": "string",
          "name": "tokenURI",
          "type": "string"
        }
      ],
      "name": "mintElectronic",
      "outputs": [
        {
          "internalType": "uint256",
          "name": "",
          "type": "uint256"
        }
      ],
      "stateMutability": "nonpayable",
      "type": "function"
    },
    {
      "inputs": [],
      "name": "name",
      "outputs": [
        {
          "internalType": "string",
          "name": "",
          "type": "string"
        }
      ],
      "stateMutability": "view",
      "type": "function"
    },
    {
      "inputs": [],
      "name": "owner",
      "outputs": [
        {
          "internalType": "address",
          "name": "",
          "type": "address"
        }
      ],
      "stateMutability": "view",
      "type": "function"
    },
    {
      "inputs": [
        {
          "internalType": "uint256",
          "name": "tokenId",
          "type": "uint256"
        }
      ],
      "name": "ownerOf",
      "outputs": [
        {
          "internalType": "address",
          "name": "",
          "type": "address"
        }
      ],
      "stateMutability": "view",
      "type": "function"
    },
    {
      "inputs": [],
      "name": "renounceOwnership",
      "outputs": [],
      "stateMutability": "nonpayable",
      "type": "function"
    },
    {
      "inputs": [
        {
          "internalType": "address",
          "name": "from",
          "type": "address"
        },
        {
          "internalType": "address",
          "name": "to",
          "type": "address"
        },
        {
          "internalType": "uint256",
          "name": "tokenId",
          "type": "uint256"
        }
      ],
      "name": "safeTransferFrom",
      "outputs": [],
      "stateMutability": "nonpayable",
      "type": "function"
    },
    {
      "inputs": [
        {
          "internalType": "address",
          "name": "from",
          "type": "address"
        },
        {
          "internalType": "address",
          "name": "to",
          "type": "address"
        },
        {
          "internalType": "uint256",
          "name": "tokenId",
          "type": "uint256"
        },
        {
          "internalType": "bytes",
          "name": "data",
          "type": "bytes"
        }
      ],
      "name": "safeTransferFrom",
      "outputs": [],
      "stateMutability": "nonpayable",
      "type": "function"
    },
    {
      "inputs": [
        {
          "internalType": "address",
          "name": "operator",
          "type": "address"
        },
        {
          "internalType": "bool",
          "name": "approved",
          "type": "bool"
        }
      ],
      "name": "setApprovalForAll",
      "outputs": [],
      "stateMutability": "nonpayable",
      "type": "function"
    },
    {
      "inputs": [
        {
          "internalType": "uint256",
          "name": "tokenId",
          "type": "uint256"
        },
        {
          "internalType": "bytes32",
          "name": "reviewHash",
          "type": "bytes32"
        }
      ],
      "name": "submitReview",
      "outputs": [],
      "stateMutability": "nonpayable",
      "type": "function"
    },
    {
      "inputs": [
        {
          "internalType": "bytes4",
          "name": "interfaceId",
          "type": "bytes4"
        }
      ],
      "name": "supportsInterface",
      "outputs": [
        {
          "internalType": "bool",
          "name": "",
          "type": "bool"
        }
      ],
      "stateMutability": "view",
      "type": "function"
    },
    {
      "inputs": [],
      "name": "symbol",
      "outputs": [
        {
          "internalType": "string",
          "name": "",
          "type": "string"
        }
      ],
      "stateMutability": "view",
      "type": "function"
    },
    {
      "inputs": [
        {
          "internalType": "uint256",
          "name": "tokenId",
          "type": "uint256"
        }
      ],
      "name": "tokenURI",
      "outputs": [
        {
          "internalType": "string",
          "name": "",
          "type": "string"
        }
      ],
      "stateMutability": "view",
      "type": "function"
    },
    {
      "inputs": [],
      "name": "totalMinted",
      "outputs": [
        {
          "internalType": "uint256",
          "name": "",
          "type": "uint256"
        }
      ],
      "stateMutability": "view",
      "type": "function"
    },
    {
      "inputs": [
        {
          "internalType": "address",
          "name": "from",
          "type": "address"
        },
        {
          "internalType": "address",
          "name": "to",
          "type": "address"
        },
        {
          "internalType": "uint256",
          "name": "tokenId",
          "type": "uint256"
        }
      ],
      "name": "transferFrom",
      "outputs": [],
      "stateMutability": "nonpayable",
      "type": "function"
    },
    {
      "inputs": [
        {
          "internalType": "address",
          "name": "newOwner",
          "type": "address"
        }
      ],
      "name": "transferOwnership",
      "outputs": [],
      "stateMutability": "nonpayable",
      "type": "function"
    },
    {
      "inputs": [
        {
          "internalType": "uint256",
          "name": "tokenId",
          "type": "uint256"
        }
      ],
      "name": "verifyDevice",
      "outputs": [],
      "stateMutability": "nonpayable",
      "type": "function"
    }
  ],
  "bytecode": "0x60806040523480156200001157600080fd5b50336040518060400160405280601981526020017f4469676974616c20476f6f647320456c656374726f6e696373000000000000008152506040518060400160405280600381526020016244474560e81b8152508160009081620000769190620001c5565b506001620000858282620001c5565b5050506001600160a01b038116620000b757604051631e4fbdf760e01b81526000600482015260240160405180910390fd5b620000c281620000ce565b50600160085562000291565b600780546001600160a01b038381166001600160a01b0319831681179093556040519116919082907f8be0079c531659141344cd1fd0a4f28419497f9722a3daafe3b4186f6b6457e090600090a35050565b634e487b7160e01b600052604160045260246000fd5b600181811c908216806200014b57607f821691505b6020821081036200016c57634e487b7160e01b600052602260045260246000fd5b50919050565b601f821115620001c057600081815260208120601f850160051c810160208610156200019b5750805b601f850160051c820191505b81811015620001bc57828155600101620001a7565b5050505b505050565b81516001600160401b03811115620001e157620001e162000120565b620001f981620001f2845462000136565b8462000172565b602080601f831160018114620002315760008415620002185750858301515b600019600386901b1c1916600185901b178555620001bc565b600085815260208120601f198616915b82811015620002625788860151825594840194600190910190840162000241565b5085821015620002815787850151600019600388901b60f8161c191681555b5050505050600190811b01905550565b6121b280620002a16000396000f3fe608060405234801561001057600080fd5b50600436106101585760003560e01c80638da5cb5b116100c3578063c87b56dd1161007c578063c87b56dd146102dc578063dc61d161146102ae578063e985e9c5146102ef578063ecb390a114610302578063f2fde38b14610315578063f42f4b6e1461032857600080fd5b80638da5cb5b1461028257806395d89b4114610293578063a22cb4651461029b578063a2309ff8146102ae578063b88d4fde146102b6578063bf295071146102c957600080fd5b806342842e0e1161011557806342842e0e1461020d57806352069f3f146102205780636352211e1461023357806370a0823114610246578063715018a614610267578063870890da1461026f57600080fd5b806301ffc9a71461015d57806306fdde0314610185578063081812fc1461019a578063095ea7b3146101c557806309f110b1146101da57806323b872dd146101fa575b600080fd5b61017061016b366004611a76565b61033b565b60405190151581526020015b60405180910390f35b61018d610366565b60405161017c9190611ae3565b6101ad6101a8366004611af6565b6103f8565b6040516001600160a01b03909116815260200161017c565b6101d86101d3366004611b2b565b610421565b005b6101ed6101e8366004611af6565b610430565b60405161017c9190611b55565b6101d8610208366004611bfd565b61070b565b6101d861021b366004611bfd565b610796565b61017061022e366004611af6565b6107b6565b6101ad610241366004611af6565b61080a565b610259610254366004611c39565b610815565b60405190815260200161017c565b6101d861085d565b6101d861027d366004611af6565b610871565b6007546001600160a01b03166101ad565b61018d610955565b6101d86102a9366004611c54565b610964565b600954610259565b6101d86102c4366004611d1c565b61096f565b6101d86102d7366004611d98565b610987565b61018d6102ea366004611af6565b610a74565b6101706102fd366004611dba565b610b85565b610259610310366004611e0d565b610bb3565b6101d8610323366004611c39565b610e3e565b6101ed610336366004611eee565b610e7c565b60006001600160e01b03198216632483248360e11b1480610360575061036082611181565b92915050565b60606000805461037590611f23565b80601f01602080910402602001604051908101604052809291908181526020018280546103a190611f23565b80156103ee5780601f106103c3576101008083540402835291602001916103ee565b820191906000526020600020905b8154815290600101906020018083116103d157829003601f168201915b5050505050905090565b6000610403826111d1565b506000828152600460205260409020546001600160a01b0316610360565b61042c82823361120a565b5050565b610438611a18565b6000828152600260205260409020546001600160a01b03166104755760405162461bcd60e51b815260040161046c90611f5d565b60405180910390fd5b6000828152600a602052604090819020815160e0810190925280548290829061049d90611f23565b80601f01602080910402602001604051908101604052809291908181526020018280546104c990611f23565b80156105165780601f106104eb57610100808354040283529160200191610516565b820191906000526020600020905b8154815290600101906020018083116104f957829003601f168201915b5050505050815260200160018201805461052f90611f23565b80601f016020809104026020016040519081016040528092919081815260200182805461055b90611f23565b80156105a85780601f1061057d576101008083540402835291602001916105a8565b820191906000526020600020905b81548152906001019060200180831161058b57829003601f168201915b505050505081526020016002820180546105c190611f23565b80601f01602080910402602001604051908101604052809291908181526020018280546105ed90611f23565b801561063a5780601f1061060f5761010080835404028352916020019161063a565b820191906000526020600020905b81548152906001019060200180831161061d57829003601f168201915b5050505050815260200160038201805461065390611f23565b80601f016020809104026020016040519081016040528092919081815260200182805461067f90611f23565b80156106cc5780601f106106a1576101008083540402835291602001916106cc565b820191906000526020600020905b8154815290600101906020018083116106af57829003601f168201915b5050509183525050600482015460208201526005909101546001600160a01b0381166040830152600160a01b900460ff16151560609091015292915050565b6001600160a01b03821661073557604051633250574960e11b81526000600482015260240161046c565b6000610742838333611217565b9050836001600160a01b0316816001600160a01b031614610790576040516364283d7b60e01b81526001600160a01b038086166004830152602482018490528216604482015260640161046c565b50505050565b6107b18383836040518060200160405280600081525061096f565b505050565b6000818152600260205260408120546001600160a01b03166107ea5760405162461bcd60e51b815260040161046c90611f5d565b506000908152600a6020526040902060050154600160a01b900460ff1690565b6000610360826111d1565b60006001600160a01b038216610841576040516322718ad960e21b81526000600482015260240161046c565b506001600160a01b031660009081526003602052604090205490565b610865611310565b61086f600061133d565b565b610879611310565b6000818152600260205260409020546001600160a01b03166108ad5760405162461bcd60e51b815260040161046c90611f5d565b6000818152600a6020526040902060050154600160a01b900460ff16156109095760405162461bcd60e51b815260206004820152601060248201526f105b1c9958591e481d995c9a599a595960821b604482015260640161046c565b6000818152600a6020526040808220600501805460ff60a01b1916600160a01b1790555182917f7381a17f0d7310429ceb12d86a2d4d58be9ecb8ba217928ebc9db02b1c5e49fe91a250565b60606001805461037590611f23565b61042c33838361138f565b61097a84848461070b565b610790338585858561142e565b6000828152600260205260409020546001600160a01b03166109bb5760405162461bcd60e51b815260040161046c90611f5d565b6000828152600c6020908152604080832033845290915290205460ff1615610a185760405162461bcd60e51b815260206004820152601060248201526f105b1c9958591e481c995d9a595dd95960821b604482015260640161046c565b6000828152600c602090815260408083203380855290835292819020805460ff191660011790555183815284917f14a245c2c1e780ac3e626180f87fcc714f950469cbf4b35ca0feecce5e429eee910160405180910390a35050565b6060610a7f826111d1565b5060008281526006602052604081208054610a9990611f23565b80601f0160208091040260200160405190810160405280929190818152602001828054610ac590611f23565b8015610b125780601f10610ae757610100808354040283529160200191610b12565b820191906000526020600020905b815481529060010190602001808311610af557829003601f168201915b505050505090506000610b3060408051602081019091526000815290565b90508051600003610b42575092915050565b815115610b74578082604051602001610b5c929190611f86565b60405160208183030381529060405292505050919050565b610b7d84611559565b949350505050565b6001600160a01b03918216600090815260056020908152604080832093909416825291909152205460ff1690565b6000610bbd6115ce565b6001600160a01b038716610c055760405162461bcd60e51b815260206004820152600f60248201526e496e76616c6964206164647265737360881b604482015260640161046c565b6000865111610c485760405162461bcd60e51b815260206004820152600f60248201526e14d95c9a585b081c995c5d5a5c9959608a1b604482015260640161046c565b600b86604051610c589190611fb5565b908152602001604051809103902054600014610cb65760405162461bcd60e51b815260206004820152601960248201527f44657669636520616c7265616479207265676973746572656400000000000000604482015260640161046c565b60098054906000610cc683611fd1565b90915550506009546040805160e08101825287815260208082018890528183018a9052606082018790524260808301526001600160a01b038b1660a0830152600060c08301819052848152600a9091529190912081518190610d28908261203e565b5060208201516001820190610d3d908261203e565b5060408201516002820190610d52908261203e565b5060608201516003820190610d67908261203e565b506080820151600482015560a08201516005909101805460c0909301511515600160a01b026001600160a81b03199093166001600160a01b03909216919091179190911790556040518190600b90610dc0908a90611fb5565b90815260405190819003602001902055610dda88826115f8565b610de48184611612565b876001600160a01b0316817f5386e65881f2fc137aed7aa612faf9f636c7e1e444e6e6b6223958f50ceb2ad68986604051610e209291906120fe565b60405180910390a39050610e346001600855565b9695505050505050565b610e46611310565b6001600160a01b038116610e7057604051631e4fbdf760e01b81526000600482015260240161046c565b610e798161133d565b50565b610e84611a18565b6000600b83604051610e969190611fb5565b908152602001604051809103902054905080600003610eea5760405162461bcd60e51b815260206004820152601060248201526f11195d9a58d9481b9bdd08199bdd5b9960821b604482015260640161046c565b6000818152600a602052604090819020815160e08101909252805482908290610f1290611f23565b80601f0160208091040260200160405190810160405280929190818152602001828054610f3e90611f23565b8015610f8b5780601f10610f6057610100808354040283529160200191610f8b565b820191906000526020600020905b815481529060010190602001808311610f6e57829003601f168201915b50505050508152602001600182018054610fa490611f23565b80601f0160208091040260200160405190810160405280929190818152602001828054610fd090611f23565b801561101d5780601f10610ff25761010080835404028352916020019161101d565b820191906000526020600020905b81548152906001019060200180831161100057829003601f168201915b5050505050815260200160028201805461103690611f23565b80601f016020809104026020016040519081016040528092919081815260200182805461106290611f23565b80156110af5780601f10611084576101008083540402835291602001916110af565b820191906000526020600020905b81548152906001019060200180831161109257829003601f168201915b505050505081526020016003820180546110c890611f23565b80601f01602080910402602001604051908101604052809291908181526020018280546110f490611f23565b80156111415780601f1061111657610100808354040283529160200191611141565b820191906000526020600020905b81548152906001019060200180831161112457829003601f168201915b5050509183525050600482015460208201526005909101546001600160a01b0381166040830152600160a01b900460ff1615156060909101529392505050565b60006001600160e01b031982166380ac58cd60e01b14806111b257506001600160e01b03198216635b5e139f60e01b145b8061036057506301ffc9a760e01b6001600160e01b0319831614610360565b6000818152600260205260408120546001600160a01b03168061036057604051637e27328960e01b81526004810184905260240161046c565b6107b18383836001611662565b6000828152600260205260408120546001600160a01b039081169083161561124457611244818486611768565b6001600160a01b0381161561128257611261600085600080611662565b6001600160a01b038116600090815260036020526040902080546000190190555b6001600160a01b038516156112b1576001600160a01b0385166000908152600360205260409020805460010190555b60008481526002602052604080822080546001600160a01b0319166001600160a01b0389811691821790925591518793918516917fddf252ad1be2c89b69c2b068fc378daa952ba7f163c4a11628f55a4df523b3ef91a4949350505050565b6007546001600160a01b0316331461086f5760405163118cdaa760e01b815233600482015260240161046c565b600780546001600160a01b038381166001600160a01b0319831681179093556040519116919082907f8be0079c531659141344cd1fd0a4f28419497f9722a3daafe3b4186f6b6457e090600090a35050565b6001600160a01b0382166113c157604051630b61174360e31b81526001600160a01b038316600482015260240161046c565b6001600160a01b03838116600081815260056020908152604080832094871680845294825291829020805460ff191686151590811790915591519182527f17307eab39ab6107e8899845ad3d59bd9653f200f220920489ca2b5937696c31910160405180910390a3505050565b6001600160a01b0383163b1561155257604051630a85bd0160e11b81526001600160a01b0384169063150b7a029061147090889088908790879060040161212c565b6020604051808303816000875af19250505080156114ab575060408051601f3d908101601f191682019092526114a89181019061215f565b60015b611514573d8080156114d9576040519150601f19603f3d011682016040523d82523d6000602084013e6114de565b606091505b50805160000361150c57604051633250574960e11b81526001600160a01b038516600482015260240161046c565b805160208201fd5b6001600160e01b03198116630a85bd0160e11b1461155057604051633250574960e11b81526001600160a01b038516600482015260240161046c565b505b5050505050565b6060611564826111d1565b50600061157c60408051602081019091526000815290565b9050600081511161159c57604051806020016040528060008152506115c7565b806115a6846117cc565b6040516020016115b7929190611f86565b6040516020818303038152906040525b9392505050565b6002600854036115f157604051633ee5aeb560e01b815260040160405180910390fd5b6002600855565b61042c828260405180602001604052806000815250611860565b600082815260066020526040902061162a828261203e565b506040518281527ff8e1a15aba9398e019f0b49df1a4fde98ee17ae345cb5f6b5e2c27f5033e8ce79060200160405180910390a15050565b808061167657506001600160a01b03821615155b15611738576000611686846111d1565b90506001600160a01b038316158015906116b25750826001600160a01b0316816001600160a01b031614155b80156116c557506116c38184610b85565b155b156116ee5760405163a9fbf51f60e01b81526001600160a01b038416600482015260240161046c565b81156117365783856001600160a01b0316826001600160a01b03167f8c5be1e5ebec7d5bd14f71427d1e84f3dd0314c0f7b2291e5b200ac8c7c3b92560405160405180910390a45b505b5050600090815260046020526040902080546001600160a01b0319166001600160a01b0392909216919091179055565b611773838383611878565b6107b1576001600160a01b0383166117a157604051637e27328960e01b81526004810182905260240161046c565b60405163177e802f60e01b81526001600160a01b03831660048201526024810182905260440161046c565b606060006117d9836118db565b600101905060008167ffffffffffffffff8111156117f9576117f9611c90565b6040519080825280601f01601f191660200182016040528015611823576020820181803683370190505b5090508181016020015b600019016f181899199a1a9b1b9c1cb0b131b232b360811b600a86061a8153600a850494508461182d575b509392505050565b61186a83836119b3565b6107b133600085858561142e565b60006001600160a01b03831615801590610b7d5750826001600160a01b0316846001600160a01b031614806118b257506118b28484610b85565b80610b7d5750506000908152600460205260409020546001600160a01b03908116911614919050565b60008072184f03e93ff9f4daa797ed6e38ed64bf6a1f0160401b831061191a5772184f03e93ff9f4daa797ed6e38ed64bf6a1f0160401b830492506040015b6d04ee2d6d415b85acef81000000008310611946576d04ee2d6d415b85acef8100000000830492506020015b662386f26fc10000831061196457662386f26fc10000830492506010015b6305f5e100831061197c576305f5e100830492506008015b612710831061199057612710830492506004015b606483106119a2576064830492506002015b600a83106103605760010192915050565b6001600160a01b0382166119dd57604051633250574960e11b81526000600482015260240161046c565b60006119eb83836000611217565b90506001600160a01b038116156107b1576040516339e3563760e11b81526000600482015260240161046c565b6040518060e00160405280606081526020016060815260200160608152602001606081526020016000815260200160006001600160a01b031681526020016000151581525090565b6001600160e01b031981168114610e7957600080fd5b600060208284031215611a8857600080fd5b81356115c781611a60565b60005b83811015611aae578181015183820152602001611a96565b50506000910152565b60008151808452611acf816020860160208601611a93565b601f01601f19169290920160200192915050565b6020815260006115c76020830184611ab7565b600060208284031215611b0857600080fd5b5035919050565b80356001600160a01b0381168114611b2657600080fd5b919050565b60008060408385031215611b3e57600080fd5b611b4783611b0f565b946020939093013593505050565b602081526000825160e06020840152611b72610100840182611ab7565b90506020840151601f1980858403016040860152611b908383611ab7565b92506040860151915080858403016060860152611bad8383611ab7565b9250606086015191508085840301608086015250611bcb8282611ab7565b915050608084015160a084015260018060a01b0360a08501511660c084015260c084015161185860e085018215159052565b600080600060608486031215611c1257600080fd5b611c1b84611b0f565b9250611c2960208501611b0f565b9150604084013590509250925092565b600060208284031215611c4b57600080fd5b6115c782611b0f565b60008060408385031215611c6757600080fd5b611c7083611b0f565b915060208301358015158114611c8557600080fd5b809150509250929050565b634e487b7160e01b600052604160045260246000fd5b600067ffffffffffffffff80841115611cc157611cc1611c90565b604051601f8501601f19908116603f01168101908282118183101715611ce957611ce9611c90565b81604052809350858152868686011115611d0257600080fd5b858560208301376000602087830101525050509392505050565b60008060008060808587031215611d3257600080fd5b611d3b85611b0f565b9350611d4960208601611b0f565b925060408501359150606085013567ffffffffffffffff811115611d6c57600080fd5b8501601f81018713611d7d57600080fd5b611d8c87823560208401611ca6565b91505092959194509250565b60008060408385031215611dab57600080fd5b50508035926020909101359150565b60008060408385031215611dcd57600080fd5b611dd683611b0f565b9150611de460208401611b0f565b90509250929050565b600082601f830112611dfe57600080fd5b6115c783833560208501611ca6565b60008060008060008060c08789031215611e2657600080fd5b611e2f87611b0f565b9550602087013567ffffffffffffffff80821115611e4c57600080fd5b611e588a838b01611ded565b96506040890135915080821115611e6e57600080fd5b611e7a8a838b01611ded565b95506060890135915080821115611e9057600080fd5b611e9c8a838b01611ded565b94506080890135915080821115611eb257600080fd5b611ebe8a838b01611ded565b935060a0890135915080821115611ed457600080fd5b50611ee189828a01611ded565b9150509295509295509295565b600060208284031215611f0057600080fd5b813567ffffffffffffffff811115611f1757600080fd5b610b7d84828501611ded565b600181811c90821680611f3757607f821691505b602082108103611f5757634e487b7160e01b600052602260045260246000fd5b50919050565b6020808252600f908201526e151bdad95b881b9bdd08199bdd5b99608a1b604082015260600190565b60008351611f98818460208801611a93565b835190830190611fac818360208801611a93565b01949350505050565b60008251611fc7818460208701611a93565b9190910192915050565b600060018201611ff157634e487b7160e01b600052601160045260246000fd5b5060010190565b601f8211156107b157600081815260208120601f850160051c8101602086101561201f5750805b601f850160051c820191505b818110156115505782815560010161202b565b815167ffffffffffffffff81111561205857612058611c90565b61206c816120668454611f23565b84611ff8565b602080601f8311600181146120a157600084156120895750858301515b600019600386901b1c1916600185901b178555611550565b600085815260208120601f198616915b828110156120d0578886015182559484019460019091019084016120b1565b50858210156120ee5787850151600019600388901b60f8161c191681555b5050505050600190811b01905550565b6040815260006121116040830185611ab7565b82810360208401526121238185611ab7565b95945050505050565b6001600160a01b0385811682528416602082015260408101839052608060608201819052600090610e3490830184611ab7565b60006020828403121561217157600080fd5b81516115c781611a6056fea26469706673582212201231f51f81b2517add92028cb2acf87a015552f8fb91cd9cfba85d97e7d024c164736f6c63430008140033",
  "linkReferences": {},
  "deployedLinkReferences": {}
}