{
  "_format": "hh-sol-artifact-1",
  "contractName": "ElectronicsNFT",
  "sourceName": "contracts/ElectronicsNFT.sol",
  "abi": [
    {
      "inputs": [],
      "stateMutability": "nonpayable",
      "type": "constructor"
    },
    {
      "inputs": [],
      "name": "AccessControlBadConfirmation",
      "type": "error"
    },
    {
      "inputs": [
        {
          "internalType": "address",
          "name": "account",
          "type": "address"
        },
        {
          "internalType": "bytes32",
          "name": "neededRole",
          "type": "bytes32"
        }
      ],
      "name": "AccessControlUnauthorizedAccount",
      "type": "error"
    },
    {
      "inputs": [
        {
          "internalType": "address",
          "name": "sender",
          "type": "address"
        },
        {
          "internalType": "uint256",
          "name": "tokenId",
          "type": "uint256"
        },
        {
          "internalType": "address",
          "name": "owner",
          "type": "address"
        }
      ],
      "name": "ERC721IncorrectOwner",
      "type": "error"
    },
    {
      "inputs": [
        {
          "internalType": "address",
          "name": "operator",
          "type": "address"
        },
        {
          "internalType": "uint256",
          "name": "tokenId",
          "type": "uint256"
        }
      ],
      "name": "ERC721InsufficientApproval",
      "type": "error"
    },
    {
      "inputs": [
        {
          "internalType": "address",
          "name": "approver",
          "type": "address"
        }
      ],
      "name": "ERC721InvalidApprover",
      "type": "error"
    },
    {
      "inputs": [
        {
          "internalType": "address",
          "name": "operator",
          "type": "address"
        }
      ],
      "name": "ERC721InvalidOperator",
      "type": "error"
    },
    {
      "inputs": [
        {
          "internalType": "address",
          "name": "owner",
          "type": "address"
        }
      ],
      "name": "ERC721InvalidOwner",
      "type": "error"
    },
    {
      "inputs": [
        {
          "internalType": "address",
          "name": "receiver",
          "type": "address"
        }
      ],
      "name": "ERC721InvalidReceiver",
      "type": "error"
    },
    {
      "inputs": [
        {
          "internalType": "address",
          "name": "sender",
          "type": "address"
        }
      ],
      "name": "ERC721InvalidSender",
      "type": "error"
    },
    {
      "inputs": [
        {
          "internalType": "uint256",
          "name": "tokenId",
          "type": "uint256"
        }
      ],
      "name": "ERC721NonexistentToken",
      "type": "error"
    },
    {
      "inputs": [],
      "name": "ReentrancyGuardReentrantCall",
      "type": "error"
    },
    {
      "anonymous": false,
      "inputs": [
        {
          "indexed": true,
          "internalType": "address",
          "name": "owner",
          "type": "address"
        },
        {
          "indexed": true,
          "internalType": "address",
          "name": "approved",
          "type": "address"
        },
        {
          "indexed": true,
          "internalType": "uint256",
          "name": "tokenId",
          "type": "uint256"
        }
      ],
      "name": "Approval",
      "type": "event"
    },
    {
      "anonymous": false,
      "inputs": [
        {
          "indexed": true,
          "internalType": "address",
          "name": "owner",
          "type": "address"
        },
        {
          "indexed": true,
          "internalType": "address",
          "name": "operator",
          "type": "address"
        },
        {
          "indexed": false,
          "internalType": "bool",
          "name": "approved",
          "type": "bool"
        }
      ],
      "name": "ApprovalForAll",
      "type": "event"
    },
    {
      "anonymous": false,
      "inputs": [
        {
          "indexed": false,
          "internalType": "uint256",
          "name": "_fromTokenId",
          "type": "uint256"
        },
        {
          "indexed": false,
          "internalType": "uint256",
          "name": "_toTokenId",
          "type": "uint256"
        }
      ],
      "name": "BatchMetadataUpdate",
      "type": "event"
    },
    {
      "anonymous": false,
      "inputs": [
        {
          "indexed": true,
          "internalType": "uint256",
          "name": "tokenId",
          "type": "uint256"
        },
        {
          "indexed": true,
          "internalType": "address",
          "name": "owner",
          "type": "address"
        },
        {
          "indexed": false,
          "internalType": "string",
          "name": "serialNumber",
          "type": "string"
        },
        {
          "indexed": false,
          "internalType": "string",
          "name": "tokenURI",
          "type": "string"
        }
      ],
      "name": "DeviceMinted",
      "type": "event"
    },
    {
      "anonymous": false,
      "inputs": [
        {
          "indexed": true,
          "internalType": "uint256",
          "name": "tokenId",
          "type": "uint256"
        },
        {
          "indexed": true,
          "internalType": "address",
          "name": "verifier",
          "type": "address"
        }
      ],
      "name": "DeviceVerified",
      "type": "event"
    },
    {
      "anonymous": false,
      "inputs": [
        {
          "indexed": false,
          "internalType": "uint256",
          "name": "_tokenId",
          "type": "uint256"
        }
      ],
      "name": "MetadataUpdate",
      "type": "event"
    },
    {
      "anonymous": false,
      "inputs": [
        {
          "indexed": true,
          "internalType": "uint256",
          "name": "tokenId",
          "type": "uint256"
        },
        {
          "indexed": true,
          "internalType": "address",
          "name": "reviewer",
          "type": "address"
        },
        {
          "indexed": false,
          "internalType": "bytes32",
          "name": "reviewHash",
          "type": "bytes32"
        }
      ],
      "name": "ReviewSubmitted",
      "type": "event"
    },
    {
      "anonymous": false,
      "inputs": [
        {
          "indexed": true,
          "internalType": "bytes32",
          "name": "role",
          "type": "bytes32"
        },
        {
          "indexed": true,
          "internalType": "bytes32",
          "name": "previousAdminRole",
          "type": "bytes32"
        },
        {
          "indexed": true,
          "internalType": "bytes32",
          "name": "newAdminRole",
          "type": "bytes32"
        }
      ],
      "name": "RoleAdminChanged",
      "type": "event"
    },
    {
      "anonymous": false,
      "inputs": [
        {
          "indexed": true,
          "internalType": "bytes32",
          "name": "role",
          "type": "bytes32"
        },
        {
          "indexed": true,
          "internalType": "address",
          "name": "account",
          "type": "address"
        },
        {
          "indexed": true,
          "internalType": "address",
          "name": "sender",
          "type": "address"
        }
      ],
      "name": "RoleGranted",
      "type": "event"
    },
    {
      "anonymous": false,
      "inputs": [
        {
          "indexed": true,
          "internalType": "bytes32",
          "name": "role",
          "type": "bytes32"
        },
        {
          "indexed": true,
          "internalType": "address",
          "name": "account",
          "type": "address"
        },
        {
          "indexed": true,
          "internalType": "address",
          "name": "sender",
          "type": "address"
        }
      ],
      "name": "RoleRevoked",
      "type": "event"
    },
    {
      "anonymous": false,
      "inputs": [
        {
          "indexed": true,
          "internalType": "address",
          "name": "from",
          "type": "address"
        },
        {
          "indexed": true,
          "internalType": "address",
          "name": "to",
          "type": "address"
        },
        {
          "indexed": true,
          "internalType": "uint256",
          "name": "tokenId",
          "type": "uint256"
        }
      ],
      "name": "Transfer",
      "type": "event"
    },
    {
      "inputs": [],
      "name": "DEFAULT_ADMIN_ROLE",
      "outputs": [
        {
          "internalType": "bytes32",
          "name": "",
          "type": "bytes32"
        }
      ],
      "stateMutability": "view",
      "type": "function"
    },
    {
      "inputs": [],
      "name": "VERIFIER_ROLE",
      "outputs": [
        {
          "internalType": "bytes32",
          "name": "",
          "type": "bytes32"
        }
      ],
      "stateMutability": "view",
      "type": "function"
    },
    {
      "inputs": [
        {
          "internalType": "address",
          "name": "to",
          "type": "address"
        },
        {
          "internalType": "uint256",
          "name": "tokenId",
          "type": "uint256"
        }
      ],
      "name": "approve",
      "outputs": [],
      "stateMutability": "nonpayable",
      "type": "function"
    },
    {
      "inputs": [
        {
          "internalType": "address",
          "name": "owner",
          "type": "address"
        }
      ],
      "name": "balanceOf",
      "outputs": [
        {
          "internalType": "uint256",
          "name": "",
          "type": "uint256"
        }
      ],
      "stateMutability": "view",
      "type": "function"
    },
    {
      "inputs": [
        {
          "internalType": "uint256",
          "name": "tokenId",
          "type": "uint256"
        }
      ],
      "name": "getApproved",
      "outputs": [
        {
          "internalType": "address",
          "name": "",
          "type": "address"
        }
      ],
      "stateMutability": "view",
      "type": "function"
    },
    {
      "inputs": [
        {
          "internalType": "uint256",
          "name": "tokenId",
          "type": "uint256"
        }
      ],
      "name": "getDevice",
      "outputs": [
        {
          "components": [
            {
              "internalType": "string",
              "name": "brand",
              "type": "string"
            },
            {
              "internalType": "string",
              "name": "model",
              "type": "string"
            },
            {
              "internalType": "string",
              "name": "serialNumber",
              "type": "string"
            },
            {
              "internalType": "string",
              "name": "warrantyExpiry",
              "type": "string"
            },
            {
              "internalType": "uint256",
              "name": "mintedAt",
              "type": "uint256"
            },
            {
              "internalType": "address",
              "name": "originalOwner",
              "type": "address"
            },
            {
              "internalType": "bool",
              "name": "isVerified",
              "type": "bool"
            }
          ],
          "internalType": "struct ElectronicsNFT.ElectronicDevice",
          "name": "",
          "type": "tuple"
        }
      ],
      "stateMutability": "view",
      "type": "function"
    },
    {
      "inputs": [
        {
          "internalType": "string",
          "name": "serialNumber",
          "type": "string"
        }
      ],
      "name": "getDeviceBySerial",
      "outputs": [
        {
          "components": [
            {
              "internalType": "string",
              "name": "brand",
              "type": "string"
            },
            {
              "internalType": "string",
              "name": "model",
              "type": "string"
            },
            {
              "internalType": "string",
              "name": "serialNumber",
              "type": "string"
            },
            {
              "internalType": "string",
              "name": "warrantyExpiry",
              "type": "string"
            },
            {
              "internalType": "uint256",
              "name": "mintedAt",
              "type": "uint256"
            },
            {
              "internalType": "address",
              "name": "originalOwner",
              "type": "address"
            },
            {
              "internalType": "bool",
              "name": "isVerified",
              "type": "bool"
            }
          ],
          "internalType": "struct ElectronicsNFT.ElectronicDevice",
          "name": "",
          "type": "tuple"
        }
      ],
      "stateMutability": "view",
      "type": "function"
    },
    {
      "inputs": [
        {
          "internalType": "bytes32",
          "name": "role",
          "type": "bytes32"
        }
      ],
      "name": "getRoleAdmin",
      "outputs": [
        {
          "internalType": "bytes32",
          "name": "",
          "type": "bytes32"
        }
      ],
      "stateMutability": "view",
      "type": "function"
    },
    {
      "inputs": [],
      "name": "getTotalDevices",
      "outputs": [
        {
          "internalType": "uint256",
          "name": "",
          "type": "uint256"
        }
      ],
      "stateMutability": "view",
      "type": "function"
    },
    {
      "inputs": [
        {
          "internalType": "bytes32",
          "name": "role",
          "type": "bytes32"
        },
        {
          "internalType": "address",
          "name": "account",
          "type": "address"
        }
      ],
      "name": "grantRole",
      "outputs": [],
      "stateMutability": "nonpayable",
      "type": "function"
    },
    {
      "inputs": [
        {
          "internalType": "bytes32",
          "name": "role",
          "type": "bytes32"
        },
        {
          "internalType": "address",
          "name": "account",
          "type": "address"
        }
      ],
      "name": "hasRole",
      "outputs": [
        {
          "internalType": "bool",
          "name": "",
          "type": "bool"
        }
      ],
      "stateMutability": "view",
      "type": "function"
    },
    {
      "inputs": [
        {
          "internalType": "address",
          "name": "owner",
          "type": "address"
        },
        {
          "internalType": "address",
          "name": "operator",
          "type": "address"
        }
      ],
      "name": "isApprovedForAll",
      "outputs": [
        {
          "internalType": "bool",
          "name": "",
          "type": "bool"
        }
      ],
      "stateMutability": "view",
      "type": "function"
    },
    {
      "inputs": [
        {
          "internalType": "uint256",
          "name": "tokenId",
          "type": "uint256"
        }
      ],
      "name": "isDeviceVerified",
      "outputs": [
        {
          "internalType": "bool",
          "name": "",
          "type": "bool"
        }
      ],
      "stateMutability": "view",
      "type": "function"
    },
    {
      "inputs": [
        {
          "internalType": "address",
          "name": "to",
          "type": "address"
        },
        {
          "internalType": "string",
          "name": "serialNumber",
          "type": "string"
        },
        {
          "internalType": "string",
          "name": "brand",
          "type": "string"
        },
        {
          "internalType": "string",
          "name": "model",
          "type": "string"
        },
        {
          "internalType": "string",
          "name": "warrantyExpiry",
          "type": "string"
        },
        {
          "internalType": "string",
          "name": "tokenURI",
          "type": "string"
        }
      ],
      "name": "mintElectronic",
      "outputs": [
        {
          "internalType": "uint256",
          "name": "",
          "type": "uint256"
        }
      ],
      "stateMutability": "nonpayable",
      "type": "function"
    },
    {
      "inputs": [],
      "name": "name",
      "outputs": [
        {
          "internalType": "string",
          "name": "",
          "type": "string"
        }
      ],
      "stateMutability": "view",
      "type": "function"
    },
    {
      "inputs": [
        {
          "internalType": "uint256",
          "name": "tokenId",
          "type": "uint256"
        }
      ],
      "name": "ownerOf",
      "outputs": [
        {
          "internalType": "address",
          "name": "",
          "type": "address"
        }
      ],
      "stateMutability": "view",
      "type": "function"
    },
    {
      "inputs": [
        {
          "internalType": "bytes32",
          "name": "role",
          "type": "bytes32"
        },
        {
          "internalType": "address",
          "name": "callerConfirmation",
          "type": "address"
        }
      ],
      "name": "renounceRole",
      "outputs": [],
      "stateMutability": "nonpayable",
      "type": "function"
    },
    {
      "inputs": [
        {
          "internalType": "bytes32",
          "name": "role",
          "type": "bytes32"
        },
        {
          "internalType": "address",
          "name": "account",
          "type": "address"
        }
      ],
      "name": "revokeRole",
      "outputs": [],
      "stateMutability": "nonpayable",
      "type": "function"
    },
    {
      "inputs": [
        {
          "internalType": "address",
          "name": "from",
          "type": "address"
        },
        {
          "internalType": "address",
          "name": "to",
          "type": "address"
        },
        {
          "internalType": "uint256",
          "name": "tokenId",
          "type": "uint256"
        }
      ],
      "name": "safeTransferFrom",
      "outputs": [],
      "stateMutability": "nonpayable",
      "type": "function"
    },
    {
      "inputs": [
        {
          "internalType": "address",
          "name": "from",
          "type": "address"
        },
        {
          "internalType": "address",
          "name": "to",
          "type": "address"
        },
        {
          "internalType": "uint256",
          "name": "tokenId",
          "type": "uint256"
        },
        {
          "internalType": "bytes",
          "name": "data",
          "type": "bytes"
        }
      ],
      "name": "safeTransferFrom",
      "outputs": [],
      "stateMutability": "nonpayable",
      "type": "function"
    },
    {
      "inputs": [
        {
          "internalType": "address",
          "name": "operator",
          "type": "address"
        },
        {
          "internalType": "bool",
          "name": "approved",
          "type": "bool"
        }
      ],
      "name": "setApprovalForAll",
      "outputs": [],
      "stateMutability": "nonpayable",
      "type": "function"
    },
    {
      "inputs": [
        {
          "internalType": "uint256",
          "name": "tokenId",
          "type": "uint256"
        },
        {
          "internalType": "bytes32",
          "name": "reviewHash",
          "type": "bytes32"
        }
      ],
      "name": "submitReview",
      "outputs": [],
      "stateMutability": "nonpayable",
      "type": "function"
    },
    {
      "inputs": [
        {
          "internalType": "bytes4",
          "name": "interfaceId",
          "type": "bytes4"
        }
      ],
      "name": "supportsInterface",
      "outputs": [
        {
          "internalType": "bool",
          "name": "",
          "type": "bool"
        }
      ],
      "stateMutability": "view",
      "type": "function"
    },
    {
      "inputs": [],
      "name": "symbol",
      "outputs": [
        {
          "internalType": "string",
          "name": "",
          "type": "string"
        }
      ],
      "stateMutability": "view",
      "type": "function"
    },
    {
      "inputs": [
        {
          "internalType": "uint256",
          "name": "tokenId",
          "type": "uint256"
        }
      ],
      "name": "tokenURI",
      "outputs": [
        {
          "internalType": "string",
          "name": "",
          "type": "string"
        }
      ],
      "stateMutability": "view",
      "type": "function"
    },
    {
      "inputs": [],
      "name": "totalMinted",
      "outputs": [
        {
          "internalType": "uint256",
          "name": "",
          "type": "uint256"
        }
      ],
      "stateMutability": "view",
      "type": "function"
    },
    {
      "inputs": [
        {
          "internalType": "address",
          "name": "from",
          "type": "address"
        },
        {
          "internalType": "address",
          "name": "to",
          "type": "address"
        },
        {
          "internalType": "uint256",
          "name": "tokenId",
          "type": "uint256"
        }
      ],
      "name": "transferFrom",
      "outputs": [],
      "stateMutability": "nonpayable",
      "type": "function"
    },
    {
      "inputs": [
        {
          "internalType": "uint256",
          "name": "tokenId",
          "type": "uint256"
        }
      ],
      "name": "verifyDevice",
      "outputs": [],
      "stateMutability": "nonpayable",
      "type": "function"
    }
  ],
  "bytecode": "0x60806040523480156200001157600080fd5b506040518060400160405280601981526020017f4469676974616c20476f6f647320456c656374726f6e696373000000000000008152506040518060400160405280600381526020016244474560e81b815250816000908162000075919062000225565b50600162000084828262000225565b505060016008555062000099600033620000cd565b50620000c67f0ce23c3e399818cfee81a7ab0880f714e53d7672b08df0fa62f2843416e1ea0933620000cd565b50620002f1565b60008281526007602090815260408083206001600160a01b038516845290915281205460ff16620001765760008381526007602090815260408083206001600160a01b03861684529091529020805460ff191660011790556200012d3390565b6001600160a01b0316826001600160a01b0316847f2f8788117e7eff1d82e926ec794901d17c78024a50270940304540a733656f0d60405160405180910390a45060016200017a565b5060005b92915050565b634e487b7160e01b600052604160045260246000fd5b600181811c90821680620001ab57607f821691505b602082108103620001cc57634e487b7160e01b600052602260045260246000fd5b50919050565b601f8211156200022057600081815260208120601f850160051c81016020861015620001fb5750805b601f850160051c820191505b818110156200021c5782815560010162000207565b5050505b505050565b81516001600160401b0381111562000241576200024162000180565b620002598162000252845462000196565b84620001d2565b602080601f831160018114620002915760008415620002785750858301515b600019600386901b1c1916600185901b1785556200021c565b600085815260208120601f198616915b82811015620002c257888601518255948401946001909101908401620002a1565b5085821015620002e15787850151600019600388901b60f8161c191681555b5050505050600190811b01905550565b61241780620003016000396000f3fe608060405234801561001057600080fd5b50600436106101c45760003560e01c806391d14854116100f9578063c87b56dd11610097578063e7705db611610071578063e7705db6146103b9578063e985e9c5146103e0578063ecb390a1146103f3578063f42f4b6e1461040657600080fd5b8063c87b56dd14610393578063d547741f146103a6578063dc61d1611461036557600080fd5b8063a22cb465116100d3578063a22cb46514610352578063a2309ff814610365578063b88d4fde1461036d578063bf2950711461038057600080fd5b806391d148541461032f57806395d89b4114610342578063a217fddf1461034a57600080fd5b80632f2ff15d1161016657806352069f3f1161014057806352069f3f146102e35780636352211e146102f657806370a0823114610309578063870890da1461031c57600080fd5b80632f2ff15d146102aa57806336568abe146102bd57806342842e0e146102d057600080fd5b8063095ea7b3116101a2578063095ea7b31461023157806309f110b11461024657806323b872dd14610266578063248a9ca31461027957600080fd5b806301ffc9a7146101c957806306fdde03146101f1578063081812fc14610206575b600080fd5b6101dc6101d7366004611cb8565b610419565b60405190151581526020015b60405180910390f35b6101f961042a565b6040516101e89190611d25565b610219610214366004611d38565b6104bc565b6040516001600160a01b0390911681526020016101e8565b61024461023f366004611d6d565b6104e5565b005b610259610254366004611d38565b6104f4565b6040516101e89190611d97565b610244610274366004611e3f565b6107cf565b61029c610287366004611d38565b60009081526007602052604090206001015490565b6040519081526020016101e8565b6102446102b8366004611e7b565b61085a565b6102446102cb366004611e7b565b61087f565b6102446102de366004611e3f565b6108b7565b6101dc6102f1366004611d38565b6108d2565b610219610304366004611d38565b610916565b61029c610317366004611ea7565b610921565b61024461032a366004611d38565b610969565b6101dc61033d366004611e7b565b610a73565b6101f9610a9e565b61029c600081565b610244610360366004611ec2565b610aad565b60095461029c565b61024461037b366004611f8a565b610ab8565b61024461038e366004612006565b610ad0565b6101f96103a1366004611d38565b610bbd565b6102446103b4366004611e7b565b610cce565b61029c7f0ce23c3e399818cfee81a7ab0880f714e53d7672b08df0fa62f2843416e1ea0981565b6101dc6103ee366004612028565b610cf3565b61029c610401366004612072565b610d21565b610259610414366004612153565b610fac565b6000610424826112b1565b92915050565b60606000805461043990612188565b80601f016020809104026020016040519081016040528092919081815260200182805461046590612188565b80156104b25780601f10610487576101008083540402835291602001916104b2565b820191906000526020600020905b81548152906001019060200180831161049557829003601f168201915b5050505050905090565b60006104c7826112d6565b506000828152600460205260409020546001600160a01b0316610424565b6104f082823361130f565b5050565b6104fc611c5a565b6000828152600260205260409020546001600160a01b03166105395760405162461bcd60e51b8152600401610530906121c2565b60405180910390fd5b6000828152600a602052604090819020815160e0810190925280548290829061056190612188565b80601f016020809104026020016040519081016040528092919081815260200182805461058d90612188565b80156105da5780601f106105af576101008083540402835291602001916105da565b820191906000526020600020905b8154815290600101906020018083116105bd57829003601f168201915b505050505081526020016001820180546105f390612188565b80601f016020809104026020016040519081016040528092919081815260200182805461061f90612188565b801561066c5780601f106106415761010080835404028352916020019161066c565b820191906000526020600020905b81548152906001019060200180831161064f57829003601f168201915b5050505050815260200160028201805461068590612188565b80601f01602080910402602001604051908101604052809291908181526020018280546106b190612188565b80156106fe5780601f106106d3576101008083540402835291602001916106fe565b820191906000526020600020905b8154815290600101906020018083116106e157829003601f168201915b5050505050815260200160038201805461071790612188565b80601f016020809104026020016040519081016040528092919081815260200182805461074390612188565b80156107905780601f1061076557610100808354040283529160200191610790565b820191906000526020600020905b81548152906001019060200180831161077357829003601f168201915b5050509183525050600482015460208201526005909101546001600160a01b0381166040830152600160a01b900460ff16151560609091015292915050565b6001600160a01b0382166107f957604051633250574960e11b815260006004820152602401610530565b600061080683833361131c565b9050836001600160a01b0316816001600160a01b031614610854576040516364283d7b60e01b81526001600160a01b0380861660048301526024820184905282166044820152606401610530565b50505050565b60008281526007602052604090206001015461087581611415565b6108548383611422565b6001600160a01b03811633146108a85760405163334bd91960e11b815260040160405180910390fd5b6108b282826114b6565b505050565b6108b283838360405180602001604052806000815250610ab8565b6000818152600260205260408120546001600160a01b03166108f657506000919050565b506000908152600a6020526040902060050154600160a01b900460ff1690565b6000610424826112d6565b60006001600160a01b03821661094d576040516322718ad960e21b815260006004820152602401610530565b506001600160a01b031660009081526003602052604090205490565b7f0ce23c3e399818cfee81a7ab0880f714e53d7672b08df0fa62f2843416e1ea0961099381611415565b6000828152600260205260409020546001600160a01b03166109c75760405162461bcd60e51b8152600401610530906121c2565b6000828152600a6020526040902060050154600160a01b900460ff1615610a235760405162461bcd60e51b815260206004820152601060248201526f105b1c9958591e481d995c9a599a595960821b6044820152606401610530565b6000828152600a6020526040808220600501805460ff60a01b1916600160a01b17905551339184917faa923c50e943bc69a792cd6243243373b6a812ea9c0b64fa9aba8a934128ab5c9190a35050565b60009182526007602090815260408084206001600160a01b0393909316845291905290205460ff1690565b60606001805461043990612188565b6104f0338383611523565b610ac38484846107cf565b61085433858585856115c2565b6000828152600260205260409020546001600160a01b0316610b045760405162461bcd60e51b8152600401610530906121c2565b6000828152600c6020908152604080832033845290915290205460ff1615610b615760405162461bcd60e51b815260206004820152601060248201526f105b1c9958591e481c995d9a595dd95960821b6044820152606401610530565b6000828152600c602090815260408083203380855290835292819020805460ff191660011790555183815284917f14a245c2c1e780ac3e626180f87fcc714f950469cbf4b35ca0feecce5e429eee910160405180910390a35050565b6060610bc8826112d6565b5060008281526006602052604081208054610be290612188565b80601f0160208091040260200160405190810160405280929190818152602001828054610c0e90612188565b8015610c5b5780601f10610c3057610100808354040283529160200191610c5b565b820191906000526020600020905b815481529060010190602001808311610c3e57829003601f168201915b505050505090506000610c7960408051602081019091526000815290565b90508051600003610c8b575092915050565b815115610cbd578082604051602001610ca59291906121eb565b60405160208183030381529060405292505050919050565b610cc6846116ed565b949350505050565b600082815260076020526040902060010154610ce981611415565b61085483836114b6565b6001600160a01b03918216600090815260056020908152604080832093909416825291909152205460ff1690565b6000610d2b611762565b6001600160a01b038716610d735760405162461bcd60e51b815260206004820152600f60248201526e496e76616c6964206164647265737360881b6044820152606401610530565b6000865111610db65760405162461bcd60e51b815260206004820152600f60248201526e14d95c9a585b081c995c5d5a5c9959608a1b6044820152606401610530565b600b86604051610dc6919061221a565b908152602001604051809103902054600014610e245760405162461bcd60e51b815260206004820152601960248201527f44657669636520616c72656164792072656769737465726564000000000000006044820152606401610530565b60098054906000610e3483612236565b90915550506009546040805160e08101825287815260208082018890528183018a9052606082018790524260808301526001600160a01b038b1660a0830152600060c08301819052848152600a9091529190912081518190610e9690826122a3565b5060208201516001820190610eab90826122a3565b5060408201516002820190610ec090826122a3565b5060608201516003820190610ed590826122a3565b506080820151600482015560a08201516005909101805460c0909301511515600160a01b026001600160a81b03199093166001600160a01b03909216919091179190911790556040518190600b90610f2e908a9061221a565b90815260405190819003602001902055610f48888261178c565b610f5281846117a6565b876001600160a01b0316817f5386e65881f2fc137aed7aa612faf9f636c7e1e444e6e6b6223958f50ceb2ad68986604051610f8e929190612363565b60405180910390a39050610fa26001600855565b9695505050505050565b610fb4611c5a565b6000600b83604051610fc6919061221a565b90815260200160405180910390205490508060000361101a5760405162461bcd60e51b815260206004820152601060248201526f11195d9a58d9481b9bdd08199bdd5b9960821b6044820152606401610530565b6000818152600a602052604090819020815160e0810190925280548290829061104290612188565b80601f016020809104026020016040519081016040528092919081815260200182805461106e90612188565b80156110bb5780601f10611090576101008083540402835291602001916110bb565b820191906000526020600020905b81548152906001019060200180831161109e57829003601f168201915b505050505081526020016001820180546110d490612188565b80601f016020809104026020016040519081016040528092919081815260200182805461110090612188565b801561114d5780601f106111225761010080835404028352916020019161114d565b820191906000526020600020905b81548152906001019060200180831161113057829003601f168201915b5050505050815260200160028201805461116690612188565b80601f016020809104026020016040519081016040528092919081815260200182805461119290612188565b80156111df5780601f106111b4576101008083540402835291602001916111df565b820191906000526020600020905b8154815290600101906020018083116111c257829003601f168201915b505050505081526020016003820180546111f890612188565b80601f016020809104026020016040519081016040528092919081815260200182805461122490612188565b80156112715780601f1061124657610100808354040283529160200191611271565b820191906000526020600020905b81548152906001019060200180831161125457829003601f168201915b5050509183525050600482015460208201526005909101546001600160a01b0381166040830152600160a01b900460ff1615156060909101529392505050565b60006001600160e01b03198216637965db0b60e01b14806104245750610424826117f6565b6000818152600260205260408120546001600160a01b03168061042457604051637e27328960e01b815260048101849052602401610530565b6108b2838383600161181b565b6000828152600260205260408120546001600160a01b039081169083161561134957611349818486611921565b6001600160a01b038116156113875761136660008560008061181b565b6001600160a01b038116600090815260036020526040902080546000190190555b6001600160a01b038516156113b6576001600160a01b0385166000908152600360205260409020805460010190555b60008481526002602052604080822080546001600160a01b0319166001600160a01b0389811691821790925591518793918516917fddf252ad1be2c89b69c2b068fc378daa952ba7f163c4a11628f55a4df523b3ef91a4949350505050565b61141f8133611985565b50565b600061142e8383610a73565b6114ae5760008381526007602090815260408083206001600160a01b03861684529091529020805460ff191660011790556114663390565b6001600160a01b0316826001600160a01b0316847f2f8788117e7eff1d82e926ec794901d17c78024a50270940304540a733656f0d60405160405180910390a4506001610424565b506000610424565b60006114c28383610a73565b156114ae5760008381526007602090815260408083206001600160a01b0386168085529252808320805460ff1916905551339286917ff6391f5c32d9c69d2a47ea670b442974b53935d1edc7fd64eb21e047a839171b9190a4506001610424565b6001600160a01b03821661155557604051630b61174360e31b81526001600160a01b0383166004820152602401610530565b6001600160a01b03838116600081815260056020908152604080832094871680845294825291829020805460ff191686151590811790915591519182527f17307eab39ab6107e8899845ad3d59bd9653f200f220920489ca2b5937696c31910160405180910390a3505050565b6001600160a01b0383163b156116e657604051630a85bd0160e11b81526001600160a01b0384169063150b7a0290611604908890889087908790600401612391565b6020604051808303816000875af192505050801561163f575060408051601f3d908101601f1916820190925261163c918101906123c4565b60015b6116a8573d80801561166d576040519150601f19603f3d011682016040523d82523d6000602084013e611672565b606091505b5080516000036116a057604051633250574960e11b81526001600160a01b0385166004820152602401610530565b805160208201fd5b6001600160e01b03198116630a85bd0160e11b146116e457604051633250574960e11b81526001600160a01b0385166004820152602401610530565b505b5050505050565b60606116f8826112d6565b50600061171060408051602081019091526000815290565b90506000815111611730576040518060200160405280600081525061175b565b8061173a846119be565b60405160200161174b9291906121eb565b6040516020818303038152906040525b9392505050565b60026008540361178557604051633ee5aeb560e01b815260040160405180910390fd5b6002600855565b6104f0828260405180602001604052806000815250611a52565b60008281526006602052604090206117be82826122a3565b506040518281527ff8e1a15aba9398e019f0b49df1a4fde98ee17ae345cb5f6b5e2c27f5033e8ce79060200160405180910390a15050565b60006001600160e01b03198216632483248360e11b1480610424575061042482611a6a565b808061182f57506001600160a01b03821615155b156118f157600061183f846112d6565b90506001600160a01b0383161580159061186b5750826001600160a01b0316816001600160a01b031614155b801561187e575061187c8184610cf3565b155b156118a75760405163a9fbf51f60e01b81526001600160a01b0384166004820152602401610530565b81156118ef5783856001600160a01b0316826001600160a01b03167f8c5be1e5ebec7d5bd14f71427d1e84f3dd0314c0f7b2291e5b200ac8c7c3b92560405160405180910390a45b505b5050600090815260046020526040902080546001600160a01b0319166001600160a01b0392909216919091179055565b61192c838383611aba565b6108b2576001600160a01b03831661195a57604051637e27328960e01b815260048101829052602401610530565b60405163177e802f60e01b81526001600160a01b038316600482015260248101829052604401610530565b61198f8282610a73565b6104f05760405163e2517d3f60e01b81526001600160a01b038216600482015260248101839052604401610530565b606060006119cb83611b1d565b600101905060008167ffffffffffffffff8111156119eb576119eb611efe565b6040519080825280601f01601f191660200182016040528015611a15576020820181803683370190505b5090508181016020015b600019016f181899199a1a9b1b9c1cb0b131b232b360811b600a86061a8153600a8504945084611a1f575b509392505050565b611a5c8383611bf5565b6108b23360008585856115c2565b60006001600160e01b031982166380ac58cd60e01b1480611a9b57506001600160e01b03198216635b5e139f60e01b145b8061042457506301ffc9a760e01b6001600160e01b0319831614610424565b60006001600160a01b03831615801590610cc65750826001600160a01b0316846001600160a01b03161480611af45750611af48484610cf3565b80610cc65750506000908152600460205260409020546001600160a01b03908116911614919050565b60008072184f03e93ff9f4daa797ed6e38ed64bf6a1f0160401b8310611b5c5772184f03e93ff9f4daa797ed6e38ed64bf6a1f0160401b830492506040015b6d04ee2d6d415b85acef81000000008310611b88576d04ee2d6d415b85acef8100000000830492506020015b662386f26fc100008310611ba657662386f26fc10000830492506010015b6305f5e1008310611bbe576305f5e100830492506008015b6127108310611bd257612710830492506004015b60648310611be4576064830492506002015b600a83106104245760010192915050565b6001600160a01b038216611c1f57604051633250574960e11b815260006004820152602401610530565b6000611c2d8383600061131c565b90506001600160a01b038116156108b2576040516339e3563760e11b815260006004820152602401610530565b6040518060e00160405280606081526020016060815260200160608152602001606081526020016000815260200160006001600160a01b031681526020016000151581525090565b6001600160e01b03198116811461141f57600080fd5b600060208284031215611cca57600080fd5b813561175b81611ca2565b60005b83811015611cf0578181015183820152602001611cd8565b50506000910152565b60008151808452611d11816020860160208601611cd5565b601f01601f19169290920160200192915050565b60208152600061175b6020830184611cf9565b600060208284031215611d4a57600080fd5b5035919050565b80356001600160a01b0381168114611d6857600080fd5b919050565b60008060408385031215611d8057600080fd5b611d8983611d51565b946020939093013593505050565b602081526000825160e06020840152611db4610100840182611cf9565b90506020840151601f1980858403016040860152611dd28383611cf9565b92506040860151915080858403016060860152611def8383611cf9565b9250606086015191508085840301608086015250611e0d8282611cf9565b915050608084015160a084015260018060a01b0360a08501511660c084015260c0840151611a4a60e085018215159052565b600080600060608486031215611e5457600080fd5b611e5d84611d51565b9250611e6b60208501611d51565b9150604084013590509250925092565b60008060408385031215611e8e57600080fd5b82359150611e9e60208401611d51565b90509250929050565b600060208284031215611eb957600080fd5b61175b82611d51565b60008060408385031215611ed557600080fd5b611ede83611d51565b915060208301358015158114611ef357600080fd5b809150509250929050565b634e487b7160e01b600052604160045260246000fd5b600067ffffffffffffffff80841115611f2f57611f2f611efe565b604051601f8501601f19908116603f01168101908282118183101715611f5757611f57611efe565b81604052809350858152868686011115611f7057600080fd5b858560208301376000602087830101525050509392505050565b60008060008060808587031215611fa057600080fd5b611fa985611d51565b9350611fb760208601611d51565b925060408501359150606085013567ffffffffffffffff811115611fda57600080fd5b8501601f81018713611feb57600080fd5b611ffa87823560208401611f14565b91505092959194509250565b6000806040838503121561201957600080fd5b50508035926020909101359150565b6000806040838503121561203b57600080fd5b61204483611d51565b9150611e9e60208401611d51565b600082601f83011261206357600080fd5b61175b83833560208501611f14565b60008060008060008060c0878903121561208b57600080fd5b61209487611d51565b9550602087013567ffffffffffffffff808211156120b157600080fd5b6120bd8a838b01612052565b965060408901359150808211156120d357600080fd5b6120df8a838b01612052565b955060608901359150808211156120f557600080fd5b6121018a838b01612052565b9450608089013591508082111561211757600080fd5b6121238a838b01612052565b935060a089013591508082111561213957600080fd5b5061214689828a01612052565b9150509295509295509295565b60006020828403121561216557600080fd5b813567ffffffffffffffff81111561217c57600080fd5b610cc684828501612052565b600181811c9082168061219c57607f821691505b6020821081036121bc57634e487b7160e01b600052602260045260246000fd5b50919050565b6020808252600f908201526e151bdad95b881b9bdd08199bdd5b99608a1b604082015260600190565b600083516121fd818460208801611cd5565b835190830190612211818360208801611cd5565b01949350505050565b6000825161222c818460208701611cd5565b9190910192915050565b60006001820161225657634e487b7160e01b600052601160045260246000fd5b5060010190565b601f8211156108b257600081815260208120601f850160051c810160208610156122845750805b601f850160051c820191505b818110156116e457828155600101612290565b815167ffffffffffffffff8111156122bd576122bd611efe565b6122d1816122cb8454612188565b8461225d565b602080601f83116001811461230657600084156122ee5750858301515b600019600386901b1c1916600185901b1785556116e4565b600085815260208120601f198616915b8281101561233557888601518255948401946001909101908401612316565b50858210156123535787850151600019600388901b60f8161c191681555b5050505050600190811b01905550565b6040815260006123766040830185611cf9565b82810360208401526123888185611cf9565b95945050505050565b6001600160a01b0385811682528416602082015260408101839052608060608201819052600090610fa290830184611cf9565b6000602082840312156123d657600080fd5b815161175b81611ca256fea2646970667358221220c9b206d6f727095c28323d0da52f0b3e74637bfb329f2ad7b9b154161a074d7c64736f6c63430008140033",
  "linkReferences": {},
  "deployedLinkReferences": {}
}