{
  "_format": "hh-sol-artifact-1",
  "contractName": "ElectronicsNFT",
  "sourceName": "contracts/ElectronicsNFT.sol",
  "abi": [
    {
      "inputs": [],
      "stateMutability": "nonpayable",
      "type": "constructor"
    },
    {
      "inputs": [],
      "name": "AccessControlBadConfirmation",
      "type": "error"
    },
    {
      "inputs": [
        {
          "internalType": "address",
          "name": "account",
          "type": "address"
        },
        {
          "internalType": "bytes32",
          "name": "neededRole",
          "type": "bytes32"
        }
      ],
      "name": "AccessControlUnauthorizedAccount",
      "type": "error"
    },
    {
      "inputs": [
        {
          "internalType": "address",
          "name": "sender",
          "type": "address"
        },
        {
          "internalType": "uint256",
          "name": "tokenId",
          "type": "uint256"
        },
        {
          "internalType": "address",
          "name": "owner",
          "type": "address"
        }
      ],
      "name": "ERC721IncorrectOwner",
      "type": "error"
    },
    {
      "inputs": [
        {
          "internalType": "address",
          "name": "operator",
          "type": "address"
        },
        {
          "internalType": "uint256",
          "name": "tokenId",
          "type": "uint256"
        }
      ],
      "name": "ERC721InsufficientApproval",
      "type": "error"
    },
    {
      "inputs": [
        {
          "internalType": "address",
          "name": "approver",
          "type": "address"
        }
      ],
      "name": "ERC721InvalidApprover",
      "type": "error"
    },
    {
      "inputs": [
        {
          "internalType": "address",
          "name": "operator",
          "type": "address"
        }
      ],
      "name": "ERC721InvalidOperator",
      "type": "error"
    },
    {
      "inputs": [
        {
          "internalType": "address",
          "name": "owner",
          "type": "address"
        }
      ],
      "name": "ERC721InvalidOwner",
      "type": "error"
    },
    {
      "inputs": [
        {
          "internalType": "address",
          "name": "receiver",
          "type": "address"
        }
      ],
      "name": "ERC721InvalidReceiver",
      "type": "error"
    },
    {
      "inputs": [
        {
          "internalType": "address",
          "name": "sender",
          "type": "address"
        }
      ],
      "name": "ERC721InvalidSender",
      "type": "error"
    },
    {
      "inputs": [
        {
          "internalType": "uint256",
          "name": "tokenId",
          "type": "uint256"
        }
      ],
      "name": "ERC721NonexistentToken",
      "type": "error"
    },
    {
      "inputs": [],
      "name": "ReentrancyGuardReentrantCall",
      "type": "error"
    },
    {
      "anonymous": false,
      "inputs": [
        {
          "indexed": true,
          "internalType": "address",
          "name": "owner",
          "type": "address"
        },
        {
          "indexed": true,
          "internalType": "address",
          "name": "approved",
          "type": "address"
        },
        {
          "indexed": true,
          "internalType": "uint256",
          "name": "tokenId",
          "type": "uint256"
        }
      ],
      "name": "Approval",
      "type": "event"
    },
    {
      "anonymous": false,
      "inputs": [
        {
          "indexed": true,
          "internalType": "address",
          "name": "owner",
          "type": "address"
        },
        {
          "indexed": true,
          "internalType": "address",
          "name": "operator",
          "type": "address"
        },
        {
          "indexed": false,
          "internalType": "bool",
          "name": "approved",
          "type": "bool"
        }
      ],
      "name": "ApprovalForAll",
      "type": "event"
    },
    {
      "anonymous": false,
      "inputs": [
        {
          "indexed": false,
          "internalType": "uint256",
          "name": "_fromTokenId",
          "type": "uint256"
        },
        {
          "indexed": false,
          "internalType": "uint256",
          "name": "_toTokenId",
          "type": "uint256"
        }
      ],
      "name": "BatchMetadataUpdate",
      "type": "event"
    },
    {
      "anonymous": false,
      "inputs": [
        {
          "indexed": true,
          "internalType": "string",
          "name": "serialNumber",
          "type": "string"
        },
        {
          "indexed": true,
          "internalType": "address",
          "name": "reporter",
          "type": "address"
        }
      ],
      "name": "DeviceBlacklisted",
      "type": "event"
    },
    {
      "anonymous": false,
      "inputs": [
        {
          "indexed": true,
          "internalType": "uint256",
          "name": "tokenId",
          "type": "uint256"
        },
        {
          "indexed": true,
          "internalType": "address",
          "name": "owner",
          "type": "address"
        },
        {
          "indexed": false,
          "internalType": "string",
          "name": "serialNumber",
          "type": "string"
        },
        {
          "indexed": false,
          "internalType": "string",
          "name": "tokenURI",
          "type": "string"
        }
      ],
      "name": "DeviceMinted",
      "type": "event"
    },
    {
      "anonymous": false,
      "inputs": [
        {
          "indexed": true,
          "internalType": "uint256",
          "name": "tokenId",
          "type": "uint256"
        },
        {
          "indexed": true,
          "internalType": "address",
          "name": "verifier",
          "type": "address"
        }
      ],
      "name": "DeviceVerified",
      "type": "event"
    },
    {
      "anonymous": false,
      "inputs": [
        {
          "indexed": false,
          "internalType": "uint256",
          "name": "_tokenId",
          "type": "uint256"
        }
      ],
      "name": "MetadataUpdate",
      "type": "event"
    },
    {
      "anonymous": false,
      "inputs": [
        {
          "indexed": true,
          "internalType": "uint256",
          "name": "tokenId",
          "type": "uint256"
        },
        {
          "indexed": true,
          "internalType": "address",
          "name": "reviewer",
          "type": "address"
        },
        {
          "indexed": false,
          "internalType": "bytes32",
          "name": "reviewHash",
          "type": "bytes32"
        }
      ],
      "name": "ReviewSubmitted",
      "type": "event"
    },
    {
      "anonymous": false,
      "inputs": [
        {
          "indexed": true,
          "internalType": "bytes32",
          "name": "role",
          "type": "bytes32"
        },
        {
          "indexed": true,
          "internalType": "bytes32",
          "name": "previousAdminRole",
          "type": "bytes32"
        },
        {
          "indexed": true,
          "internalType": "bytes32",
          "name": "newAdminRole",
          "type": "bytes32"
        }
      ],
      "name": "RoleAdminChanged",
      "type": "event"
    },
    {
      "anonymous": false,
      "inputs": [
        {
          "indexed": true,
          "internalType": "bytes32",
          "name": "role",
          "type": "bytes32"
        },
        {
          "indexed": true,
          "internalType": "address",
          "name": "account",
          "type": "address"
        },
        {
          "indexed": true,
          "internalType": "address",
          "name": "sender",
          "type": "address"
        }
      ],
      "name": "RoleGranted",
      "type": "event"
    },
    {
      "anonymous": false,
      "inputs": [
        {
          "indexed": true,
          "internalType": "bytes32",
          "name": "role",
          "type": "bytes32"
        },
        {
          "indexed": true,
          "internalType": "address",
          "name": "account",
          "type": "address"
        },
        {
          "indexed": true,
          "internalType": "address",
          "name": "sender",
          "type": "address"
        }
      ],
      "name": "RoleRevoked",
      "type": "event"
    },
    {
      "anonymous": false,
      "inputs": [
        {
          "indexed": true,
          "internalType": "address",
          "name": "from",
          "type": "address"
        },
        {
          "indexed": true,
          "internalType": "address",
          "name": "to",
          "type": "address"
        },
        {
          "indexed": true,
          "internalType": "uint256",
          "name": "tokenId",
          "type": "uint256"
        }
      ],
      "name": "Transfer",
      "type": "event"
    },
    {
      "inputs": [],
      "name": "DEFAULT_ADMIN_ROLE",
      "outputs": [
        {
          "internalType": "bytes32",
          "name": "",
          "type": "bytes32"
        }
      ],
      "stateMutability": "view",
      "type": "function"
    },
    {
      "inputs": [],
      "name": "VERIFIER_ROLE",
      "outputs": [
        {
          "internalType": "bytes32",
          "name": "",
          "type": "bytes32"
        }
      ],
      "stateMutability": "view",
      "type": "function"
    },
    {
      "inputs": [
        {
          "internalType": "address",
          "name": "verifier",
          "type": "address"
        }
      ],
      "name": "addVerifier",
      "outputs": [],
      "stateMutability": "nonpayable",
      "type": "function"
    },
    {
      "inputs": [
        {
          "internalType": "address",
          "name": "to",
          "type": "address"
        },
        {
          "internalType": "uint256",
          "name": "tokenId",
          "type": "uint256"
        }
      ],
      "name": "approve",
      "outputs": [],
      "stateMutability": "nonpayable",
      "type": "function"
    },
    {
      "inputs": [
        {
          "internalType": "address",
          "name": "owner",
          "type": "address"
        }
      ],
      "name": "balanceOf",
      "outputs": [
        {
          "internalType": "uint256",
          "name": "",
          "type": "uint256"
        }
      ],
      "stateMutability": "view",
      "type": "function"
    },
    {
      "inputs": [
        {
          "internalType": "string",
          "name": "",
          "type": "string"
        }
      ],
      "name": "blacklistedSerials",
      "outputs": [
        {
          "internalType": "bool",
          "name": "",
          "type": "bool"
        }
      ],
      "stateMutability": "view",
      "type": "function"
    },
    {
      "inputs": [
        {
          "internalType": "uint256",
          "name": "tokenId",
          "type": "uint256"
        }
      ],
      "name": "getApproved",
      "outputs": [
        {
          "internalType": "address",
          "name": "",
          "type": "address"
        }
      ],
      "stateMutability": "view",
      "type": "function"
    },
    {
      "inputs": [
        {
          "internalType": "uint256",
          "name": "tokenId",
          "type": "uint256"
        }
      ],
      "name": "getDevice",
      "outputs": [
        {
          "components": [
            {
              "internalType": "string",
              "name": "brand",
              "type": "string"
            },
            {
              "internalType": "string",
              "name": "model",
              "type": "string"
            },
            {
              "internalType": "string",
              "name": "serialNumber",
              "type": "string"
            },
            {
              "internalType": "string",
              "name": "warrantyExpiry",
              "type": "string"
            },
            {
              "internalType": "uint256",
              "name": "mintedAt",
              "type": "uint256"
            },
            {
              "internalType": "address",
              "name": "originalOwner",
              "type": "address"
            },
            {
              "internalType": "bool",
              "name": "isVerified",
              "type": "bool"
            }
          ],
          "internalType": "struct ElectronicsNFT.ElectronicDevice",
          "name": "",
          "type": "tuple"
        }
      ],
      "stateMutability": "view",
      "type": "function"
    },
    {
      "inputs": [
        {
          "internalType": "string",
          "name": "serialNumber",
          "type": "string"
        }
      ],
      "name": "getDeviceBySerial",
      "outputs": [
        {
          "components": [
            {
              "internalType": "string",
              "name": "brand",
              "type": "string"
            },
            {
              "internalType": "string",
              "name": "model",
              "type": "string"
            },
            {
              "internalType": "string",
              "name": "serialNumber",
              "type": "string"
            },
            {
              "internalType": "string",
              "name": "warrantyExpiry",
              "type": "string"
            },
            {
              "internalType": "uint256",
              "name": "mintedAt",
              "type": "uint256"
            },
            {
              "internalType": "address",
              "name": "originalOwner",
              "type": "address"
            },
            {
              "internalType": "bool",
              "name": "isVerified",
              "type": "bool"
            }
          ],
          "internalType": "struct ElectronicsNFT.ElectronicDevice",
          "name": "",
          "type": "tuple"
        }
      ],
      "stateMutability": "view",
      "type": "function"
    },
    {
      "inputs": [
        {
          "internalType": "bytes32",
          "name": "role",
          "type": "bytes32"
        }
      ],
      "name": "getRoleAdmin",
      "outputs": [
        {
          "internalType": "bytes32",
          "name": "",
          "type": "bytes32"
        }
      ],
      "stateMutability": "view",
      "type": "function"
    },
    {
      "inputs": [
        {
          "internalType": "bytes32",
          "name": "role",
          "type": "bytes32"
        },
        {
          "internalType": "address",
          "name": "account",
          "type": "address"
        }
      ],
      "name": "grantRole",
      "outputs": [],
      "stateMutability": "nonpayable",
      "type": "function"
    },
    {
      "inputs": [
        {
          "internalType": "bytes32",
          "name": "role",
          "type": "bytes32"
        },
        {
          "internalType": "address",
          "name": "account",
          "type": "address"
        }
      ],
      "name": "hasRole",
      "outputs": [
        {
          "internalType": "bool",
          "name": "",
          "type": "bool"
        }
      ],
      "stateMutability": "view",
      "type": "function"
    },
    {
      "inputs": [
        {
          "internalType": "address",
          "name": "owner",
          "type": "address"
        },
        {
          "internalType": "address",
          "name": "operator",
          "type": "address"
        }
      ],
      "name": "isApprovedForAll",
      "outputs": [
        {
          "internalType": "bool",
          "name": "",
          "type": "bool"
        }
      ],
      "stateMutability": "view",
      "type": "function"
    },
    {
      "inputs": [
        {
          "internalType": "uint256",
          "name": "tokenId",
          "type": "uint256"
        }
      ],
      "name": "isDeviceVerified",
      "outputs": [
        {
          "internalType": "bool",
          "name": "",
          "type": "bool"
        }
      ],
      "stateMutability": "view",
      "type": "function"
    },
    {
      "inputs": [
        {
          "internalType": "address",
          "name": "to",
          "type": "address"
        },
        {
          "internalType": "string",
          "name": "serialNumber",
          "type": "string"
        },
        {
          "internalType": "string",
          "name": "brand",
          "type": "string"
        },
        {
          "internalType": "string",
          "name": "model",
          "type": "string"
        },
        {
          "internalType": "string",
          "name": "warrantyExpiry",
          "type": "string"
        },
        {
          "internalType": "string",
          "name": "tokenURI",
          "type": "string"
        }
      ],
      "name": "mintElectronic",
      "outputs": [
        {
          "internalType": "uint256",
          "name": "",
          "type": "uint256"
        }
      ],
      "stateMutability": "nonpayable",
      "type": "function"
    },
    {
      "inputs": [],
      "name": "name",
      "outputs": [
        {
          "internalType": "string",
          "name": "",
          "type": "string"
        }
      ],
      "stateMutability": "view",
      "type": "function"
    },
    {
      "inputs": [
        {
          "internalType": "uint256",
          "name": "tokenId",
          "type": "uint256"
        }
      ],
      "name": "ownerOf",
      "outputs": [
        {
          "internalType": "address",
          "name": "",
          "type": "address"
        }
      ],
      "stateMutability": "view",
      "type": "function"
    },
    {
      "inputs": [
        {
          "internalType": "address",
          "name": "verifier",
          "type": "address"
        }
      ],
      "name": "removeVerifier",
      "outputs": [],
      "stateMutability": "nonpayable",
      "type": "function"
    },
    {
      "inputs": [
        {
          "internalType": "bytes32",
          "name": "role",
          "type": "bytes32"
        },
        {
          "internalType": "address",
          "name": "callerConfirmation",
          "type": "address"
        }
      ],
      "name": "renounceRole",
      "outputs": [],
      "stateMutability": "nonpayable",
      "type": "function"
    },
    {
      "inputs": [
        {
          "internalType": "string",
          "name": "serialNumber",
          "type": "string"
        }
      ],
      "name": "reportStolen",
      "outputs": [],
      "stateMutability": "nonpayable",
      "type": "function"
    },
    {
      "inputs": [
        {
          "internalType": "bytes32",
          "name": "role",
          "type": "bytes32"
        },
        {
          "internalType": "address",
          "name": "account",
          "type": "address"
        }
      ],
      "name": "revokeRole",
      "outputs": [],
      "stateMutability": "nonpayable",
      "type": "function"
    },
    {
      "inputs": [
        {
          "internalType": "address",
          "name": "from",
          "type": "address"
        },
        {
          "internalType": "address",
          "name": "to",
          "type": "address"
        },
        {
          "internalType": "uint256",
          "name": "tokenId",
          "type": "uint256"
        }
      ],
      "name": "safeTransferFrom",
      "outputs": [],
      "stateMutability": "nonpayable",
      "type": "function"
    },
    {
      "inputs": [
        {
          "internalType": "address",
          "name": "from",
          "type": "address"
        },
        {
          "internalType": "address",
          "name": "to",
          "type": "address"
        },
        {
          "internalType": "uint256",
          "name": "tokenId",
          "type": "uint256"
        },
        {
          "internalType": "bytes",
          "name": "data",
          "type": "bytes"
        }
      ],
      "name": "safeTransferFrom",
      "outputs": [],
      "stateMutability": "nonpayable",
      "type": "function"
    },
    {
      "inputs": [
        {
          "internalType": "address",
          "name": "operator",
          "type": "address"
        },
        {
          "internalType": "bool",
          "name": "approved",
          "type": "bool"
        }
      ],
      "name": "setApprovalForAll",
      "outputs": [],
      "stateMutability": "nonpayable",
      "type": "function"
    },
    {
      "inputs": [
        {
          "internalType": "uint256",
          "name": "tokenId",
          "type": "uint256"
        },
        {
          "internalType": "bytes32",
          "name": "reviewHash",
          "type": "bytes32"
        }
      ],
      "name": "submitReview",
      "outputs": [],
      "stateMutability": "nonpayable",
      "type": "function"
    },
    {
      "inputs": [
        {
          "internalType": "bytes4",
          "name": "interfaceId",
          "type": "bytes4"
        }
      ],
      "name": "supportsInterface",
      "outputs": [
        {
          "internalType": "bool",
          "name": "",
          "type": "bool"
        }
      ],
      "stateMutability": "view",
      "type": "function"
    },
    {
      "inputs": [],
      "name": "symbol",
      "outputs": [
        {
          "internalType": "string",
          "name": "",
          "type": "string"
        }
      ],
      "stateMutability": "view",
      "type": "function"
    },
    {
      "inputs": [
        {
          "internalType": "uint256",
          "name": "tokenId",
          "type": "uint256"
        }
      ],
      "name": "tokenURI",
      "outputs": [
        {
          "internalType": "string",
          "name": "",
          "type": "string"
        }
      ],
      "stateMutability": "view",
      "type": "function"
    },
    {
      "inputs": [],
      "name": "totalMinted",
      "outputs": [
        {
          "internalType": "uint256",
          "name": "",
          "type": "uint256"
        }
      ],
      "stateMutability": "view",
      "type": "function"
    },
    {
      "inputs": [
        {
          "internalType": "address",
          "name": "from",
          "type": "address"
        },
        {
          "internalType": "address",
          "name": "to",
          "type": "address"
        },
        {
          "internalType": "uint256",
          "name": "tokenId",
          "type": "uint256"
        }
      ],
      "name": "transferFrom",
      "outputs": [],
      "stateMutability": "nonpayable",
      "type": "function"
    },
    {
      "inputs": [
        {
          "internalType": "uint256",
          "name": "tokenId",
          "type": "uint256"
        }
      ],
      "name": "verifyDevice",
      "outputs": [],
      "stateMutability": "nonpayable",
      "type": "function"
    }
  ],
  "bytecode": "0x60806040523480156200001157600080fd5b506040518060400160405280601981526020017f4469676974616c20476f6f647320456c656374726f6e696373000000000000008152506040518060400160405280600381526020016244474560e81b815250816000908162000075919062000225565b50600162000084828262000225565b505060016008555062000099600033620000cd565b50620000c67f0ce23c3e399818cfee81a7ab0880f714e53d7672b08df0fa62f2843416e1ea0933620000cd565b50620002f1565b60008281526007602090815260408083206001600160a01b038516845290915281205460ff16620001765760008381526007602090815260408083206001600160a01b03861684529091529020805460ff191660011790556200012d3390565b6001600160a01b0316826001600160a01b0316847f2f8788117e7eff1d82e926ec794901d17c78024a50270940304540a733656f0d60405160405180910390a45060016200017a565b5060005b92915050565b634e487b7160e01b600052604160045260246000fd5b600181811c90821680620001ab57607f821691505b602082108103620001cc57634e487b7160e01b600052602260045260246000fd5b50919050565b601f8211156200022057600081815260208120601f850160051c81016020861015620001fb5750805b601f850160051c820191505b818110156200021c5782815560010162000207565b5050505b505050565b81516001600160401b0381111562000241576200024162000180565b620002598162000252845462000196565b84620001d2565b602080601f831160018114620002915760008415620002785750858301515b600019600386901b1c1916600185901b1785556200021c565b600085815260208120601f198616915b82811015620002c257888601518255948401946001909101908401620002a1565b5085821015620002e15787850151600019600388901b60f8161c191681555b5050505050600190811b01905550565b61268c80620003016000396000f3fe608060405234801561001057600080fd5b50600436106101e55760003560e01c80639000b3d61161010f578063c87b56dd116100a2578063e7705db611610071578063e7705db614610441578063e985e9c514610456578063ecb390a114610469578063f42f4b6e1461047c57600080fd5b8063c87b56dd146103da578063ca2dfd0a146103ed578063cc15222414610400578063d547741f1461042e57600080fd5b8063a22cb465116100de578063a22cb46514610399578063a2309ff8146103ac578063b88d4fde146103b4578063bf295071146103c757600080fd5b80639000b3d61461036357806391d148541461037657806395d89b4114610389578063a217fddf1461039157600080fd5b80632f2ff15d116101875780636352211e116101565780636352211e1461031757806370a082311461032a57806370fe9a401461033d578063870890da1461035057600080fd5b80632f2ff15d146102cb57806336568abe146102de57806342842e0e146102f157806352069f3f1461030457600080fd5b8063095ea7b3116101c3578063095ea7b31461025257806309f110b11461026757806323b872dd14610287578063248a9ca31461029a57600080fd5b806301ffc9a7146101ea57806306fdde0314610212578063081812fc14610227575b600080fd5b6101fd6101f8366004611f0d565b61048f565b60405190151581526020015b60405180910390f35b61021a6104a0565b6040516102099190611f7a565b61023a610235366004611f8d565b610532565b6040516001600160a01b039091168152602001610209565b610265610260366004611fc2565b61055b565b005b61027a610275366004611f8d565b61056a565b6040516102099190611fec565b610265610295366004612094565b610845565b6102bd6102a8366004611f8d565b60009081526007602052604090206001015490565b604051908152602001610209565b6102656102d93660046120d0565b6108d0565b6102656102ec3660046120d0565b6108f5565b6102656102ff366004612094565b61092d565b6101fd610312366004611f8d565b610948565b61023a610325366004611f8d565b61098c565b6102bd6103383660046120fc565b610997565b61026561034b3660046121c3565b6109df565b61026561035e366004611f8d565b610b13565b6102656103713660046120fc565b610c0b565b6101fd6103843660046120d0565b610c2e565b61021a610c59565b6102bd600081565b6102656103a73660046121f8565b610c68565b6009546102bd565b6102656103c2366004612234565b610c73565b6102656103d53660046122b0565b610c8b565b61021a6103e8366004611f8d565b610d78565b6102656103fb3660046120fc565b610e89565b6101fd61040e3660046121c3565b8051602081830181018051600d8252928201919093012091525460ff1681565b61026561043c3660046120d0565b610ea8565b6102bd60008051602061263783398151915281565b6101fd6104643660046122d2565b610ecd565b6102bd6104773660046122fc565b610efb565b61027a61048a3660046121c3565b611201565b600061049a82611506565b92915050565b6060600080546104af906123dd565b80601f01602080910402602001604051908101604052809291908181526020018280546104db906123dd565b80156105285780601f106104fd57610100808354040283529160200191610528565b820191906000526020600020905b81548152906001019060200180831161050b57829003601f168201915b5050505050905090565b600061053d8261152b565b506000828152600460205260409020546001600160a01b031661049a565b610566828233611564565b5050565b610572611eaf565b6000828152600260205260409020546001600160a01b03166105af5760405162461bcd60e51b81526004016105a690612417565b60405180910390fd5b6000828152600a602052604090819020815160e081019092528054829082906105d7906123dd565b80601f0160208091040260200160405190810160405280929190818152602001828054610603906123dd565b80156106505780601f1061062557610100808354040283529160200191610650565b820191906000526020600020905b81548152906001019060200180831161063357829003601f168201915b50505050508152602001600182018054610669906123dd565b80601f0160208091040260200160405190810160405280929190818152602001828054610695906123dd565b80156106e25780601f106106b7576101008083540402835291602001916106e2565b820191906000526020600020905b8154815290600101906020018083116106c557829003601f168201915b505050505081526020016002820180546106fb906123dd565b80601f0160208091040260200160405190810160405280929190818152602001828054610727906123dd565b80156107745780601f1061074957610100808354040283529160200191610774565b820191906000526020600020905b81548152906001019060200180831161075757829003601f168201915b5050505050815260200160038201805461078d906123dd565b80601f01602080910402602001604051908101604052809291908181526020018280546107b9906123dd565b80156108065780601f106107db57610100808354040283529160200191610806565b820191906000526020600020905b8154815290600101906020018083116107e957829003601f168201915b5050509183525050600482015460208201526005909101546001600160a01b0381166040830152600160a01b900460ff16151560609091015292915050565b6001600160a01b03821661086f57604051633250574960e11b8152600060048201526024016105a6565b600061087c838333611571565b9050836001600160a01b0316816001600160a01b0316146108ca576040516364283d7b60e01b81526001600160a01b03808616600483015260248201849052821660448201526064016105a6565b50505050565b6000828152600760205260409020600101546108eb8161166a565b6108ca8383611677565b6001600160a01b038116331461091e5760405163334bd91960e11b815260040160405180910390fd5b610928828261170b565b505050565b61092883838360405180602001604052806000815250610c73565b6000818152600260205260408120546001600160a01b031661096c57506000919050565b506000908152600a6020526040902060050154600160a01b900460ff1690565b600061049a8261152b565b60006001600160a01b0382166109c3576040516322718ad960e21b8152600060048201526024016105a6565b506001600160a01b031660009081526003602052604090205490565b6000805160206126378339815191526109f78161166a565b6000825111610a395760405162461bcd60e51b815260206004820152600e60248201526d125b9d985b1a59081cd95c9a585b60921b60448201526064016105a6565b600d82604051610a499190612440565b9081526040519081900360200190205460ff1615610a9f5760405162461bcd60e51b8152602060048201526013602482015272105b1c9958591e48189b1858dadb1a5cdd1959606a1b60448201526064016105a6565b6001600d83604051610ab19190612440565b908152604051908190036020018120805492151560ff19909316929092179091553390610adf908490612440565b604051908190038120907f2b8365a3b06bf76ded847e39ac66b961cc263e6fc4d2a6222f33de9f111d99f490600090a35050565b600080516020612637833981519152610b2b8161166a565b6000828152600260205260409020546001600160a01b0316610b5f5760405162461bcd60e51b81526004016105a690612417565b6000828152600a6020526040902060050154600160a01b900460ff1615610bbb5760405162461bcd60e51b815260206004820152601060248201526f105b1c9958591e481d995c9a599a595960821b60448201526064016105a6565b6000828152600a6020526040808220600501805460ff60a01b1916600160a01b17905551339184917faa923c50e943bc69a792cd6243243373b6a812ea9c0b64fa9aba8a934128ab5c9190a35050565b6000610c168161166a565b610566600080516020612637833981519152836108d0565b60009182526007602090815260408084206001600160a01b0393909316845291905290205460ff1690565b6060600180546104af906123dd565b610566338383611778565b610c7e848484610845565b6108ca3385858585611817565b6000828152600260205260409020546001600160a01b0316610cbf5760405162461bcd60e51b81526004016105a690612417565b6000828152600c6020908152604080832033845290915290205460ff1615610d1c5760405162461bcd60e51b815260206004820152601060248201526f105b1c9958591e481c995d9a595dd95960821b60448201526064016105a6565b6000828152600c602090815260408083203380855290835292819020805460ff191660011790555183815284917f14a245c2c1e780ac3e626180f87fcc714f950469cbf4b35ca0feecce5e429eee910160405180910390a35050565b6060610d838261152b565b5060008281526006602052604081208054610d9d906123dd565b80601f0160208091040260200160405190810160405280929190818152602001828054610dc9906123dd565b8015610e165780601f10610deb57610100808354040283529160200191610e16565b820191906000526020600020905b815481529060010190602001808311610df957829003601f168201915b505050505090506000610e3460408051602081019091526000815290565b90508051600003610e46575092915050565b815115610e78578082604051602001610e6092919061245c565b60405160208183030381529060405292505050919050565b610e8184611942565b949350505050565b6000610e948161166a565b610566600080516020612637833981519152835b600082815260076020526040902060010154610ec38161166a565b6108ca838361170b565b6001600160a01b03918216600090815260056020908152604080832093909416825291909152205460ff1690565b6000610f056119b7565b6001600160a01b038716610f4d5760405162461bcd60e51b815260206004820152600f60248201526e496e76616c6964206164647265737360881b60448201526064016105a6565b6000865111610f905760405162461bcd60e51b815260206004820152600f60248201526e14d95c9a585b081c995c5d5a5c9959608a1b60448201526064016105a6565b600d86604051610fa09190612440565b9081526040519081900360200190205460ff161561100b5760405162461bcd60e51b815260206004820152602260248201527f446576696365207265706f727465642073746f6c656e2f626c61636b6c697374604482015261195960f21b60648201526084016105a6565b600b8660405161101b9190612440565b9081526020016040518091039020546000146110795760405162461bcd60e51b815260206004820152601960248201527f44657669636520616c726561647920726567697374657265640000000000000060448201526064016105a6565b600980549060006110898361248b565b90915550506009546040805160e08101825287815260208082018890528183018a9052606082018790524260808301526001600160a01b038b1660a0830152600060c08301819052848152600a90915291909120815181906110eb90826124f8565b506020820151600182019061110090826124f8565b506040820151600282019061111590826124f8565b506060820151600382019061112a90826124f8565b506080820151600482015560a08201516005909101805460c0909301511515600160a01b026001600160a81b03199093166001600160a01b03909216919091179190911790556040518190600b90611183908a90612440565b9081526040519081900360200190205561119d88826119e1565b6111a781846119fb565b876001600160a01b0316817f5386e65881f2fc137aed7aa612faf9f636c7e1e444e6e6b6223958f50ceb2ad689866040516111e39291906125b8565b60405180910390a390506111f76001600855565b9695505050505050565b611209611eaf565b6000600b8360405161121b9190612440565b90815260200160405180910390205490508060000361126f5760405162461bcd60e51b815260206004820152601060248201526f11195d9a58d9481b9bdd08199bdd5b9960821b60448201526064016105a6565b6000818152600a602052604090819020815160e08101909252805482908290611297906123dd565b80601f01602080910402602001604051908101604052809291908181526020018280546112c3906123dd565b80156113105780601f106112e557610100808354040283529160200191611310565b820191906000526020600020905b8154815290600101906020018083116112f357829003601f168201915b50505050508152602001600182018054611329906123dd565b80601f0160208091040260200160405190810160405280929190818152602001828054611355906123dd565b80156113a25780601f10611377576101008083540402835291602001916113a2565b820191906000526020600020905b81548152906001019060200180831161138557829003601f168201915b505050505081526020016002820180546113bb906123dd565b80601f01602080910402602001604051908101604052809291908181526020018280546113e7906123dd565b80156114345780601f1061140957610100808354040283529160200191611434565b820191906000526020600020905b81548152906001019060200180831161141757829003601f168201915b5050505050815260200160038201805461144d906123dd565b80601f0160208091040260200160405190810160405280929190818152602001828054611479906123dd565b80156114c65780601f1061149b576101008083540402835291602001916114c6565b820191906000526020600020905b8154815290600101906020018083116114a957829003601f168201915b5050509183525050600482015460208201526005909101546001600160a01b0381166040830152600160a01b900460ff1615156060909101529392505050565b60006001600160e01b03198216637965db0b60e01b148061049a575061049a82611a4b565b6000818152600260205260408120546001600160a01b03168061049a57604051637e27328960e01b8152600481018490526024016105a6565b6109288383836001611a70565b6000828152600260205260408120546001600160a01b039081169083161561159e5761159e818486611b76565b6001600160a01b038116156115dc576115bb600085600080611a70565b6001600160a01b038116600090815260036020526040902080546000190190555b6001600160a01b0385161561160b576001600160a01b0385166000908152600360205260409020805460010190555b60008481526002602052604080822080546001600160a01b0319166001600160a01b0389811691821790925591518793918516917fddf252ad1be2c89b69c2b068fc378daa952ba7f163c4a11628f55a4df523b3ef91a4949350505050565b6116748133611bda565b50565b60006116838383610c2e565b6117035760008381526007602090815260408083206001600160a01b03861684529091529020805460ff191660011790556116bb3390565b6001600160a01b0316826001600160a01b0316847f2f8788117e7eff1d82e926ec794901d17c78024a50270940304540a733656f0d60405160405180910390a450600161049a565b50600061049a565b60006117178383610c2e565b156117035760008381526007602090815260408083206001600160a01b0386168085529252808320805460ff1916905551339286917ff6391f5c32d9c69d2a47ea670b442974b53935d1edc7fd64eb21e047a839171b9190a450600161049a565b6001600160a01b0382166117aa57604051630b61174360e31b81526001600160a01b03831660048201526024016105a6565b6001600160a01b03838116600081815260056020908152604080832094871680845294825291829020805460ff191686151590811790915591519182527f17307eab39ab6107e8899845ad3d59bd9653f200f220920489ca2b5937696c31910160405180910390a3505050565b6001600160a01b0383163b1561193b57604051630a85bd0160e11b81526001600160a01b0384169063150b7a02906118599088908890879087906004016125e6565b6020604051808303816000875af1925050508015611894575060408051601f3d908101601f1916820190925261189191810190612619565b60015b6118fd573d8080156118c2576040519150601f19603f3d011682016040523d82523d6000602084013e6118c7565b606091505b5080516000036118f557604051633250574960e11b81526001600160a01b03851660048201526024016105a6565b805160208201fd5b6001600160e01b03198116630a85bd0160e11b1461193957604051633250574960e11b81526001600160a01b03851660048201526024016105a6565b505b5050505050565b606061194d8261152b565b50600061196560408051602081019091526000815290565b9050600081511161198557604051806020016040528060008152506119b0565b8061198f84611c13565b6040516020016119a092919061245c565b6040516020818303038152906040525b9392505050565b6002600854036119da57604051633ee5aeb560e01b815260040160405180910390fd5b6002600855565b610566828260405180602001604052806000815250611ca7565b6000828152600660205260409020611a1382826124f8565b506040518281527ff8e1a15aba9398e019f0b49df1a4fde98ee17ae345cb5f6b5e2c27f5033e8ce79060200160405180910390a15050565b60006001600160e01b03198216632483248360e11b148061049a575061049a82611cbf565b8080611a8457506001600160a01b03821615155b15611b46576000611a948461152b565b90506001600160a01b03831615801590611ac05750826001600160a01b0316816001600160a01b031614155b8015611ad35750611ad18184610ecd565b155b15611afc5760405163a9fbf51f60e01b81526001600160a01b03841660048201526024016105a6565b8115611b445783856001600160a01b0316826001600160a01b03167f8c5be1e5ebec7d5bd14f71427d1e84f3dd0314c0f7b2291e5b200ac8c7c3b92560405160405180910390a45b505b5050600090815260046020526040902080546001600160a01b0319166001600160a01b0392909216919091179055565b611b81838383611d0f565b610928576001600160a01b038316611baf57604051637e27328960e01b8152600481018290526024016105a6565b60405163177e802f60e01b81526001600160a01b0383166004820152602481018290526044016105a6565b611be48282610c2e565b6105665760405163e2517d3f60e01b81526001600160a01b0382166004820152602481018390526044016105a6565b60606000611c2083611d72565b600101905060008167ffffffffffffffff811115611c4057611c40612117565b6040519080825280601f01601f191660200182016040528015611c6a576020820181803683370190505b5090508181016020015b600019016f181899199a1a9b1b9c1cb0b131b232b360811b600a86061a8153600a8504945084611c74575b509392505050565b611cb18383611e4a565b610928336000858585611817565b60006001600160e01b031982166380ac58cd60e01b1480611cf057506001600160e01b03198216635b5e139f60e01b145b8061049a57506301ffc9a760e01b6001600160e01b031983161461049a565b60006001600160a01b03831615801590610e815750826001600160a01b0316846001600160a01b03161480611d495750611d498484610ecd565b80610e815750506000908152600460205260409020546001600160a01b03908116911614919050565b60008072184f03e93ff9f4daa797ed6e38ed64bf6a1f0160401b8310611db15772184f03e93ff9f4daa797ed6e38ed64bf6a1f0160401b830492506040015b6d04ee2d6d415b85acef81000000008310611ddd576d04ee2d6d415b85acef8100000000830492506020015b662386f26fc100008310611dfb57662386f26fc10000830492506010015b6305f5e1008310611e13576305f5e100830492506008015b6127108310611e2757612710830492506004015b60648310611e39576064830492506002015b600a831061049a5760010192915050565b6001600160a01b038216611e7457604051633250574960e11b8152600060048201526024016105a6565b6000611e8283836000611571565b90506001600160a01b03811615610928576040516339e3563760e11b8152600060048201526024016105a6565b6040518060e00160405280606081526020016060815260200160608152602001606081526020016000815260200160006001600160a01b031681526020016000151581525090565b6001600160e01b03198116811461167457600080fd5b600060208284031215611f1f57600080fd5b81356119b081611ef7565b60005b83811015611f45578181015183820152602001611f2d565b50506000910152565b60008151808452611f66816020860160208601611f2a565b601f01601f19169290920160200192915050565b6020815260006119b06020830184611f4e565b600060208284031215611f9f57600080fd5b5035919050565b80356001600160a01b0381168114611fbd57600080fd5b919050565b60008060408385031215611fd557600080fd5b611fde83611fa6565b946020939093013593505050565b602081526000825160e06020840152612009610100840182611f4e565b90506020840151601f19808584030160408601526120278383611f4e565b925060408601519150808584030160608601526120448383611f4e565b92506060860151915080858403016080860152506120628282611f4e565b915050608084015160a084015260018060a01b0360a08501511660c084015260c0840151611c9f60e085018215159052565b6000806000606084860312156120a957600080fd5b6120b284611fa6565b92506120c060208501611fa6565b9150604084013590509250925092565b600080604083850312156120e357600080fd5b823591506120f360208401611fa6565b90509250929050565b60006020828403121561210e57600080fd5b6119b082611fa6565b634e487b7160e01b600052604160045260246000fd5b600067ffffffffffffffff8084111561214857612148612117565b604051601f8501601f19908116603f0116810190828211818310171561217057612170612117565b8160405280935085815286868601111561218957600080fd5b858560208301376000602087830101525050509392505050565b600082601f8301126121b457600080fd5b6119b08383356020850161212d565b6000602082840312156121d557600080fd5b813567ffffffffffffffff8111156121ec57600080fd5b610e81848285016121a3565b6000806040838503121561220b57600080fd5b61221483611fa6565b91506020830135801515811461222957600080fd5b809150509250929050565b6000806000806080858703121561224a57600080fd5b61225385611fa6565b935061226160208601611fa6565b925060408501359150606085013567ffffffffffffffff81111561228457600080fd5b8501601f8101871361229557600080fd5b6122a48782356020840161212d565b91505092959194509250565b600080604083850312156122c357600080fd5b50508035926020909101359150565b600080604083850312156122e557600080fd5b6122ee83611fa6565b91506120f360208401611fa6565b60008060008060008060c0878903121561231557600080fd5b61231e87611fa6565b9550602087013567ffffffffffffffff8082111561233b57600080fd5b6123478a838b016121a3565b9650604089013591508082111561235d57600080fd5b6123698a838b016121a3565b9550606089013591508082111561237f57600080fd5b61238b8a838b016121a3565b945060808901359150808211156123a157600080fd5b6123ad8a838b016121a3565b935060a08901359150808211156123c357600080fd5b506123d089828a016121a3565b9150509295509295509295565b600181811c908216806123f157607f821691505b60208210810361241157634e487b7160e01b600052602260045260246000fd5b50919050565b6020808252600f908201526e151bdad95b881b9bdd08199bdd5b99608a1b604082015260600190565b60008251612452818460208701611f2a565b9190910192915050565b6000835161246e818460208801611f2a565b835190830190612482818360208801611f2a565b01949350505050565b6000600182016124ab57634e487b7160e01b600052601160045260246000fd5b5060010190565b601f82111561092857600081815260208120601f850160051c810160208610156124d95750805b601f850160051c820191505b81811015611939578281556001016124e5565b815167ffffffffffffffff81111561251257612512612117565b6125268161252084546123dd565b846124b2565b602080601f83116001811461255b57600084156125435750858301515b600019600386901b1c1916600185901b178555611939565b600085815260208120601f198616915b8281101561258a5788860151825594840194600190910190840161256b565b50858210156125a85787850151600019600388901b60f8161c191681555b5050505050600190811b01905550565b6040815260006125cb6040830185611f4e565b82810360208401526125dd8185611f4e565b95945050505050565b6001600160a01b03858116825284166020820152604081018390526080606082018190526000906111f790830184611f4e565b60006020828403121561262b57600080fd5b81516119b081611ef756fe0ce23c3e399818cfee81a7ab0880f714e53d7672b08df0fa62f2843416e1ea09a2646970667358221220a294d511f5baf96f1409271c802dc32b3e13375bda6d8b13dabc61387c4f182964736f6c63430008140033",
  "linkReferences": {},
  "deployedLinkReferences": {}
}