{
  "_format": "hh-sol-artifact-1",
  "contractName": "LandFractionalNFT",
  "sourceName": "contracts/LandFractionalNFT.sol",
  "abi": [
    {
      "inputs": [],
      "stateMutability": "nonpayable",
      "type": "constructor"
    },
    {
      "inputs": [
        {
          "internalType": "address",
          "name": "sender",
          "type": "address"
        },
        {
          "internalType": "uint256",
          "name": "balance",
          "type": "uint256"
        },
        {
          "internalType": "uint256",
          "name": "needed",
          "type": "uint256"
        },
        {
          "internalType": "uint256",
          "name": "tokenId",
          "type": "uint256"
        }
      ],
      "name": "ERC1155InsufficientBalance",
      "type": "error"
    },
    {
      "inputs": [
        {
          "internalType": "address",
          "name": "approver",
          "type": "address"
        }
      ],
      "name": "ERC1155InvalidApprover",
      "type": "error"
    },
    {
      "inputs": [
        {
          "internalType": "uint256",
          "name": "idsLength",
          "type": "uint256"
        },
        {
          "internalType": "uint256",
          "name": "valuesLength",
          "type": "uint256"
        }
      ],
      "name": "ERC1155InvalidArrayLength",
      "type": "error"
    },
    {
      "inputs": [
        {
          "internalType": "address",
          "name": "operator",
          "type": "address"
        }
      ],
      "name": "ERC1155InvalidOperator",
      "type": "error"
    },
    {
      "inputs": [
        {
          "internalType": "address",
          "name": "receiver",
          "type": "address"
        }
      ],
      "name": "ERC1155InvalidReceiver",
      "type": "error"
    },
    {
      "inputs": [
        {
          "internalType": "address",
          "name": "sender",
          "type": "address"
        }
      ],
      "name": "ERC1155InvalidSender",
      "type": "error"
    },
    {
      "inputs": [
        {
          "internalType": "address",
          "name": "operator",
          "type": "address"
        },
        {
          "internalType": "address",
          "name": "owner",
          "type": "address"
        }
      ],
      "name": "ERC1155MissingApprovalForAll",
      "type": "error"
    },
    {
      "inputs": [
        {
          "internalType": "address",
          "name": "owner",
          "type": "address"
        }
      ],
      "name": "OwnableInvalidOwner",
      "type": "error"
    },
    {
      "inputs": [
        {
          "internalType": "address",
          "name": "account",
          "type": "address"
        }
      ],
      "name": "OwnableUnauthorizedAccount",
      "type": "error"
    },
    {
      "inputs": [],
      "name": "ReentrancyGuardReentrantCall",
      "type": "error"
    },
    {
      "anonymous": false,
      "inputs": [
        {
          "indexed": true,
          "internalType": "address",
          "name": "account",
          "type": "address"
        },
        {
          "indexed": true,
          "internalType": "address",
          "name": "operator",
          "type": "address"
        },
        {
          "indexed": false,
          "internalType": "bool",
          "name": "approved",
          "type": "bool"
        }
      ],
      "name": "ApprovalForAll",
      "type": "event"
    },
    {
      "anonymous": false,
      "inputs": [
        {
          "indexed": true,
          "internalType": "uint256",
          "name": "propertyId",
          "type": "uint256"
        },
        {
          "indexed": true,
          "internalType": "address",
          "name": "buyer",
          "type": "address"
        },
        {
          "indexed": false,
          "internalType": "uint256",
          "name": "amount",
          "type": "uint256"
        }
      ],
      "name": "FractionPurchased",
      "type": "event"
    },
    {
      "anonymous": false,
      "inputs": [
        {
          "indexed": true,
          "internalType": "address",
          "name": "previousOwner",
          "type": "address"
        },
        {
          "indexed": true,
          "internalType": "address",
          "name": "newOwner",
          "type": "address"
        }
      ],
      "name": "OwnershipTransferred",
      "type": "event"
    },
    {
      "anonymous": false,
      "inputs": [
        {
          "indexed": true,
          "internalType": "uint256",
          "name": "propertyId",
          "type": "uint256"
        },
        {
          "indexed": true,
          "internalType": "address",
          "name": "owner",
          "type": "address"
        },
        {
          "indexed": false,
          "internalType": "uint256",
          "name": "totalFractions",
          "type": "uint256"
        },
        {
          "indexed": false,
          "internalType": "string",
          "name": "location",
          "type": "string"
        }
      ],
      "name": "PropertyCreated",
      "type": "event"
    },
    {
      "anonymous": false,
      "inputs": [
        {
          "indexed": true,
          "internalType": "uint256",
          "name": "propertyId",
          "type": "uint256"
        }
      ],
      "name": "PropertyVerified",
      "type": "event"
    },
    {
      "anonymous": false,
      "inputs": [
        {
          "indexed": true,
          "internalType": "uint256",
          "name": "propertyId",
          "type": "uint256"
        },
        {
          "indexed": true,
          "internalType": "address",
          "name": "claimer",
          "type": "address"
        },
        {
          "indexed": false,
          "internalType": "uint256",
          "name": "amount",
          "type": "uint256"
        },
        {
          "indexed": false,
          "internalType": "uint256",
          "name": "timestamp",
          "type": "uint256"
        }
      ],
      "name": "RentClaimed",
      "type": "event"
    },
    {
      "anonymous": false,
      "inputs": [
        {
          "indexed": true,
          "internalType": "uint256",
          "name": "propertyId",
          "type": "uint256"
        },
        {
          "indexed": false,
          "internalType": "uint256",
          "name": "totalAmount",
          "type": "uint256"
        },
        {
          "indexed": false,
          "internalType": "uint256",
          "name": "timestamp",
          "type": "uint256"
        }
      ],
      "name": "RentDistributed",
      "type": "event"
    },
    {
      "anonymous": false,
      "inputs": [
        {
          "indexed": true,
          "internalType": "address",
          "name": "operator",
          "type": "address"
        },
        {
          "indexed": true,
          "internalType": "address",
          "name": "from",
          "type": "address"
        },
        {
          "indexed": true,
          "internalType": "address",
          "name": "to",
          "type": "address"
        },
        {
          "indexed": false,
          "internalType": "uint256[]",
          "name": "ids",
          "type": "uint256[]"
        },
        {
          "indexed": false,
          "internalType": "uint256[]",
          "name": "values",
          "type": "uint256[]"
        }
      ],
      "name": "TransferBatch",
      "type": "event"
    },
    {
      "anonymous": false,
      "inputs": [
        {
          "indexed": true,
          "internalType": "address",
          "name": "operator",
          "type": "address"
        },
        {
          "indexed": true,
          "internalType": "address",
          "name": "from",
          "type": "address"
        },
        {
          "indexed": true,
          "internalType": "address",
          "name": "to",
          "type": "address"
        },
        {
          "indexed": false,
          "internalType": "uint256",
          "name": "id",
          "type": "uint256"
        },
        {
          "indexed": false,
          "internalType": "uint256",
          "name": "value",
          "type": "uint256"
        }
      ],
      "name": "TransferSingle",
      "type": "event"
    },
    {
      "anonymous": false,
      "inputs": [
        {
          "indexed": false,
          "internalType": "string",
          "name": "value",
          "type": "string"
        },
        {
          "indexed": true,
          "internalType": "uint256",
          "name": "id",
          "type": "uint256"
        }
      ],
      "name": "URI",
      "type": "event"
    },
    {
      "inputs": [
        {
          "internalType": "address",
          "name": "account",
          "type": "address"
        },
        {
          "internalType": "uint256",
          "name": "id",
          "type": "uint256"
        }
      ],
      "name": "balanceOf",
      "outputs": [
        {
          "internalType": "uint256",
          "name": "",
          "type": "uint256"
        }
      ],
      "stateMutability": "view",
      "type": "function"
    },
    {
      "inputs": [
        {
          "internalType": "address[]",
          "name": "accounts",
          "type": "address[]"
        },
        {
          "internalType": "uint256[]",
          "name": "ids",
          "type": "uint256[]"
        }
      ],
      "name": "balanceOfBatch",
      "outputs": [
        {
          "internalType": "uint256[]",
          "name": "",
          "type": "uint256[]"
        }
      ],
      "stateMutability": "view",
      "type": "function"
    },
    {
      "inputs": [
        {
          "internalType": "uint256",
          "name": "propertyId",
          "type": "uint256"
        }
      ],
      "name": "claimRent",
      "outputs": [],
      "stateMutability": "nonpayable",
      "type": "function"
    },
    {
      "inputs": [
        {
          "internalType": "uint256",
          "name": "",
          "type": "uint256"
        },
        {
          "internalType": "address",
          "name": "",
          "type": "address"
        }
      ],
      "name": "claimedRent",
      "outputs": [
        {
          "internalType": "uint256",
          "name": "",
          "type": "uint256"
        }
      ],
      "stateMutability": "view",
      "type": "function"
    },
    {
      "inputs": [
        {
          "internalType": "string",
          "name": "location",
          "type": "string"
        },
        {
          "internalType": "string",
          "name": "city",
          "type": "string"
        },
        {
          "internalType": "uint256",
          "name": "totalArea",
          "type": "uint256"
        },
        {
          "internalType": "string",
          "name": "areaUnit",
          "type": "string"
        },
        {
          "internalType": "uint256",
          "name": "totalFractions",
          "type": "uint256"
        },
        {
          "internalType": "uint256",
          "name": "pricePerFraction",
          "type": "uint256"
        },
        {
          "internalType": "string",
          "name": "ipfsMetadata",
          "type": "string"
        }
      ],
      "name": "createProperty",
      "outputs": [
        {
          "internalType": "uint256",
          "name": "",
          "type": "uint256"
        }
      ],
      "stateMutability": "nonpayable",
      "type": "function"
    },
    {
      "inputs": [
        {
          "internalType": "uint256",
          "name": "propertyId",
          "type": "uint256"
        }
      ],
      "name": "distributeRent",
      "outputs": [],
      "stateMutability": "payable",
      "type": "function"
    },
    {
      "inputs": [
        {
          "internalType": "uint256",
          "name": "propertyId",
          "type": "uint256"
        }
      ],
      "name": "getProperty",
      "outputs": [
        {
          "components": [
            {
              "internalType": "string",
              "name": "location",
              "type": "string"
            },
            {
              "internalType": "string",
              "name": "city",
              "type": "string"
            },
            {
              "internalType": "uint256",
              "name": "totalArea",
              "type": "uint256"
            },
            {
              "internalType": "string",
              "name": "areaUnit",
              "type": "string"
            },
            {
              "internalType": "uint256",
              "name": "totalFractions",
              "type": "uint256"
            },
            {
              "internalType": "uint256",
              "name": "pricePerFraction",
              "type": "uint256"
            },
            {
              "internalType": "uint256",
              "name": "createdAt",
              "type": "uint256"
            },
            {
              "internalType": "address payable",
              "name": "originalOwner",
              "type": "address"
            },
            {
              "internalType": "string",
              "name": "ipfsMetadata",
              "type": "string"
            },
            {
              "internalType": "bool",
              "name": "isVerified",
              "type": "bool"
            }
          ],
          "internalType": "struct LandFractionalNFT.LandProperty",
          "name": "",
          "type": "tuple"
        }
      ],
      "stateMutability": "view",
      "type": "function"
    },
    {
      "inputs": [],
      "name": "getTotalProperties",
      "outputs": [
        {
          "internalType": "uint256",
          "name": "",
          "type": "uint256"
        }
      ],
      "stateMutability": "view",
      "type": "function"
    },
    {
      "inputs": [
        {
          "internalType": "uint256",
          "name": "propertyId",
          "type": "uint256"
        },
        {
          "internalType": "address",
          "name": "user",
          "type": "address"
        }
      ],
      "name": "getUnclaimedRent",
      "outputs": [
        {
          "internalType": "uint256",
          "name": "",
          "type": "uint256"
        }
      ],
      "stateMutability": "view",
      "type": "function"
    },
    {
      "inputs": [
        {
          "internalType": "uint256",
          "name": "propertyId",
          "type": "uint256"
        },
        {
          "internalType": "address",
          "name": "user",
          "type": "address"
        }
      ],
      "name": "getUserFractions",
      "outputs": [
        {
          "internalType": "uint256",
          "name": "",
          "type": "uint256"
        }
      ],
      "stateMutability": "view",
      "type": "function"
    },
    {
      "inputs": [
        {
          "internalType": "address",
          "name": "account",
          "type": "address"
        },
        {
          "internalType": "address",
          "name": "operator",
          "type": "address"
        }
      ],
      "name": "isApprovedForAll",
      "outputs": [
        {
          "internalType": "bool",
          "name": "",
          "type": "bool"
        }
      ],
      "stateMutability": "view",
      "type": "function"
    },
    {
      "inputs": [
        {
          "internalType": "address",
          "name": "",
          "type": "address"
        },
        {
          "internalType": "address",
          "name": "",
          "type": "address"
        },
        {
          "internalType": "uint256[]",
          "name": "",
          "type": "uint256[]"
        },
        {
          "internalType": "uint256[]",
          "name": "",
          "type": "uint256[]"
        },
        {
          "internalType": "bytes",
          "name": "",
          "type": "bytes"
        }
      ],
      "name": "onERC1155BatchReceived",
      "outputs": [
        {
          "internalType": "bytes4",
          "name": "",
          "type": "bytes4"
        }
      ],
      "stateMutability": "nonpayable",
      "type": "function"
    },
    {
      "inputs": [
        {
          "internalType": "address",
          "name": "",
          "type": "address"
        },
        {
          "internalType": "address",
          "name": "",
          "type": "address"
        },
        {
          "internalType": "uint256",
          "name": "",
          "type": "uint256"
        },
        {
          "internalType": "uint256",
          "name": "",
          "type": "uint256"
        },
        {
          "internalType": "bytes",
          "name": "",
          "type": "bytes"
        }
      ],
      "name": "onERC1155Received",
      "outputs": [
        {
          "internalType": "bytes4",
          "name": "",
          "type": "bytes4"
        }
      ],
      "stateMutability": "nonpayable",
      "type": "function"
    },
    {
      "inputs": [],
      "name": "owner",
      "outputs": [
        {
          "internalType": "address",
          "name": "",
          "type": "address"
        }
      ],
      "stateMutability": "view",
      "type": "function"
    },
    {
      "inputs": [
        {
          "internalType": "uint256",
          "name": "",
          "type": "uint256"
        }
      ],
      "name": "properties",
      "outputs": [
        {
          "internalType": "string",
          "name": "location",
          "type": "string"
        },
        {
          "internalType": "string",
          "name": "city",
          "type": "string"
        },
        {
          "internalType": "uint256",
          "name": "totalArea",
          "type": "uint256"
        },
        {
          "internalType": "string",
          "name": "areaUnit",
          "type": "string"
        },
        {
          "internalType": "uint256",
          "name": "totalFractions",
          "type": "uint256"
        },
        {
          "internalType": "uint256",
          "name": "pricePerFraction",
          "type": "uint256"
        },
        {
          "internalType": "uint256",
          "name": "createdAt",
          "type": "uint256"
        },
        {
          "internalType": "address payable",
          "name": "originalOwner",
          "type": "address"
        },
        {
          "internalType": "string",
          "name": "ipfsMetadata",
          "type": "string"
        },
        {
          "internalType": "bool",
          "name": "isVerified",
          "type": "bool"
        }
      ],
      "stateMutability": "view",
      "type": "function"
    },
    {
      "inputs": [
        {
          "internalType": "uint256",
          "name": "propertyId",
          "type": "uint256"
        },
        {
          "internalType": "uint256",
          "name": "amount",
          "type": "uint256"
        }
      ],
      "name": "purchaseFractions",
      "outputs": [],
      "stateMutability": "payable",
      "type": "function"
    },
    {
      "inputs": [],
      "name": "renounceOwnership",
      "outputs": [],
      "stateMutability": "nonpayable",
      "type": "function"
    },
    {
      "inputs": [
        {
          "internalType": "uint256",
          "name": "",
          "type": "uint256"
        }
      ],
      "name": "rentPool",
      "outputs": [
        {
          "internalType": "uint256",
          "name": "",
          "type": "uint256"
        }
      ],
      "stateMutability": "view",
      "type": "function"
    },
    {
      "inputs": [
        {
          "internalType": "address",
          "name": "from",
          "type": "address"
        },
        {
          "internalType": "address",
          "name": "to",
          "type": "address"
        },
        {
          "internalType": "uint256[]",
          "name": "ids",
          "type": "uint256[]"
        },
        {
          "internalType": "uint256[]",
          "name": "values",
          "type": "uint256[]"
        },
        {
          "internalType": "bytes",
          "name": "data",
          "type": "bytes"
        }
      ],
      "name": "safeBatchTransferFrom",
      "outputs": [],
      "stateMutability": "nonpayable",
      "type": "function"
    },
    {
      "inputs": [
        {
          "internalType": "address",
          "name": "from",
          "type": "address"
        },
        {
          "internalType": "address",
          "name": "to",
          "type": "address"
        },
        {
          "internalType": "uint256",
          "name": "id",
          "type": "uint256"
        },
        {
          "internalType": "uint256",
          "name": "value",
          "type": "uint256"
        },
        {
          "internalType": "bytes",
          "name": "data",
          "type": "bytes"
        }
      ],
      "name": "safeTransferFrom",
      "outputs": [],
      "stateMutability": "nonpayable",
      "type": "function"
    },
    {
      "inputs": [
        {
          "internalType": "address",
          "name": "operator",
          "type": "address"
        },
        {
          "internalType": "bool",
          "name": "approved",
          "type": "bool"
        }
      ],
      "name": "setApprovalForAll",
      "outputs": [],
      "stateMutability": "nonpayable",
      "type": "function"
    },
    {
      "inputs": [
        {
          "internalType": "string",
          "name": "newuri",
          "type": "string"
        }
      ],
      "name": "setURI",
      "outputs": [],
      "stateMutability": "nonpayable",
      "type": "function"
    },
    {
      "inputs": [
        {
          "internalType": "bytes4",
          "name": "interfaceId",
          "type": "bytes4"
        }
      ],
      "name": "supportsInterface",
      "outputs": [
        {
          "internalType": "bool",
          "name": "",
          "type": "bool"
        }
      ],
      "stateMutability": "view",
      "type": "function"
    },
    {
      "inputs": [
        {
          "internalType": "address",
          "name": "newOwner",
          "type": "address"
        }
      ],
      "name": "transferOwnership",
      "outputs": [],
      "stateMutability": "nonpayable",
      "type": "function"
    },
    {
      "inputs": [
        {
          "internalType": "uint256",
          "name": "",
          "type": "uint256"
        }
      ],
      "name": "uri",
      "outputs": [
        {
          "internalType": "string",
          "name": "",
          "type": "string"
        }
      ],
      "stateMutability": "view",
      "type": "function"
    },
    {
      "inputs": [
        {
          "internalType": "uint256",
          "name": "propertyId",
          "type": "uint256"
        }
      ],
      "name": "verifyProperty",
      "outputs": [],
      "stateMutability": "nonpayable",
      "type": "function"
    }
  ],
  "bytecode": "0x60806040523480156200001157600080fd5b5060408051808201909152601e81527f68747470733a2f2f697066732e696f2f697066732f7b69647d2e6a736f6e00006020820152339062000053816200009a565b506001600160a01b0381166200008357604051631e4fbdf760e01b81526000600482015260240160405180910390fd5b6200008e81620000ac565b5060016004556200026f565b6002620000a88282620001a3565b5050565b600380546001600160a01b038381166001600160a01b0319831681179093556040519116919082907f8be0079c531659141344cd1fd0a4f28419497f9722a3daafe3b4186f6b6457e090600090a35050565b634e487b7160e01b600052604160045260246000fd5b600181811c908216806200012957607f821691505b6020821081036200014a57634e487b7160e01b600052602260045260246000fd5b50919050565b601f8211156200019e57600081815260208120601f850160051c81016020861015620001795750805b601f850160051c820191505b818110156200019a5782815560010162000185565b5050505b505050565b81516001600160401b03811115620001bf57620001bf620000fe565b620001d781620001d0845462000114565b8462000150565b602080601f8311600181146200020f5760008415620001f65750858301515b600019600386901b1c1916600185901b1785556200019a565b600085815260208120601f198616915b8281101562000240578886015182559484019460019091019084016200021f565b50858210156200025f5787850151600019600388901b60f8161c191681555b5050505050600190811b01905550565b613250806200027f6000396000f3fe6080604052600436106101805760003560e01c8063790112cf116100d1578063bc197c811161008a578063f23a6e6111610064578063f23a6e61146104b3578063f242432a146104df578063f2fde38b146104ff578063f7b108081461051f57600080fd5b8063bc197c811461042e578063ccae763a14610473578063e985e9c51461049357600080fd5b8063790112cf1461035b5780638da5cb5b1461037b578063902f74b7146103a3578063a22cb465146103db578063ac37a58d146103fb578063b8cdbc591461040e57600080fd5b806323c9b8c41161013e5780633c29ce32116101185780633c29ce32146102e65780634212a8ae146102f95780634e1273f414610319578063715018a61461034657600080fd5b806323c9b8c4146102795780632eb2c2d61461029957806332665ffb146102b957600080fd5b8062fdd58e1461018557806301b4884b146101b857806301ffc9a7146101e557806302fe5305146102155780630e89341c1461023757806317aaf5ed14610264575b600080fd5b34801561019157600080fd5b506101a56101a0366004612788565b610555565b6040519081526020015b60405180910390f35b3480156101c457600080fd5b506101a56101d33660046127b2565b60076020526000908152604090205481565b3480156101f157600080fd5b506102056102003660046127e1565b61057d565b60405190151581526020016101af565b34801561022157600080fd5b506102356102303660046128b5565b610588565b005b34801561024357600080fd5b506102576102523660046127b2565b61059c565b6040516101af9190612930565b34801561027057600080fd5b506005546101a5565b34801561028557600080fd5b506102356102943660046127b2565b610630565b3480156102a557600080fd5b506102356102b43660046129d2565b610ac0565b3480156102c557600080fd5b506102d96102d43660046127b2565b610b27565b6040516101af9190612a7c565b6102356102f43660046127b2565b610e6e565b34801561030557600080fd5b506102356103143660046127b2565b610f4f565b34801561032557600080fd5b50610339610334366004612b5c565b611021565b6040516101af9190612c57565b34801561035257600080fd5b506102356110f6565b34801561036757600080fd5b506101a5610376366004612c6a565b61110a565b34801561038757600080fd5b506003546040516001600160a01b0390911681526020016101af565b3480156103af57600080fd5b506101a56103be366004612d34565b600860209081526000928352604080842090915290825290205481565b3480156103e757600080fd5b506102356103f6366004612d60565b611390565b610235610409366004612d9c565b61139f565b34801561041a57600080fd5b506101a5610429366004612d34565b61190b565b34801561043a57600080fd5b5061045a6104493660046129d2565b63bc197c8160e01b95945050505050565b6040516001600160e01b031990911681526020016101af565b34801561047f57600080fd5b506101a561048e366004612d34565b611bfb565b34801561049f57600080fd5b506102056104ae366004612dbe565b611c0e565b3480156104bf57600080fd5b5061045a6104ce366004612de8565b63f23a6e6160e01b95945050505050565b3480156104eb57600080fd5b506102356104fa366004612de8565b611c3c565b34801561050b57600080fd5b5061023561051a366004612e4d565b611c9b565b34801561052b57600080fd5b5061053f61053a3660046127b2565b611cd6565b6040516101af9a99989796959493929190612e68565b6000818152602081815260408083206001600160a01b03861684529091529020545b92915050565b600061057782611f53565b610590611f78565b61059981611fa5565b50565b6060600280546105ab90612efe565b80601f01602080910402602001604051908101604052809291908181526020018280546105d790612efe565b80156106245780601f106105f957610100808354040283529160200191610624565b820191906000526020600020905b81548152906001019060200180831161060757829003601f168201915b50505050509050919050565b610638611fb1565b6000818152600660205260408082208151610140810190925280548290829061066090612efe565b80601f016020809104026020016040519081016040528092919081815260200182805461068c90612efe565b80156106d95780601f106106ae576101008083540402835291602001916106d9565b820191906000526020600020905b8154815290600101906020018083116106bc57829003601f168201915b505050505081526020016001820180546106f290612efe565b80601f016020809104026020016040519081016040528092919081815260200182805461071e90612efe565b801561076b5780601f106107405761010080835404028352916020019161076b565b820191906000526020600020905b81548152906001019060200180831161074e57829003601f168201915b505050505081526020016002820154815260200160038201805461078e90612efe565b80601f01602080910402602001604051908101604052809291908181526020018280546107ba90612efe565b80156108075780601f106107dc57610100808354040283529160200191610807565b820191906000526020600020905b8154815290600101906020018083116107ea57829003601f168201915b505050918352505060048201546020820152600582015460408201526006820154606082015260078201546001600160a01b0316608082015260088201805460a09092019161085590612efe565b80601f016020809104026020016040519081016040528092919081815260200182805461088190612efe565b80156108ce5780601f106108a3576101008083540402835291602001916108ce565b820191906000526020600020905b8154815290600101906020018083116108b157829003601f168201915b50505091835250506009919091015460ff16151560209091015260c08101519091506109155760405162461bcd60e51b815260040161090c90612f38565b60405180910390fd5b60006109213384610555565b116109635760405162461bcd60e51b8152602060048201526012602482015271139bc8199c9858dd1a5bdb9cc81bdddb995960721b604482015260640161090c565b600061097483338460800151611fdb565b9050600081116109ba5760405162461bcd60e51b8152602060048201526011602482015270139bc81d5b98db185a5b5959081c995b9d607a1b604482015260640161090c565b6000838152600860209081526040808320338452909152812080548392906109e3908490612f85565b9091555050604051600090339083908381818185875af1925050503d8060008114610a2a576040519150601f19603f3d011682016040523d82523d6000602084013e610a2f565b606091505b5050905080610a775760405162461bcd60e51b815260206004820152601460248201527314995b9d081d1c985b9cd9995c8819985a5b195960621b604482015260640161090c565b60408051838152426020820152339186917fe6c895c94245554dc0af3b57ec3c991fcde7d8d4365025960bcbf906bd624dc6910160405180910390a35050506105996001600455565b336001600160a01b0386168114801590610ae15750610adf8682611c0e565b155b15610b125760405163711bec9160e11b81526001600160a01b0380831660048301528716602482015260440161090c565b610b1f8686868686612065565b505050505050565b610b886040518061014001604052806060815260200160608152602001600081526020016060815260200160008152602001600081526020016000815260200160006001600160a01b03168152602001606081526020016000151581525090565b60008281526006602081905260409091200154610bb75760405162461bcd60e51b815260040161090c90612f38565b6000828152600660205260409081902081516101408101909252805482908290610be090612efe565b80601f0160208091040260200160405190810160405280929190818152602001828054610c0c90612efe565b8015610c595780601f10610c2e57610100808354040283529160200191610c59565b820191906000526020600020905b815481529060010190602001808311610c3c57829003601f168201915b50505050508152602001600182018054610c7290612efe565b80601f0160208091040260200160405190810160405280929190818152602001828054610c9e90612efe565b8015610ceb5780601f10610cc057610100808354040283529160200191610ceb565b820191906000526020600020905b815481529060010190602001808311610cce57829003601f168201915b5050505050815260200160028201548152602001600382018054610d0e90612efe565b80601f0160208091040260200160405190810160405280929190818152602001828054610d3a90612efe565b8015610d875780601f10610d5c57610100808354040283529160200191610d87565b820191906000526020600020905b815481529060010190602001808311610d6a57829003601f168201915b505050918352505060048201546020820152600582015460408201526006820154606082015260078201546001600160a01b0316608082015260088201805460a090920191610dd590612efe565b80601f0160208091040260200160405190810160405280929190818152602001828054610e0190612efe565b8015610e4e5780601f10610e2357610100808354040283529160200191610e4e565b820191906000526020600020905b815481529060010190602001808311610e3157829003601f168201915b50505091835250506009919091015460ff16151560209091015292915050565b610e76611fb1565b60008181526006602081905260409091200154610ea55760405162461bcd60e51b815260040161090c90612f38565b60003411610ee85760405162461bcd60e51b815260206004820152601060248201526f052656e74206d757374206265203e20360841b604482015260640161090c565b60008181526007602052604081208054349290610f06908490612f85565b90915550506040805134815242602082015282917f4b3d2fa7c486d847aaa08248b93b26c3398f7b94f1bf39a149406adad04a3f23910160405180910390a26105996001600455565b610f57611f78565b60008181526006602081905260409091200154610f865760405162461bcd60e51b815260040161090c90612f38565b60008181526006602052604090206009015460ff1615610fdb5760405162461bcd60e51b815260206004820152601060248201526f105b1c9958591e481d995c9a599a595960821b604482015260640161090c565b600081815260066020526040808220600901805460ff191660011790555182917f251541517e7fdfbb2cb6b8c70a4fdaa5055dd01495174bcb394e5c6934ae634191a250565b606081518351146110525781518351604051635b05999160e01b81526004810192909252602482015260440161090c565b6000835167ffffffffffffffff81111561106e5761106e6127fe565b604051908082528060200260200182016040528015611097578160200160208202803683370190505b50905060005b84518110156110ee576020808202860101516110c190602080840287010151610555565b8282815181106110d3576110d3612f98565b60209081029190910101526110e781612fae565b905061109d565b509392505050565b6110fe611f78565b61110860006120cc565b565b6000611114611fb1565b6000841161115c5760405162461bcd60e51b815260206004820152601560248201527404672616374696f6e73206d757374206265203e203605c1b604482015260640161090c565b6000861161119f5760405162461bcd60e51b815260206004820152601060248201526f041726561206d757374206265203e20360841b604482015260640161090c565b600083116111e35760405162461bcd60e51b815260206004820152601160248201527005072696365206d757374206265203e203607c1b604482015260640161090c565b6001600560008282546111f69190612f85565b909155505060055460408051610140810182528a815260208082018b90528183018a9052606082018990526080820188905260a082018790524260c08301523360e0830152610100820186905260006101208301819052848152600690915291909120815181906112679082613012565b506020820151600182019061127c9082613012565b50604082015160028201556060820151600382019061129b9082613012565b506080820151600482015560a0820151600582015560c0820151600682015560e08201516007820180546001600160a01b0319166001600160a01b0390921691909117905561010082015160088201906112f59082613012565b506101208201518160090160006101000a81548160ff0219169083151502179055509050506113353082876040518060200160405280600081525061211e565b336001600160a01b0316817f7e266b5ab9ee4f65e7b605b0f776473424c32492b210d3ea4cbf98855608923a878c6040516113719291906130d2565b60405180910390a390506113856001600455565b979650505050505050565b61139b33838361217b565b5050565b6113a7611fb1565b600082815260066020526040808220815161014081019092528054829082906113cf90612efe565b80601f01602080910402602001604051908101604052809291908181526020018280546113fb90612efe565b80156114485780601f1061141d57610100808354040283529160200191611448565b820191906000526020600020905b81548152906001019060200180831161142b57829003601f168201915b5050505050815260200160018201805461146190612efe565b80601f016020809104026020016040519081016040528092919081815260200182805461148d90612efe565b80156114da5780601f106114af576101008083540402835291602001916114da565b820191906000526020600020905b8154815290600101906020018083116114bd57829003601f168201915b50505050508152602001600282015481526020016003820180546114fd90612efe565b80601f016020809104026020016040519081016040528092919081815260200182805461152990612efe565b80156115765780601f1061154b57610100808354040283529160200191611576565b820191906000526020600020905b81548152906001019060200180831161155957829003601f168201915b505050918352505060048201546020820152600582015460408201526006820154606082015260078201546001600160a01b0316608082015260088201805460a0909201916115c490612efe565b80601f01602080910402602001604051908101604052809291908181526020018280546115f090612efe565b801561163d5780601f106116125761010080835404028352916020019161163d565b820191906000526020600020905b81548152906001019060200180831161162057829003601f168201915b50505091835250506009919091015460ff16151560209091015260c081015190915061167b5760405162461bcd60e51b815260040161090c90612f38565b600082116116c05760405162461bcd60e51b81526020600482015260126024820152710416d6f756e74206d757374206265203e20360741b604482015260640161090c565b816116cb3085610555565b10156117105760405162461bcd60e51b81526020600482015260146024820152734e6f7420656e6f756768206672616374696f6e7360601b604482015260640161090c565b6000828260a0015161172291906130eb565b90508034101561176b5760405162461bcd60e51b8152602060048201526014602482015273125b9cdd59999a58da595b9d081c185e5b595b9d60621b604482015260640161090c565b6117873033868660405180602001604052806000815250612211565b60008260e001516001600160a01b03168260405160006040518083038185875af1925050503d80600081146117d8576040519150601f19603f3d011682016040523d82523d6000602084013e6117dd565b606091505b505090508061182e5760405162461bcd60e51b815260206004820152601760248201527f5061796d656e7420746f206f776e6572206661696c6564000000000000000000604482015260640161090c565b813411156118c7576000336118438434613102565b604051600081818185875af1925050503d806000811461187f576040519150601f19603f3d011682016040523d82523d6000602084013e611884565b606091505b50509050806118c55760405162461bcd60e51b815260206004820152600d60248201526c1499599d5b990819985a5b1959609a1b604482015260640161090c565b505b604051848152339086907f391e04cf2ba8f29888f266b30b26a0c723c4d51f4e59a766d49bc1652a8b5f889060200160405180910390a350505061139b6001600455565b600082815260066020526040808220815161014081019092528054839291908290829061193790612efe565b80601f016020809104026020016040519081016040528092919081815260200182805461196390612efe565b80156119b05780601f10611985576101008083540402835291602001916119b0565b820191906000526020600020905b81548152906001019060200180831161199357829003601f168201915b505050505081526020016001820180546119c990612efe565b80601f01602080910402602001604051908101604052809291908181526020018280546119f590612efe565b8015611a425780601f10611a1757610100808354040283529160200191611a42565b820191906000526020600020905b815481529060010190602001808311611a2557829003601f168201915b5050505050815260200160028201548152602001600382018054611a6590612efe565b80601f0160208091040260200160405190810160405280929190818152602001828054611a9190612efe565b8015611ade5780601f10611ab357610100808354040283529160200191611ade565b820191906000526020600020905b815481529060010190602001808311611ac157829003601f168201915b505050918352505060048201546020820152600582015460408201526006820154606082015260078201546001600160a01b0316608082015260088201805460a090920191611b2c90612efe565b80601f0160208091040260200160405190810160405280929190818152602001828054611b5890612efe565b8015611ba55780601f10611b7a57610100808354040283529160200191611ba5565b820191906000526020600020905b815481529060010190602001808311611b8857829003601f168201915b50505091835250506009919091015460ff16151560209091015260c08101519091501580611bd557506080810151155b15611be4576000915050610577565b611bf384848360800151611fdb565b949350505050565b6000611c078284610555565b9392505050565b6001600160a01b03918216600090815260016020908152604080832093909416825291909152205460ff1690565b336001600160a01b0386168114801590611c5d5750611c5b8682611c0e565b155b15611c8e5760405163711bec9160e11b81526001600160a01b0380831660048301528716602482015260440161090c565b610b1f8686868686612211565b611ca3611f78565b6001600160a01b038116611ccd57604051631e4fbdf760e01b81526000600482015260240161090c565b610599816120cc565b600660205260009081526040902080548190611cf190612efe565b80601f0160208091040260200160405190810160405280929190818152602001828054611d1d90612efe565b8015611d6a5780601f10611d3f57610100808354040283529160200191611d6a565b820191906000526020600020905b815481529060010190602001808311611d4d57829003601f168201915b505050505090806001018054611d7f90612efe565b80601f0160208091040260200160405190810160405280929190818152602001828054611dab90612efe565b8015611df85780601f10611dcd57610100808354040283529160200191611df8565b820191906000526020600020905b815481529060010190602001808311611ddb57829003601f168201915b505050505090806002015490806003018054611e1390612efe565b80601f0160208091040260200160405190810160405280929190818152602001828054611e3f90612efe565b8015611e8c5780601f10611e6157610100808354040283529160200191611e8c565b820191906000526020600020905b815481529060010190602001808311611e6f57829003601f168201915b5050506004840154600585015460068601546007870154600888018054979894979396509194506001600160a01b03169291611ec790612efe565b80601f0160208091040260200160405190810160405280929190818152602001828054611ef390612efe565b8015611f405780601f10611f1557610100808354040283529160200191611f40565b820191906000526020600020905b815481529060010190602001808311611f2357829003601f168201915b5050506009909301549192505060ff168a565b60006001600160e01b03198216630271189760e51b148061057757506105778261229f565b6003546001600160a01b031633146111085760405163118cdaa760e01b815233600482015260240161090c565b600261139b8282613012565b600260045403611fd457604051633ee5aeb560e01b815260040160405180910390fd5b6002600455565b600080611fe88486610555565b905080600003611ffc576000915050611c07565b60008581526007602052604081205484906120189084906130eb565b6120229190613115565b60008781526008602090815260408083206001600160a01b038a16845290915290205490915080821161205b5760009350505050611c07565b6113858183613102565b6001600160a01b03841661208f57604051632bfa23e760e11b81526000600482015260240161090c565b6001600160a01b0385166120b857604051626a0d4560e21b81526000600482015260240161090c565b6120c585858585856122ef565b5050505050565b600380546001600160a01b038381166001600160a01b0319831681179093556040519116919082907f8be0079c531659141344cd1fd0a4f28419497f9722a3daafe3b4186f6b6457e090600090a35050565b6001600160a01b03841661214857604051632bfa23e760e11b81526000600482015260240161090c565b60408051600180825260208201869052818301908152606082018590526080820190925290610b1f6000878484876122ef565b6001600160a01b0382166121a45760405162ced3e160e81b81526000600482015260240161090c565b6001600160a01b03838116600081815260016020908152604080832094871680845294825291829020805460ff191686151590811790915591519182527f17307eab39ab6107e8899845ad3d59bd9653f200f220920489ca2b5937696c31910160405180910390a3505050565b6001600160a01b03841661223b57604051632bfa23e760e11b81526000600482015260240161090c565b6001600160a01b03851661226457604051626a0d4560e21b81526000600482015260240161090c565b6040805160018082526020820186905281830190815260608201859052608082019092529061229687878484876122ef565b50505050505050565b60006001600160e01b03198216636cdb3d1360e11b14806122d057506001600160e01b031982166303a24d0760e21b145b8061057757506301ffc9a760e01b6001600160e01b0319831614610577565b6122fb85858585612342565b6001600160a01b038416156120c55782513390600103612334576020848101519084015161232d83898985858961255f565b5050610b1f565b610b1f818787878787612683565b80518251146123715781518151604051635b05999160e01b81526004810192909252602482015260440161090c565b3360005b8351811015612480576020818102858101820151908501909101516001600160a01b03881615612428576000828152602081815260408083206001600160a01b038c16845290915290205481811015612401576040516303dee4c560e01b81526001600160a01b038a16600482015260248101829052604481018390526064810184905260840161090c565b6000838152602081815260408083206001600160a01b038d16845290915290209082900390555b6001600160a01b0387161561246d576000828152602081815260408083206001600160a01b038b16845290915281208054839290612467908490612f85565b90915550505b50508061247990612fae565b9050612375565b5082516001036125015760208301516000906020840151909150856001600160a01b0316876001600160a01b0316846001600160a01b03167fc3d58168c5ae7397731d063d5bbf3d657854427343f4c083240f7aacaa2d0f6285856040516124f2929190918252602082015260400190565b60405180910390a450506120c5565b836001600160a01b0316856001600160a01b0316826001600160a01b03167f4a39dc06d4c0dbc64b70af90fd698a233a518aa5d07e595d983b8c0526c8f7fb8686604051612550929190613137565b60405180910390a45050505050565b6001600160a01b0384163b15610b1f5760405163f23a6e6160e01b81526001600160a01b0385169063f23a6e61906125a39089908990889088908890600401613165565b6020604051808303816000875af19250505080156125de575060408051601f3d908101601f191682019092526125db9181019061319f565b60015b612647573d80801561260c576040519150601f19603f3d011682016040523d82523d6000602084013e612611565b606091505b50805160000361263f57604051632bfa23e760e11b81526001600160a01b038616600482015260240161090c565b805160208201fd5b6001600160e01b0319811663f23a6e6160e01b1461229657604051632bfa23e760e11b81526001600160a01b038616600482015260240161090c565b6001600160a01b0384163b15610b1f5760405163bc197c8160e01b81526001600160a01b0385169063bc197c81906126c790899089908890889088906004016131bc565b6020604051808303816000875af1925050508015612702575060408051601f3d908101601f191682019092526126ff9181019061319f565b60015b612730573d80801561260c576040519150601f19603f3d011682016040523d82523d6000602084013e612611565b6001600160e01b0319811663bc197c8160e01b1461229657604051632bfa23e760e11b81526001600160a01b038616600482015260240161090c565b80356001600160a01b038116811461278357600080fd5b919050565b6000806040838503121561279b57600080fd5b6127a48361276c565b946020939093013593505050565b6000602082840312156127c457600080fd5b5035919050565b6001600160e01b03198116811461059957600080fd5b6000602082840312156127f357600080fd5b8135611c07816127cb565b634e487b7160e01b600052604160045260246000fd5b604051601f8201601f1916810167ffffffffffffffff8111828210171561283d5761283d6127fe565b604052919050565b600082601f83011261285657600080fd5b813567ffffffffffffffff811115612870576128706127fe565b612883601f8201601f1916602001612814565b81815284602083860101111561289857600080fd5b816020850160208301376000918101602001919091529392505050565b6000602082840312156128c757600080fd5b813567ffffffffffffffff8111156128de57600080fd5b611bf384828501612845565b6000815180845260005b81811015612910576020818501810151868301820152016128f4565b506000602082860101526020601f19601f83011685010191505092915050565b602081526000611c0760208301846128ea565b600067ffffffffffffffff82111561295d5761295d6127fe565b5060051b60200190565b600082601f83011261297857600080fd5b8135602061298d61298883612943565b612814565b82815260059290921b840181019181810190868411156129ac57600080fd5b8286015b848110156129c757803583529183019183016129b0565b509695505050505050565b600080600080600060a086880312156129ea57600080fd5b6129f38661276c565b9450612a016020870161276c565b9350604086013567ffffffffffffffff80821115612a1e57600080fd5b612a2a89838a01612967565b94506060880135915080821115612a4057600080fd5b612a4c89838a01612967565b93506080880135915080821115612a6257600080fd5b50612a6f88828901612845565b9150509295509295909350565b6020815260008251610140806020850152612a9b6101608501836128ea565b91506020850151601f1980868503016040870152612ab984836128ea565b9350604087015160608701526060870151915080868503016080870152612ae084836128ea565b9350608087015160a087015260a087015160c087015260c087015160e087015260e08701519150610100612b1e818801846001600160a01b03169052565b80880151925050610120818786030181880152612b3b85846128ea565b94508088015192505050612b528286018215159052565b5090949350505050565b60008060408385031215612b6f57600080fd5b823567ffffffffffffffff80821115612b8757600080fd5b818501915085601f830112612b9b57600080fd5b81356020612bab61298883612943565b82815260059290921b84018101918181019089841115612bca57600080fd5b948201945b83861015612bef57612be08661276c565b82529482019490820190612bcf565b96505086013592505080821115612c0557600080fd5b50612c1285828601612967565b9150509250929050565b600081518084526020808501945080840160005b83811015612c4c57815187529582019590820190600101612c30565b509495945050505050565b602081526000611c076020830184612c1c565b600080600080600080600060e0888a031215612c8557600080fd5b873567ffffffffffffffff80821115612c9d57600080fd5b612ca98b838c01612845565b985060208a0135915080821115612cbf57600080fd5b612ccb8b838c01612845565b975060408a0135965060608a0135915080821115612ce857600080fd5b612cf48b838c01612845565b955060808a0135945060a08a0135935060c08a0135915080821115612d1857600080fd5b50612d258a828b01612845565b91505092959891949750929550565b60008060408385031215612d4757600080fd5b82359150612d576020840161276c565b90509250929050565b60008060408385031215612d7357600080fd5b612d7c8361276c565b915060208301358015158114612d9157600080fd5b809150509250929050565b60008060408385031215612daf57600080fd5b50508035926020909101359150565b60008060408385031215612dd157600080fd5b612dda8361276c565b9150612d576020840161276c565b600080600080600060a08688031215612e0057600080fd5b612e098661276c565b9450612e176020870161276c565b93506040860135925060608601359150608086013567ffffffffffffffff811115612e4157600080fd5b612a6f88828901612845565b600060208284031215612e5f57600080fd5b611c078261276c565b6000610140808352612e7c8184018e6128ea565b90508281036020840152612e90818d6128ea565b90508a60408401528281036060840152612eaa818b6128ea565b608084018a905260a0840189905260c084018890526001600160a01b03871660e08501528381036101008501529050612ee381866128ea565b9150508215156101208301529b9a5050505050505050505050565b600181811c90821680612f1257607f821691505b602082108103612f3257634e487b7160e01b600052602260045260246000fd5b50919050565b60208082526017908201527f50726f706572747920646f6573206e6f74206578697374000000000000000000604082015260600190565b634e487b7160e01b600052601160045260246000fd5b8082018082111561057757610577612f6f565b634e487b7160e01b600052603260045260246000fd5b600060018201612fc057612fc0612f6f565b5060010190565b601f82111561300d57600081815260208120601f850160051c81016020861015612fee5750805b601f850160051c820191505b81811015610b1f57828155600101612ffa565b505050565b815167ffffffffffffffff81111561302c5761302c6127fe565b6130408161303a8454612efe565b84612fc7565b602080601f831160018114613075576000841561305d5750858301515b600019600386901b1c1916600185901b178555610b1f565b600085815260208120601f198616915b828110156130a457888601518255948401946001909101908401613085565b50858210156130c25787850151600019600388901b60f8161c191681555b5050505050600190811b01905550565b828152604060208201526000611bf360408301846128ea565b808202811582820484141761057757610577612f6f565b8181038181111561057757610577612f6f565b60008261313257634e487b7160e01b600052601260045260246000fd5b500490565b60408152600061314a6040830185612c1c565b828103602084015261315c8185612c1c565b95945050505050565b6001600160a01b03868116825285166020820152604081018490526060810183905260a060808201819052600090611385908301846128ea565b6000602082840312156131b157600080fd5b8151611c07816127cb565b6001600160a01b0386811682528516602082015260a0604082018190526000906131e890830186612c1c565b82810360608401526131fa8186612c1c565b9050828103608084015261320e81856128ea565b9897505050505050505056fea2646970667358221220376be8f990537161cc6c45efb6517398e0c0b2c2e452962e8486d9b22fb49efe64736f6c63430008140033",
  "linkReferences": {},
  "deployedLinkReferences": {}
}