{
  "_format": "hh-sol-artifact-1",
  "contractName": "LandFractionalNFT",
  "sourceName": "contracts/LandFractionalNFT.sol",
  "abi": [
    {
      "inputs": [],
      "stateMutability": "nonpayable",
      "type": "constructor"
    },
    {
      "inputs": [
        {
          "internalType": "address",
          "name": "sender",
          "type": "address"
        },
        {
          "internalType": "uint256",
          "name": "balance",
          "type": "uint256"
        },
        {
          "internalType": "uint256",
          "name": "needed",
          "type": "uint256"
        },
        {
          "internalType": "uint256",
          "name": "tokenId",
          "type": "uint256"
        }
      ],
      "name": "ERC1155InsufficientBalance",
      "type": "error"
    },
    {
      "inputs": [
        {
          "internalType": "address",
          "name": "approver",
          "type": "address"
        }
      ],
      "name": "ERC1155InvalidApprover",
      "type": "error"
    },
    {
      "inputs": [
        {
          "internalType": "uint256",
          "name": "idsLength",
          "type": "uint256"
        },
        {
          "internalType": "uint256",
          "name": "valuesLength",
          "type": "uint256"
        }
      ],
      "name": "ERC1155InvalidArrayLength",
      "type": "error"
    },
    {
      "inputs": [
        {
          "internalType": "address",
          "name": "operator",
          "type": "address"
        }
      ],
      "name": "ERC1155InvalidOperator",
      "type": "error"
    },
    {
      "inputs": [
        {
          "internalType": "address",
          "name": "receiver",
          "type": "address"
        }
      ],
      "name": "ERC1155InvalidReceiver",
      "type": "error"
    },
    {
      "inputs": [
        {
          "internalType": "address",
          "name": "sender",
          "type": "address"
        }
      ],
      "name": "ERC1155InvalidSender",
      "type": "error"
    },
    {
      "inputs": [
        {
          "internalType": "address",
          "name": "operator",
          "type": "address"
        },
        {
          "internalType": "address",
          "name": "owner",
          "type": "address"
        }
      ],
      "name": "ERC1155MissingApprovalForAll",
      "type": "error"
    },
    {
      "inputs": [
        {
          "internalType": "address",
          "name": "owner",
          "type": "address"
        }
      ],
      "name": "OwnableInvalidOwner",
      "type": "error"
    },
    {
      "inputs": [
        {
          "internalType": "address",
          "name": "account",
          "type": "address"
        }
      ],
      "name": "OwnableUnauthorizedAccount",
      "type": "error"
    },
    {
      "inputs": [],
      "name": "ReentrancyGuardReentrantCall",
      "type": "error"
    },
    {
      "anonymous": false,
      "inputs": [
        {
          "indexed": true,
          "internalType": "address",
          "name": "account",
          "type": "address"
        },
        {
          "indexed": true,
          "internalType": "address",
          "name": "operator",
          "type": "address"
        },
        {
          "indexed": false,
          "internalType": "bool",
          "name": "approved",
          "type": "bool"
        }
      ],
      "name": "ApprovalForAll",
      "type": "event"
    },
    {
      "anonymous": false,
      "inputs": [
        {
          "indexed": true,
          "internalType": "uint256",
          "name": "propertyId",
          "type": "uint256"
        },
        {
          "indexed": true,
          "internalType": "address",
          "name": "buyer",
          "type": "address"
        },
        {
          "indexed": false,
          "internalType": "uint256",
          "name": "amount",
          "type": "uint256"
        }
      ],
      "name": "FractionPurchased",
      "type": "event"
    },
    {
      "anonymous": false,
      "inputs": [
        {
          "indexed": true,
          "internalType": "address",
          "name": "previousOwner",
          "type": "address"
        },
        {
          "indexed": true,
          "internalType": "address",
          "name": "newOwner",
          "type": "address"
        }
      ],
      "name": "OwnershipTransferred",
      "type": "event"
    },
    {
      "anonymous": false,
      "inputs": [
        {
          "indexed": true,
          "internalType": "uint256",
          "name": "propertyId",
          "type": "uint256"
        },
        {
          "indexed": true,
          "internalType": "address",
          "name": "owner",
          "type": "address"
        },
        {
          "indexed": false,
          "internalType": "uint256",
          "name": "totalFractions",
          "type": "uint256"
        },
        {
          "indexed": false,
          "internalType": "string",
          "name": "location",
          "type": "string"
        }
      ],
      "name": "PropertyCreated",
      "type": "event"
    },
    {
      "anonymous": false,
      "inputs": [
        {
          "indexed": true,
          "internalType": "uint256",
          "name": "propertyId",
          "type": "uint256"
        }
      ],
      "name": "PropertyVerified",
      "type": "event"
    },
    {
      "anonymous": false,
      "inputs": [
        {
          "indexed": true,
          "internalType": "uint256",
          "name": "propertyId",
          "type": "uint256"
        },
        {
          "indexed": true,
          "internalType": "address",
          "name": "claimer",
          "type": "address"
        },
        {
          "indexed": false,
          "internalType": "uint256",
          "name": "amount",
          "type": "uint256"
        }
      ],
      "name": "RentClaimed",
      "type": "event"
    },
    {
      "anonymous": false,
      "inputs": [
        {
          "indexed": true,
          "internalType": "uint256",
          "name": "propertyId",
          "type": "uint256"
        },
        {
          "indexed": false,
          "internalType": "uint256",
          "name": "totalAmount",
          "type": "uint256"
        }
      ],
      "name": "RentDistributed",
      "type": "event"
    },
    {
      "anonymous": false,
      "inputs": [
        {
          "indexed": true,
          "internalType": "address",
          "name": "operator",
          "type": "address"
        },
        {
          "indexed": true,
          "internalType": "address",
          "name": "from",
          "type": "address"
        },
        {
          "indexed": true,
          "internalType": "address",
          "name": "to",
          "type": "address"
        },
        {
          "indexed": false,
          "internalType": "uint256[]",
          "name": "ids",
          "type": "uint256[]"
        },
        {
          "indexed": false,
          "internalType": "uint256[]",
          "name": "values",
          "type": "uint256[]"
        }
      ],
      "name": "TransferBatch",
      "type": "event"
    },
    {
      "anonymous": false,
      "inputs": [
        {
          "indexed": true,
          "internalType": "address",
          "name": "operator",
          "type": "address"
        },
        {
          "indexed": true,
          "internalType": "address",
          "name": "from",
          "type": "address"
        },
        {
          "indexed": true,
          "internalType": "address",
          "name": "to",
          "type": "address"
        },
        {
          "indexed": false,
          "internalType": "uint256",
          "name": "id",
          "type": "uint256"
        },
        {
          "indexed": false,
          "internalType": "uint256",
          "name": "value",
          "type": "uint256"
        }
      ],
      "name": "TransferSingle",
      "type": "event"
    },
    {
      "anonymous": false,
      "inputs": [
        {
          "indexed": false,
          "internalType": "string",
          "name": "value",
          "type": "string"
        },
        {
          "indexed": true,
          "internalType": "uint256",
          "name": "id",
          "type": "uint256"
        }
      ],
      "name": "URI",
      "type": "event"
    },
    {
      "inputs": [
        {
          "internalType": "address",
          "name": "account",
          "type": "address"
        },
        {
          "internalType": "uint256",
          "name": "id",
          "type": "uint256"
        }
      ],
      "name": "balanceOf",
      "outputs": [
        {
          "internalType": "uint256",
          "name": "",
          "type": "uint256"
        }
      ],
      "stateMutability": "view",
      "type": "function"
    },
    {
      "inputs": [
        {
          "internalType": "address[]",
          "name": "accounts",
          "type": "address[]"
        },
        {
          "internalType": "uint256[]",
          "name": "ids",
          "type": "uint256[]"
        }
      ],
      "name": "balanceOfBatch",
      "outputs": [
        {
          "internalType": "uint256[]",
          "name": "",
          "type": "uint256[]"
        }
      ],
      "stateMutability": "view",
      "type": "function"
    },
    {
      "inputs": [
        {
          "internalType": "uint256",
          "name": "propertyId",
          "type": "uint256"
        }
      ],
      "name": "claimRent",
      "outputs": [],
      "stateMutability": "nonpayable",
      "type": "function"
    },
    {
      "inputs": [
        {
          "internalType": "uint256",
          "name": "",
          "type": "uint256"
        },
        {
          "internalType": "address",
          "name": "",
          "type": "address"
        }
      ],
      "name": "claimedRent",
      "outputs": [
        {
          "internalType": "uint256",
          "name": "",
          "type": "uint256"
        }
      ],
      "stateMutability": "view",
      "type": "function"
    },
    {
      "inputs": [
        {
          "internalType": "string",
          "name": "location",
          "type": "string"
        },
        {
          "internalType": "string",
          "name": "city",
          "type": "string"
        },
        {
          "internalType": "uint256",
          "name": "totalArea",
          "type": "uint256"
        },
        {
          "internalType": "string",
          "name": "areaUnit",
          "type": "string"
        },
        {
          "internalType": "uint256",
          "name": "totalFractions",
          "type": "uint256"
        },
        {
          "internalType": "uint256",
          "name": "pricePerFraction",
          "type": "uint256"
        },
        {
          "internalType": "string",
          "name": "ipfsMetadata",
          "type": "string"
        }
      ],
      "name": "createProperty",
      "outputs": [
        {
          "internalType": "uint256",
          "name": "",
          "type": "uint256"
        }
      ],
      "stateMutability": "nonpayable",
      "type": "function"
    },
    {
      "inputs": [
        {
          "internalType": "uint256",
          "name": "propertyId",
          "type": "uint256"
        }
      ],
      "name": "distributeRent",
      "outputs": [],
      "stateMutability": "payable",
      "type": "function"
    },
    {
      "inputs": [
        {
          "internalType": "uint256",
          "name": "propertyId",
          "type": "uint256"
        }
      ],
      "name": "getProperty",
      "outputs": [
        {
          "components": [
            {
              "internalType": "string",
              "name": "location",
              "type": "string"
            },
            {
              "internalType": "string",
              "name": "city",
              "type": "string"
            },
            {
              "internalType": "uint256",
              "name": "totalArea",
              "type": "uint256"
            },
            {
              "internalType": "string",
              "name": "areaUnit",
              "type": "string"
            },
            {
              "internalType": "uint256",
              "name": "totalFractions",
              "type": "uint256"
            },
            {
              "internalType": "uint256",
              "name": "pricePerFraction",
              "type": "uint256"
            },
            {
              "internalType": "uint256",
              "name": "createdAt",
              "type": "uint256"
            },
            {
              "internalType": "address payable",
              "name": "originalOwner",
              "type": "address"
            },
            {
              "internalType": "string",
              "name": "ipfsMetadata",
              "type": "string"
            },
            {
              "internalType": "bool",
              "name": "isVerified",
              "type": "bool"
            }
          ],
          "internalType": "struct LandFractionalNFT.LandProperty",
          "name": "",
          "type": "tuple"
        }
      ],
      "stateMutability": "view",
      "type": "function"
    },
    {
      "inputs": [],
      "name": "getTotalProperties",
      "outputs": [
        {
          "internalType": "uint256",
          "name": "",
          "type": "uint256"
        }
      ],
      "stateMutability": "view",
      "type": "function"
    },
    {
      "inputs": [
        {
          "internalType": "uint256",
          "name": "propertyId",
          "type": "uint256"
        },
        {
          "internalType": "address",
          "name": "user",
          "type": "address"
        }
      ],
      "name": "getUnclaimedRent",
      "outputs": [
        {
          "internalType": "uint256",
          "name": "",
          "type": "uint256"
        }
      ],
      "stateMutability": "view",
      "type": "function"
    },
    {
      "inputs": [
        {
          "internalType": "address",
          "name": "account",
          "type": "address"
        },
        {
          "internalType": "address",
          "name": "operator",
          "type": "address"
        }
      ],
      "name": "isApprovedForAll",
      "outputs": [
        {
          "internalType": "bool",
          "name": "",
          "type": "bool"
        }
      ],
      "stateMutability": "view",
      "type": "function"
    },
    {
      "inputs": [
        {
          "internalType": "address",
          "name": "",
          "type": "address"
        },
        {
          "internalType": "address",
          "name": "",
          "type": "address"
        },
        {
          "internalType": "uint256[]",
          "name": "",
          "type": "uint256[]"
        },
        {
          "internalType": "uint256[]",
          "name": "",
          "type": "uint256[]"
        },
        {
          "internalType": "bytes",
          "name": "",
          "type": "bytes"
        }
      ],
      "name": "onERC1155BatchReceived",
      "outputs": [
        {
          "internalType": "bytes4",
          "name": "",
          "type": "bytes4"
        }
      ],
      "stateMutability": "nonpayable",
      "type": "function"
    },
    {
      "inputs": [
        {
          "internalType": "address",
          "name": "",
          "type": "address"
        },
        {
          "internalType": "address",
          "name": "",
          "type": "address"
        },
        {
          "internalType": "uint256",
          "name": "",
          "type": "uint256"
        },
        {
          "internalType": "uint256",
          "name": "",
          "type": "uint256"
        },
        {
          "internalType": "bytes",
          "name": "",
          "type": "bytes"
        }
      ],
      "name": "onERC1155Received",
      "outputs": [
        {
          "internalType": "bytes4",
          "name": "",
          "type": "bytes4"
        }
      ],
      "stateMutability": "nonpayable",
      "type": "function"
    },
    {
      "inputs": [],
      "name": "owner",
      "outputs": [
        {
          "internalType": "address",
          "name": "",
          "type": "address"
        }
      ],
      "stateMutability": "view",
      "type": "function"
    },
    {
      "inputs": [
        {
          "internalType": "uint256",
          "name": "",
          "type": "uint256"
        }
      ],
      "name": "properties",
      "outputs": [
        {
          "internalType": "string",
          "name": "location",
          "type": "string"
        },
        {
          "internalType": "string",
          "name": "city",
          "type": "string"
        },
        {
          "internalType": "uint256",
          "name": "totalArea",
          "type": "uint256"
        },
        {
          "internalType": "string",
          "name": "areaUnit",
          "type": "string"
        },
        {
          "internalType": "uint256",
          "name": "totalFractions",
          "type": "uint256"
        },
        {
          "internalType": "uint256",
          "name": "pricePerFraction",
          "type": "uint256"
        },
        {
          "internalType": "uint256",
          "name": "createdAt",
          "type": "uint256"
        },
        {
          "internalType": "address payable",
          "name": "originalOwner",
          "type": "address"
        },
        {
          "internalType": "string",
          "name": "ipfsMetadata",
          "type": "string"
        },
        {
          "internalType": "bool",
          "name": "isVerified",
          "type": "bool"
        }
      ],
      "stateMutability": "view",
      "type": "function"
    },
    {
      "inputs": [
        {
          "internalType": "uint256",
          "name": "propertyId",
          "type": "uint256"
        },
        {
          "internalType": "uint256",
          "name": "amount",
          "type": "uint256"
        }
      ],
      "name": "purchaseFractions",
      "outputs": [],
      "stateMutability": "payable",
      "type": "function"
    },
    {
      "inputs": [],
      "name": "renounceOwnership",
      "outputs": [],
      "stateMutability": "nonpayable",
      "type": "function"
    },
    {
      "inputs": [
        {
          "internalType": "uint256",
          "name": "",
          "type": "uint256"
        }
      ],
      "name": "rentPool",
      "outputs": [
        {
          "internalType": "uint256",
          "name": "",
          "type": "uint256"
        }
      ],
      "stateMutability": "view",
      "type": "function"
    },
    {
      "inputs": [
        {
          "internalType": "address",
          "name": "from",
          "type": "address"
        },
        {
          "internalType": "address",
          "name": "to",
          "type": "address"
        },
        {
          "internalType": "uint256[]",
          "name": "ids",
          "type": "uint256[]"
        },
        {
          "internalType": "uint256[]",
          "name": "values",
          "type": "uint256[]"
        },
        {
          "internalType": "bytes",
          "name": "data",
          "type": "bytes"
        }
      ],
      "name": "safeBatchTransferFrom",
      "outputs": [],
      "stateMutability": "nonpayable",
      "type": "function"
    },
    {
      "inputs": [
        {
          "internalType": "address",
          "name": "from",
          "type": "address"
        },
        {
          "internalType": "address",
          "name": "to",
          "type": "address"
        },
        {
          "internalType": "uint256",
          "name": "id",
          "type": "uint256"
        },
        {
          "internalType": "uint256",
          "name": "value",
          "type": "uint256"
        },
        {
          "internalType": "bytes",
          "name": "data",
          "type": "bytes"
        }
      ],
      "name": "safeTransferFrom",
      "outputs": [],
      "stateMutability": "nonpayable",
      "type": "function"
    },
    {
      "inputs": [
        {
          "internalType": "address",
          "name": "operator",
          "type": "address"
        },
        {
          "internalType": "bool",
          "name": "approved",
          "type": "bool"
        }
      ],
      "name": "setApprovalForAll",
      "outputs": [],
      "stateMutability": "nonpayable",
      "type": "function"
    },
    {
      "inputs": [
        {
          "internalType": "string",
          "name": "newuri",
          "type": "string"
        }
      ],
      "name": "setURI",
      "outputs": [],
      "stateMutability": "nonpayable",
      "type": "function"
    },
    {
      "inputs": [
        {
          "internalType": "bytes4",
          "name": "interfaceId",
          "type": "bytes4"
        }
      ],
      "name": "supportsInterface",
      "outputs": [
        {
          "internalType": "bool",
          "name": "",
          "type": "bool"
        }
      ],
      "stateMutability": "view",
      "type": "function"
    },
    {
      "inputs": [
        {
          "internalType": "address",
          "name": "newOwner",
          "type": "address"
        }
      ],
      "name": "transferOwnership",
      "outputs": [],
      "stateMutability": "nonpayable",
      "type": "function"
    },
    {
      "inputs": [
        {
          "internalType": "uint256",
          "name": "",
          "type": "uint256"
        }
      ],
      "name": "uri",
      "outputs": [
        {
          "internalType": "string",
          "name": "",
          "type": "string"
        }
      ],
      "stateMutability": "view",
      "type": "function"
    },
    {
      "inputs": [
        {
          "internalType": "uint256",
          "name": "propertyId",
          "type": "uint256"
        }
      ],
      "name": "verifyProperty",
      "outputs": [],
      "stateMutability": "nonpayable",
      "type": "function"
    }
  ],
  "bytecode": "0x60806040523480156200001157600080fd5b5060408051808201909152601e81527f68747470733a2f2f697066732e696f2f697066732f7b69647d2e6a736f6e00006020820152339062000053816200009a565b506001600160a01b0381166200008357604051631e4fbdf760e01b81526000600482015260240160405180910390fd5b6200008e81620000ac565b5060016004556200026f565b6002620000a88282620001a3565b5050565b600380546001600160a01b038381166001600160a01b0319831681179093556040519116919082907f8be0079c531659141344cd1fd0a4f28419497f9722a3daafe3b4186f6b6457e090600090a35050565b634e487b7160e01b600052604160045260246000fd5b600181811c908216806200012957607f821691505b6020821081036200014a57634e487b7160e01b600052602260045260246000fd5b50919050565b601f8211156200019e57600081815260208120601f850160051c81016020861015620001795750805b601f850160051c820191505b818110156200019a5782815560010162000185565b5050505b505050565b81516001600160401b03811115620001bf57620001bf620000fe565b620001d781620001d0845462000114565b8462000150565b602080601f8311600181146200020f5760008415620001f65750858301515b600019600386901b1c1916600185901b1785556200019a565b600085815260208120601f198616915b8281101562000240578886015182559484019460019091019084016200021f565b50858210156200025f5787850151600019600388901b60f8161c191681555b5050505050600190811b01905550565b6131bc806200027f6000396000f3fe6080604052600436106101655760003560e01c8063715018a6116100d1578063b8cdbc591161008a578063f23a6e6111610064578063f23a6e6114610478578063f242432a146104a4578063f2fde38b146104c4578063f7b10808146104e457600080fd5b8063b8cdbc59146103f3578063bc197c8114610413578063e985e9c51461045857600080fd5b8063715018a61461032b578063790112cf146103405780638da5cb5b14610360578063902f74b714610388578063a22cb465146103c0578063ac37a58d146103e057600080fd5b806323c9b8c41161012357806323c9b8c41461025e5780632eb2c2d61461027e57806332665ffb1461029e5780633c29ce32146102cb5780634212a8ae146102de5780634e1273f4146102fe57600080fd5b8062fdd58e1461016a57806301b4884b1461019d57806301ffc9a7146101ca57806302fe5305146101fa5780630e89341c1461021c57806317aaf5ed14610249575b600080fd5b34801561017657600080fd5b5061018a6101853660046126e5565b61051a565b6040519081526020015b60405180910390f35b3480156101a957600080fd5b5061018a6101b836600461270f565b60076020526000908152604090205481565b3480156101d657600080fd5b506101ea6101e536600461273e565b610542565b6040519015158152602001610194565b34801561020657600080fd5b5061021a610215366004612819565b61054d565b005b34801561022857600080fd5b5061023c61023736600461270f565b610561565b604051610194919061289c565b34801561025557600080fd5b5060055461018a565b34801561026a57600080fd5b5061021a61027936600461270f565b6105f5565b34801561028a57600080fd5b5061021a61029936600461293e565b610aa9565b3480156102aa57600080fd5b506102be6102b936600461270f565b610b10565b60405161019491906129e8565b61021a6102d936600461270f565b610e57565b3480156102ea57600080fd5b5061021a6102f936600461270f565b610f40565b34801561030a57600080fd5b5061031e610319366004612ac8565b611012565b6040516101949190612bc3565b34801561033757600080fd5b5061021a6110e7565b34801561034c57600080fd5b5061018a61035b366004612bd6565b6110fb565b34801561036c57600080fd5b506003546040516001600160a01b039091168152602001610194565b34801561039457600080fd5b5061018a6103a3366004612ca0565b600860209081526000928352604080842090915290825290205481565b3480156103cc57600080fd5b5061021a6103db366004612ccc565b611381565b61021a6103ee366004612d08565b611390565b3480156103ff57600080fd5b5061018a61040e366004612ca0565b6118ac565b34801561041f57600080fd5b5061043f61042e36600461293e565b63bc197c8160e01b95945050505050565b6040516001600160e01b03199091168152602001610194565b34801561046457600080fd5b506101ea610473366004612d2a565b611bf5565b34801561048457600080fd5b5061043f610493366004612d54565b63f23a6e6160e01b95945050505050565b3480156104b057600080fd5b5061021a6104bf366004612d54565b611c23565b3480156104d057600080fd5b5061021a6104df366004612db9565b611c82565b3480156104f057600080fd5b506105046104ff36600461270f565b611cbd565b6040516101949a99989796959493929190612dd4565b6000818152602081815260408083206001600160a01b03861684529091529020545b92915050565b600061053c82611f3a565b610555611f5f565b61055e81611f8c565b50565b60606002805461057090612e6a565b80601f016020809104026020016040519081016040528092919081815260200182805461059c90612e6a565b80156105e95780601f106105be576101008083540402835291602001916105e9565b820191906000526020600020905b8154815290600101906020018083116105cc57829003601f168201915b50505050509050919050565b6105fd611f98565b6000818152600660205260408082208151610140810190925280548290829061062590612e6a565b80601f016020809104026020016040519081016040528092919081815260200182805461065190612e6a565b801561069e5780601f106106735761010080835404028352916020019161069e565b820191906000526020600020905b81548152906001019060200180831161068157829003601f168201915b505050505081526020016001820180546106b790612e6a565b80601f01602080910402602001604051908101604052809291908181526020018280546106e390612e6a565b80156107305780601f1061070557610100808354040283529160200191610730565b820191906000526020600020905b81548152906001019060200180831161071357829003601f168201915b505050505081526020016002820154815260200160038201805461075390612e6a565b80601f016020809104026020016040519081016040528092919081815260200182805461077f90612e6a565b80156107cc5780601f106107a1576101008083540402835291602001916107cc565b820191906000526020600020905b8154815290600101906020018083116107af57829003601f168201915b505050918352505060048201546020820152600582015460408201526006820154606082015260078201546001600160a01b0316608082015260088201805460a09092019161081a90612e6a565b80601f016020809104026020016040519081016040528092919081815260200182805461084690612e6a565b80156108935780601f1061086857610100808354040283529160200191610893565b820191906000526020600020905b81548152906001019060200180831161087657829003601f168201915b50505091835250506009919091015460ff16151560209091015260c08101519091506108da5760405162461bcd60e51b81526004016108d190612ea4565b60405180910390fd5b60006108e6338461051a565b90506000811161092d5760405162461bcd60e51b8152602060048201526012602482015271139bc8199c9858dd1a5bdb9cc81bdddb995960721b60448201526064016108d1565b6000838152600760205260409020548061097d5760405162461bcd60e51b81526020600482015260116024820152704e6f2072656e7420617661696c61626c6560781b60448201526064016108d1565b608083015160009061098f8484612ef1565b6109999190612f08565b6000868152600860209081526040808320338452909152812054919250906109c19083612f2a565b905060008111610a075760405162461bcd60e51b8152602060048201526011602482015270139bc81d5b98db185a5b5959081c995b9d607a1b60448201526064016108d1565b600086815260086020908152604080832033845290915281208054839290610a30908490612f3d565b9091555050604051339082156108fc029083906000818181858888f19350505050158015610a62573d6000803e3d6000fd5b50604051818152339087907f5be9cabf6144ebe8142e4997e2bd7a73203c02a1f0be71b72fed6cb00303272f9060200160405180910390a3505050505061055e6001600455565b336001600160a01b0386168114801590610aca5750610ac88682611bf5565b155b15610afb5760405163711bec9160e11b81526001600160a01b038083166004830152871660248201526044016108d1565b610b088686868686611fc2565b505050505050565b610b716040518061014001604052806060815260200160608152602001600081526020016060815260200160008152602001600081526020016000815260200160006001600160a01b03168152602001606081526020016000151581525090565b60008281526006602081905260409091200154610ba05760405162461bcd60e51b81526004016108d190612ea4565b6000828152600660205260409081902081516101408101909252805482908290610bc990612e6a565b80601f0160208091040260200160405190810160405280929190818152602001828054610bf590612e6a565b8015610c425780601f10610c1757610100808354040283529160200191610c42565b820191906000526020600020905b815481529060010190602001808311610c2557829003601f168201915b50505050508152602001600182018054610c5b90612e6a565b80601f0160208091040260200160405190810160405280929190818152602001828054610c8790612e6a565b8015610cd45780601f10610ca957610100808354040283529160200191610cd4565b820191906000526020600020905b815481529060010190602001808311610cb757829003601f168201915b5050505050815260200160028201548152602001600382018054610cf790612e6a565b80601f0160208091040260200160405190810160405280929190818152602001828054610d2390612e6a565b8015610d705780601f10610d4557610100808354040283529160200191610d70565b820191906000526020600020905b815481529060010190602001808311610d5357829003601f168201915b505050918352505060048201546020820152600582015460408201526006820154606082015260078201546001600160a01b0316608082015260088201805460a090920191610dbe90612e6a565b80601f0160208091040260200160405190810160405280929190818152602001828054610dea90612e6a565b8015610e375780601f10610e0c57610100808354040283529160200191610e37565b820191906000526020600020905b815481529060010190602001808311610e1a57829003601f168201915b50505091835250506009919091015460ff16151560209091015292915050565b610e5f611f98565b60008181526006602081905260409091200154610e8e5760405162461bcd60e51b81526004016108d190612ea4565b60003411610ede5760405162461bcd60e51b815260206004820152601760248201527f52656e7420616d6f756e74206d757374206265203e203000000000000000000060448201526064016108d1565b60008181526007602052604081208054349290610efc908490612f3d565b909155505060405134815281907fe119edd602f8057f976e78f3580fad7c24700f494e6ddca97279c332a213f3849060200160405180910390a261055e6001600455565b610f48611f5f565b60008181526006602081905260409091200154610f775760405162461bcd60e51b81526004016108d190612ea4565b60008181526006602052604090206009015460ff1615610fcc5760405162461bcd60e51b815260206004820152601060248201526f105b1c9958591e481d995c9a599a595960821b60448201526064016108d1565b600081815260066020526040808220600901805460ff191660011790555182917f251541517e7fdfbb2cb6b8c70a4fdaa5055dd01495174bcb394e5c6934ae634191a250565b606081518351146110435781518351604051635b05999160e01b8152600481019290925260248201526044016108d1565b6000835167ffffffffffffffff81111561105f5761105f612762565b604051908082528060200260200182016040528015611088578160200160208202803683370190505b50905060005b84518110156110df576020808202860101516110b29060208084028701015161051a565b8282815181106110c4576110c4612f50565b60209081029190910101526110d881612f66565b905061108e565b509392505050565b6110ef611f5f565b6110f96000612029565b565b6000611105611f98565b6000841161114d5760405162461bcd60e51b815260206004820152601560248201527404672616374696f6e73206d757374206265203e203605c1b60448201526064016108d1565b600086116111905760405162461bcd60e51b815260206004820152601060248201526f041726561206d757374206265203e20360841b60448201526064016108d1565b600083116111d45760405162461bcd60e51b815260206004820152601160248201527005072696365206d757374206265203e203607c1b60448201526064016108d1565b6001600560008282546111e79190612f3d565b909155505060055460408051610140810182528a815260208082018b90528183018a9052606082018990526080820188905260a082018790524260c08301523360e0830152610100820186905260006101208301819052848152600690915291909120815181906112589082612fca565b506020820151600182019061126d9082612fca565b50604082015160028201556060820151600382019061128c9082612fca565b506080820151600482015560a0820151600582015560c0820151600682015560e08201516007820180546001600160a01b0319166001600160a01b0390921691909117905561010082015160088201906112e69082612fca565b506101208201518160090160006101000a81548160ff0219169083151502179055509050506113263082876040518060200160405280600081525061207b565b336001600160a01b0316817f7e266b5ab9ee4f65e7b605b0f776473424c32492b210d3ea4cbf98855608923a878c60405161136292919061308a565b60405180910390a390506113766001600455565b979650505050505050565b61138c3383836120d8565b5050565b611398611f98565b600082815260066020526040808220815161014081019092528054829082906113c090612e6a565b80601f01602080910402602001604051908101604052809291908181526020018280546113ec90612e6a565b80156114395780601f1061140e57610100808354040283529160200191611439565b820191906000526020600020905b81548152906001019060200180831161141c57829003601f168201915b5050505050815260200160018201805461145290612e6a565b80601f016020809104026020016040519081016040528092919081815260200182805461147e90612e6a565b80156114cb5780601f106114a0576101008083540402835291602001916114cb565b820191906000526020600020905b8154815290600101906020018083116114ae57829003601f168201915b50505050508152602001600282015481526020016003820180546114ee90612e6a565b80601f016020809104026020016040519081016040528092919081815260200182805461151a90612e6a565b80156115675780601f1061153c57610100808354040283529160200191611567565b820191906000526020600020905b81548152906001019060200180831161154a57829003601f168201915b505050918352505060048201546020820152600582015460408201526006820154606082015260078201546001600160a01b0316608082015260088201805460a0909201916115b590612e6a565b80601f01602080910402602001604051908101604052809291908181526020018280546115e190612e6a565b801561162e5780601f106116035761010080835404028352916020019161162e565b820191906000526020600020905b81548152906001019060200180831161161157829003601f168201915b50505091835250506009919091015460ff16151560209091015260c081015190915061166c5760405162461bcd60e51b81526004016108d190612ea4565b600082116116b15760405162461bcd60e51b81526020600482015260126024820152710416d6f756e74206d757374206265203e20360741b60448201526064016108d1565b816116bc308561051a565b101561170a5760405162461bcd60e51b815260206004820152601e60248201527f4e6f7420656e6f756768206672616374696f6e7320617661696c61626c65000060448201526064016108d1565b6000828260a0015161171c9190612ef1565b9050803410156117655760405162461bcd60e51b8152602060048201526014602482015273125b9cdd59999a58da595b9d081c185e5b595b9d60621b60448201526064016108d1565b611781303386866040518060200160405280600081525061216e565b60008260e001516001600160a01b03168260405160006040518083038185875af1925050503d80600081146117d2576040519150601f19603f3d011682016040523d82523d6000602084013e6117d7565b606091505b50509050806118285760405162461bcd60e51b815260206004820152601960248201527f5472616e7366657220746f2073656c6c6572206661696c65640000000000000060448201526064016108d1565b8134111561186857336108fc61183e8434612f2a565b6040518115909202916000818181858888f19350505050158015611866573d6000803e3d6000fd5b505b604051848152339086907f391e04cf2ba8f29888f266b30b26a0c723c4d51f4e59a766d49bc1652a8b5f889060200160405180910390a350505061138c6001600455565b60008281526006602052604080822081516101408101909252805483929190829082906118d890612e6a565b80601f016020809104026020016040519081016040528092919081815260200182805461190490612e6a565b80156119515780601f1061192657610100808354040283529160200191611951565b820191906000526020600020905b81548152906001019060200180831161193457829003601f168201915b5050505050815260200160018201805461196a90612e6a565b80601f016020809104026020016040519081016040528092919081815260200182805461199690612e6a565b80156119e35780601f106119b8576101008083540402835291602001916119e3565b820191906000526020600020905b8154815290600101906020018083116119c657829003601f168201915b5050505050815260200160028201548152602001600382018054611a0690612e6a565b80601f0160208091040260200160405190810160405280929190818152602001828054611a3290612e6a565b8015611a7f5780601f10611a5457610100808354040283529160200191611a7f565b820191906000526020600020905b815481529060010190602001808311611a6257829003601f168201915b505050918352505060048201546020820152600582015460408201526006820154606082015260078201546001600160a01b0316608082015260088201805460a090920191611acd90612e6a565b80601f0160208091040260200160405190810160405280929190818152602001828054611af990612e6a565b8015611b465780601f10611b1b57610100808354040283529160200191611b46565b820191906000526020600020905b815481529060010190602001808311611b2957829003601f168201915b50505091835250506009919091015460ff16151560209091015260c0810151909150600003611b7957600091505061053c565b6000611b85848661051a565b905080600003611b9a5760009250505061053c565b6000858152600760205260408120546080840151909190611bbb8484612ef1565b611bc59190612f08565b60008881526008602090815260408083206001600160a01b038b1684529091529020549091506113769082612f2a565b6001600160a01b03918216600090815260016020908152604080832093909416825291909152205460ff1690565b336001600160a01b0386168114801590611c445750611c428682611bf5565b155b15611c755760405163711bec9160e11b81526001600160a01b038083166004830152871660248201526044016108d1565b610b08868686868661216e565b611c8a611f5f565b6001600160a01b038116611cb457604051631e4fbdf760e01b8152600060048201526024016108d1565b61055e81612029565b600660205260009081526040902080548190611cd890612e6a565b80601f0160208091040260200160405190810160405280929190818152602001828054611d0490612e6a565b8015611d515780601f10611d2657610100808354040283529160200191611d51565b820191906000526020600020905b815481529060010190602001808311611d3457829003601f168201915b505050505090806001018054611d6690612e6a565b80601f0160208091040260200160405190810160405280929190818152602001828054611d9290612e6a565b8015611ddf5780601f10611db457610100808354040283529160200191611ddf565b820191906000526020600020905b815481529060010190602001808311611dc257829003601f168201915b505050505090806002015490806003018054611dfa90612e6a565b80601f0160208091040260200160405190810160405280929190818152602001828054611e2690612e6a565b8015611e735780601f10611e4857610100808354040283529160200191611e73565b820191906000526020600020905b815481529060010190602001808311611e5657829003601f168201915b5050506004840154600585015460068601546007870154600888018054979894979396509194506001600160a01b03169291611eae90612e6a565b80601f0160208091040260200160405190810160405280929190818152602001828054611eda90612e6a565b8015611f275780601f10611efc57610100808354040283529160200191611f27565b820191906000526020600020905b815481529060010190602001808311611f0a57829003601f168201915b5050506009909301549192505060ff168a565b60006001600160e01b03198216630271189760e51b148061053c575061053c826121fc565b6003546001600160a01b031633146110f95760405163118cdaa760e01b81523360048201526024016108d1565b600261138c8282612fca565b600260045403611fbb57604051633ee5aeb560e01b815260040160405180910390fd5b6002600455565b6001600160a01b038416611fec57604051632bfa23e760e11b8152600060048201526024016108d1565b6001600160a01b03851661201557604051626a0d4560e21b8152600060048201526024016108d1565b612022858585858561224c565b5050505050565b600380546001600160a01b038381166001600160a01b0319831681179093556040519116919082907f8be0079c531659141344cd1fd0a4f28419497f9722a3daafe3b4186f6b6457e090600090a35050565b6001600160a01b0384166120a557604051632bfa23e760e11b8152600060048201526024016108d1565b60408051600180825260208201869052818301908152606082018590526080820190925290610b0860008784848761224c565b6001600160a01b0382166121015760405162ced3e160e81b8152600060048201526024016108d1565b6001600160a01b03838116600081815260016020908152604080832094871680845294825291829020805460ff191686151590811790915591519182527f17307eab39ab6107e8899845ad3d59bd9653f200f220920489ca2b5937696c31910160405180910390a3505050565b6001600160a01b03841661219857604051632bfa23e760e11b8152600060048201526024016108d1565b6001600160a01b0385166121c157604051626a0d4560e21b8152600060048201526024016108d1565b604080516001808252602082018690528183019081526060820185905260808201909252906121f3878784848761224c565b50505050505050565b60006001600160e01b03198216636cdb3d1360e11b148061222d57506001600160e01b031982166303a24d0760e21b145b8061053c57506301ffc9a760e01b6001600160e01b031983161461053c565b6122588585858561229f565b6001600160a01b038416156120225782513390600103612291576020848101519084015161228a8389898585896124bc565b5050610b08565b610b088187878787876125e0565b80518251146122ce5781518151604051635b05999160e01b8152600481019290925260248201526044016108d1565b3360005b83518110156123dd576020818102858101820151908501909101516001600160a01b03881615612385576000828152602081815260408083206001600160a01b038c1684529091529020548181101561235e576040516303dee4c560e01b81526001600160a01b038a1660048201526024810182905260448101839052606481018490526084016108d1565b6000838152602081815260408083206001600160a01b038d16845290915290209082900390555b6001600160a01b038716156123ca576000828152602081815260408083206001600160a01b038b168452909152812080548392906123c4908490612f3d565b90915550505b5050806123d690612f66565b90506122d2565b50825160010361245e5760208301516000906020840151909150856001600160a01b0316876001600160a01b0316846001600160a01b03167fc3d58168c5ae7397731d063d5bbf3d657854427343f4c083240f7aacaa2d0f62858560405161244f929190918252602082015260400190565b60405180910390a45050612022565b836001600160a01b0316856001600160a01b0316826001600160a01b03167f4a39dc06d4c0dbc64b70af90fd698a233a518aa5d07e595d983b8c0526c8f7fb86866040516124ad9291906130a3565b60405180910390a45050505050565b6001600160a01b0384163b15610b085760405163f23a6e6160e01b81526001600160a01b0385169063f23a6e619061250090899089908890889088906004016130d1565b6020604051808303816000875af192505050801561253b575060408051601f3d908101601f191682019092526125389181019061310b565b60015b6125a4573d808015612569576040519150601f19603f3d011682016040523d82523d6000602084013e61256e565b606091505b50805160000361259c57604051632bfa23e760e11b81526001600160a01b03861660048201526024016108d1565b805160208201fd5b6001600160e01b0319811663f23a6e6160e01b146121f357604051632bfa23e760e11b81526001600160a01b03861660048201526024016108d1565b6001600160a01b0384163b15610b085760405163bc197c8160e01b81526001600160a01b0385169063bc197c81906126249089908990889088908890600401613128565b6020604051808303816000875af192505050801561265f575060408051601f3d908101601f1916820190925261265c9181019061310b565b60015b61268d573d808015612569576040519150601f19603f3d011682016040523d82523d6000602084013e61256e565b6001600160e01b0319811663bc197c8160e01b146121f357604051632bfa23e760e11b81526001600160a01b03861660048201526024016108d1565b80356001600160a01b03811681146126e057600080fd5b919050565b600080604083850312156126f857600080fd5b612701836126c9565b946020939093013593505050565b60006020828403121561272157600080fd5b5035919050565b6001600160e01b03198116811461055e57600080fd5b60006020828403121561275057600080fd5b813561275b81612728565b9392505050565b634e487b7160e01b600052604160045260246000fd5b604051601f8201601f1916810167ffffffffffffffff811182821017156127a1576127a1612762565b604052919050565b600082601f8301126127ba57600080fd5b813567ffffffffffffffff8111156127d4576127d4612762565b6127e7601f8201601f1916602001612778565b8181528460208386010111156127fc57600080fd5b816020850160208301376000918101602001919091529392505050565b60006020828403121561282b57600080fd5b813567ffffffffffffffff81111561284257600080fd5b61284e848285016127a9565b949350505050565b6000815180845260005b8181101561287c57602081850181015186830182015201612860565b506000602082860101526020601f19601f83011685010191505092915050565b60208152600061275b6020830184612856565b600067ffffffffffffffff8211156128c9576128c9612762565b5060051b60200190565b600082601f8301126128e457600080fd5b813560206128f96128f4836128af565b612778565b82815260059290921b8401810191818101908684111561291857600080fd5b8286015b84811015612933578035835291830191830161291c565b509695505050505050565b600080600080600060a0868803121561295657600080fd5b61295f866126c9565b945061296d602087016126c9565b9350604086013567ffffffffffffffff8082111561298a57600080fd5b61299689838a016128d3565b945060608801359150808211156129ac57600080fd5b6129b889838a016128d3565b935060808801359150808211156129ce57600080fd5b506129db888289016127a9565b9150509295509295909350565b6020815260008251610140806020850152612a07610160850183612856565b91506020850151601f1980868503016040870152612a258483612856565b9350604087015160608701526060870151915080868503016080870152612a4c8483612856565b9350608087015160a087015260a087015160c087015260c087015160e087015260e08701519150610100612a8a818801846001600160a01b03169052565b80880151925050610120818786030181880152612aa78584612856565b94508088015192505050612abe8286018215159052565b5090949350505050565b60008060408385031215612adb57600080fd5b823567ffffffffffffffff80821115612af357600080fd5b818501915085601f830112612b0757600080fd5b81356020612b176128f4836128af565b82815260059290921b84018101918181019089841115612b3657600080fd5b948201945b83861015612b5b57612b4c866126c9565b82529482019490820190612b3b565b96505086013592505080821115612b7157600080fd5b50612b7e858286016128d3565b9150509250929050565b600081518084526020808501945080840160005b83811015612bb857815187529582019590820190600101612b9c565b509495945050505050565b60208152600061275b6020830184612b88565b600080600080600080600060e0888a031215612bf157600080fd5b873567ffffffffffffffff80821115612c0957600080fd5b612c158b838c016127a9565b985060208a0135915080821115612c2b57600080fd5b612c378b838c016127a9565b975060408a0135965060608a0135915080821115612c5457600080fd5b612c608b838c016127a9565b955060808a0135945060a08a0135935060c08a0135915080821115612c8457600080fd5b50612c918a828b016127a9565b91505092959891949750929550565b60008060408385031215612cb357600080fd5b82359150612cc3602084016126c9565b90509250929050565b60008060408385031215612cdf57600080fd5b612ce8836126c9565b915060208301358015158114612cfd57600080fd5b809150509250929050565b60008060408385031215612d1b57600080fd5b50508035926020909101359150565b60008060408385031215612d3d57600080fd5b612d46836126c9565b9150612cc3602084016126c9565b600080600080600060a08688031215612d6c57600080fd5b612d75866126c9565b9450612d83602087016126c9565b93506040860135925060608601359150608086013567ffffffffffffffff811115612dad57600080fd5b6129db888289016127a9565b600060208284031215612dcb57600080fd5b61275b826126c9565b6000610140808352612de88184018e612856565b90508281036020840152612dfc818d612856565b90508a60408401528281036060840152612e16818b612856565b608084018a905260a0840189905260c084018890526001600160a01b03871660e08501528381036101008501529050612e4f8186612856565b9150508215156101208301529b9a5050505050505050505050565b600181811c90821680612e7e57607f821691505b602082108103612e9e57634e487b7160e01b600052602260045260246000fd5b50919050565b60208082526017908201527f50726f706572747920646f6573206e6f74206578697374000000000000000000604082015260600190565b634e487b7160e01b600052601160045260246000fd5b808202811582820484141761053c5761053c612edb565b600082612f2557634e487b7160e01b600052601260045260246000fd5b500490565b8181038181111561053c5761053c612edb565b8082018082111561053c5761053c612edb565b634e487b7160e01b600052603260045260246000fd5b600060018201612f7857612f78612edb565b5060010190565b601f821115612fc557600081815260208120601f850160051c81016020861015612fa65750805b601f850160051c820191505b81811015610b0857828155600101612fb2565b505050565b815167ffffffffffffffff811115612fe457612fe4612762565b612ff881612ff28454612e6a565b84612f7f565b602080601f83116001811461302d57600084156130155750858301515b600019600386901b1c1916600185901b178555610b08565b600085815260208120601f198616915b8281101561305c5788860151825594840194600190910190840161303d565b508582101561307a5787850151600019600388901b60f8161c191681555b5050505050600190811b01905550565b82815260406020820152600061284e6040830184612856565b6040815260006130b66040830185612b88565b82810360208401526130c88185612b88565b95945050505050565b6001600160a01b03868116825285166020820152604081018490526060810183905260a06080820181905260009061137690830184612856565b60006020828403121561311d57600080fd5b815161275b81612728565b6001600160a01b0386811682528516602082015260a06040820181905260009061315490830186612b88565b82810360608401526131668186612b88565b9050828103608084015261317a8185612856565b9897505050505050505056fea2646970667358221220b14b2b860f56a89b1bea813f462ebe3c6f13074beec640f33a8b3d869eba2ca864736f6c63430008140033",
  "linkReferences": {},
  "deployedLinkReferences": {}
}