{
  "_format": "hh-sol-artifact-1",
  "contractName": "LandFractionalNFT",
  "sourceName": "contracts/LandFractionalNFT.sol",
  "abi": [
    {
      "inputs": [],
      "stateMutability": "nonpayable",
      "type": "constructor"
    },
    {
      "inputs": [
        {
          "internalType": "address",
          "name": "sender",
          "type": "address"
        },
        {
          "internalType": "uint256",
          "name": "balance",
          "type": "uint256"
        },
        {
          "internalType": "uint256",
          "name": "needed",
          "type": "uint256"
        },
        {
          "internalType": "uint256",
          "name": "tokenId",
          "type": "uint256"
        }
      ],
      "name": "ERC1155InsufficientBalance",
      "type": "error"
    },
    {
      "inputs": [
        {
          "internalType": "address",
          "name": "approver",
          "type": "address"
        }
      ],
      "name": "ERC1155InvalidApprover",
      "type": "error"
    },
    {
      "inputs": [
        {
          "internalType": "uint256",
          "name": "idsLength",
          "type": "uint256"
        },
        {
          "internalType": "uint256",
          "name": "valuesLength",
          "type": "uint256"
        }
      ],
      "name": "ERC1155InvalidArrayLength",
      "type": "error"
    },
    {
      "inputs": [
        {
          "internalType": "address",
          "name": "operator",
          "type": "address"
        }
      ],
      "name": "ERC1155InvalidOperator",
      "type": "error"
    },
    {
      "inputs": [
        {
          "internalType": "address",
          "name": "receiver",
          "type": "address"
        }
      ],
      "name": "ERC1155InvalidReceiver",
      "type": "error"
    },
    {
      "inputs": [
        {
          "internalType": "address",
          "name": "sender",
          "type": "address"
        }
      ],
      "name": "ERC1155InvalidSender",
      "type": "error"
    },
    {
      "inputs": [
        {
          "internalType": "address",
          "name": "operator",
          "type": "address"
        },
        {
          "internalType": "address",
          "name": "owner",
          "type": "address"
        }
      ],
      "name": "ERC1155MissingApprovalForAll",
      "type": "error"
    },
    {
      "inputs": [
        {
          "internalType": "address",
          "name": "owner",
          "type": "address"
        }
      ],
      "name": "OwnableInvalidOwner",
      "type": "error"
    },
    {
      "inputs": [
        {
          "internalType": "address",
          "name": "account",
          "type": "address"
        }
      ],
      "name": "OwnableUnauthorizedAccount",
      "type": "error"
    },
    {
      "inputs": [],
      "name": "ReentrancyGuardReentrantCall",
      "type": "error"
    },
    {
      "anonymous": false,
      "inputs": [
        {
          "indexed": true,
          "internalType": "address",
          "name": "account",
          "type": "address"
        },
        {
          "indexed": true,
          "internalType": "address",
          "name": "operator",
          "type": "address"
        },
        {
          "indexed": false,
          "internalType": "bool",
          "name": "approved",
          "type": "bool"
        }
      ],
      "name": "ApprovalForAll",
      "type": "event"
    },
    {
      "anonymous": false,
      "inputs": [
        {
          "indexed": true,
          "internalType": "uint256",
          "name": "propertyId",
          "type": "uint256"
        },
        {
          "indexed": true,
          "internalType": "address",
          "name": "buyer",
          "type": "address"
        },
        {
          "indexed": false,
          "internalType": "uint256",
          "name": "amount",
          "type": "uint256"
        }
      ],
      "name": "FractionPurchased",
      "type": "event"
    },
    {
      "anonymous": false,
      "inputs": [
        {
          "indexed": true,
          "internalType": "address",
          "name": "previousOwner",
          "type": "address"
        },
        {
          "indexed": true,
          "internalType": "address",
          "name": "newOwner",
          "type": "address"
        }
      ],
      "name": "OwnershipTransferred",
      "type": "event"
    },
    {
      "anonymous": false,
      "inputs": [
        {
          "indexed": true,
          "internalType": "uint256",
          "name": "propertyId",
          "type": "uint256"
        },
        {
          "indexed": true,
          "internalType": "address",
          "name": "owner",
          "type": "address"
        },
        {
          "indexed": false,
          "internalType": "uint256",
          "name": "totalFractions",
          "type": "uint256"
        },
        {
          "indexed": false,
          "internalType": "string",
          "name": "location",
          "type": "string"
        }
      ],
      "name": "PropertyCreated",
      "type": "event"
    },
    {
      "anonymous": false,
      "inputs": [
        {
          "indexed": true,
          "internalType": "uint256",
          "name": "propertyId",
          "type": "uint256"
        }
      ],
      "name": "PropertyVerified",
      "type": "event"
    },
    {
      "anonymous": false,
      "inputs": [
        {
          "indexed": true,
          "internalType": "uint256",
          "name": "propertyId",
          "type": "uint256"
        },
        {
          "indexed": true,
          "internalType": "address",
          "name": "claimer",
          "type": "address"
        },
        {
          "indexed": false,
          "internalType": "uint256",
          "name": "amount",
          "type": "uint256"
        },
        {
          "indexed": false,
          "internalType": "uint256",
          "name": "timestamp",
          "type": "uint256"
        }
      ],
      "name": "RentClaimed",
      "type": "event"
    },
    {
      "anonymous": false,
      "inputs": [
        {
          "indexed": true,
          "internalType": "uint256",
          "name": "propertyId",
          "type": "uint256"
        },
        {
          "indexed": false,
          "internalType": "uint256",
          "name": "totalAmount",
          "type": "uint256"
        },
        {
          "indexed": false,
          "internalType": "uint256",
          "name": "timestamp",
          "type": "uint256"
        }
      ],
      "name": "RentDistributed",
      "type": "event"
    },
    {
      "anonymous": false,
      "inputs": [
        {
          "indexed": true,
          "internalType": "address",
          "name": "operator",
          "type": "address"
        },
        {
          "indexed": true,
          "internalType": "address",
          "name": "from",
          "type": "address"
        },
        {
          "indexed": true,
          "internalType": "address",
          "name": "to",
          "type": "address"
        },
        {
          "indexed": false,
          "internalType": "uint256[]",
          "name": "ids",
          "type": "uint256[]"
        },
        {
          "indexed": false,
          "internalType": "uint256[]",
          "name": "values",
          "type": "uint256[]"
        }
      ],
      "name": "TransferBatch",
      "type": "event"
    },
    {
      "anonymous": false,
      "inputs": [
        {
          "indexed": true,
          "internalType": "address",
          "name": "operator",
          "type": "address"
        },
        {
          "indexed": true,
          "internalType": "address",
          "name": "from",
          "type": "address"
        },
        {
          "indexed": true,
          "internalType": "address",
          "name": "to",
          "type": "address"
        },
        {
          "indexed": false,
          "internalType": "uint256",
          "name": "id",
          "type": "uint256"
        },
        {
          "indexed": false,
          "internalType": "uint256",
          "name": "value",
          "type": "uint256"
        }
      ],
      "name": "TransferSingle",
      "type": "event"
    },
    {
      "anonymous": false,
      "inputs": [
        {
          "indexed": false,
          "internalType": "string",
          "name": "value",
          "type": "string"
        },
        {
          "indexed": true,
          "internalType": "uint256",
          "name": "id",
          "type": "uint256"
        }
      ],
      "name": "URI",
      "type": "event"
    },
    {
      "inputs": [
        {
          "internalType": "address",
          "name": "account",
          "type": "address"
        },
        {
          "internalType": "uint256",
          "name": "id",
          "type": "uint256"
        }
      ],
      "name": "balanceOf",
      "outputs": [
        {
          "internalType": "uint256",
          "name": "",
          "type": "uint256"
        }
      ],
      "stateMutability": "view",
      "type": "function"
    },
    {
      "inputs": [
        {
          "internalType": "address[]",
          "name": "accounts",
          "type": "address[]"
        },
        {
          "internalType": "uint256[]",
          "name": "ids",
          "type": "uint256[]"
        }
      ],
      "name": "balanceOfBatch",
      "outputs": [
        {
          "internalType": "uint256[]",
          "name": "",
          "type": "uint256[]"
        }
      ],
      "stateMutability": "view",
      "type": "function"
    },
    {
      "inputs": [
        {
          "internalType": "uint256",
          "name": "propertyId",
          "type": "uint256"
        }
      ],
      "name": "claimRent",
      "outputs": [],
      "stateMutability": "nonpayable",
      "type": "function"
    },
    {
      "inputs": [
        {
          "internalType": "uint256",
          "name": "",
          "type": "uint256"
        },
        {
          "internalType": "address",
          "name": "",
          "type": "address"
        }
      ],
      "name": "claimedRent",
      "outputs": [
        {
          "internalType": "uint256",
          "name": "",
          "type": "uint256"
        }
      ],
      "stateMutability": "view",
      "type": "function"
    },
    {
      "inputs": [
        {
          "internalType": "string",
          "name": "location",
          "type": "string"
        },
        {
          "internalType": "string",
          "name": "city",
          "type": "string"
        },
        {
          "internalType": "uint256",
          "name": "totalArea",
          "type": "uint256"
        },
        {
          "internalType": "string",
          "name": "areaUnit",
          "type": "string"
        },
        {
          "internalType": "uint256",
          "name": "totalFractions",
          "type": "uint256"
        },
        {
          "internalType": "uint256",
          "name": "pricePerFraction",
          "type": "uint256"
        },
        {
          "internalType": "string",
          "name": "ipfsMetadata",
          "type": "string"
        }
      ],
      "name": "createProperty",
      "outputs": [
        {
          "internalType": "uint256",
          "name": "",
          "type": "uint256"
        }
      ],
      "stateMutability": "nonpayable",
      "type": "function"
    },
    {
      "inputs": [
        {
          "internalType": "uint256",
          "name": "propertyId",
          "type": "uint256"
        }
      ],
      "name": "distributeRent",
      "outputs": [],
      "stateMutability": "payable",
      "type": "function"
    },
    {
      "inputs": [
        {
          "internalType": "uint256",
          "name": "propertyId",
          "type": "uint256"
        }
      ],
      "name": "getProperty",
      "outputs": [
        {
          "components": [
            {
              "internalType": "string",
              "name": "location",
              "type": "string"
            },
            {
              "internalType": "string",
              "name": "city",
              "type": "string"
            },
            {
              "internalType": "uint256",
              "name": "totalArea",
              "type": "uint256"
            },
            {
              "internalType": "string",
              "name": "areaUnit",
              "type": "string"
            },
            {
              "internalType": "uint256",
              "name": "totalFractions",
              "type": "uint256"
            },
            {
              "internalType": "uint256",
              "name": "pricePerFraction",
              "type": "uint256"
            },
            {
              "internalType": "uint256",
              "name": "createdAt",
              "type": "uint256"
            },
            {
              "internalType": "address payable",
              "name": "originalOwner",
              "type": "address"
            },
            {
              "internalType": "string",
              "name": "ipfsMetadata",
              "type": "string"
            },
            {
              "internalType": "bool",
              "name": "isVerified",
              "type": "bool"
            }
          ],
          "internalType": "struct LandFractionalNFT.LandProperty",
          "name": "",
          "type": "tuple"
        }
      ],
      "stateMutability": "view",
      "type": "function"
    },
    {
      "inputs": [],
      "name": "getTotalProperties",
      "outputs": [
        {
          "internalType": "uint256",
          "name": "",
          "type": "uint256"
        }
      ],
      "stateMutability": "view",
      "type": "function"
    },
    {
      "inputs": [
        {
          "internalType": "uint256",
          "name": "propertyId",
          "type": "uint256"
        },
        {
          "internalType": "address",
          "name": "user",
          "type": "address"
        }
      ],
      "name": "getUnclaimedRent",
      "outputs": [
        {
          "internalType": "uint256",
          "name": "",
          "type": "uint256"
        }
      ],
      "stateMutability": "view",
      "type": "function"
    },
    {
      "inputs": [
        {
          "internalType": "address",
          "name": "account",
          "type": "address"
        },
        {
          "internalType": "address",
          "name": "operator",
          "type": "address"
        }
      ],
      "name": "isApprovedForAll",
      "outputs": [
        {
          "internalType": "bool",
          "name": "",
          "type": "bool"
        }
      ],
      "stateMutability": "view",
      "type": "function"
    },
    {
      "inputs": [
        {
          "internalType": "address",
          "name": "",
          "type": "address"
        },
        {
          "internalType": "address",
          "name": "",
          "type": "address"
        },
        {
          "internalType": "uint256[]",
          "name": "",
          "type": "uint256[]"
        },
        {
          "internalType": "uint256[]",
          "name": "",
          "type": "uint256[]"
        },
        {
          "internalType": "bytes",
          "name": "",
          "type": "bytes"
        }
      ],
      "name": "onERC1155BatchReceived",
      "outputs": [
        {
          "internalType": "bytes4",
          "name": "",
          "type": "bytes4"
        }
      ],
      "stateMutability": "nonpayable",
      "type": "function"
    },
    {
      "inputs": [
        {
          "internalType": "address",
          "name": "",
          "type": "address"
        },
        {
          "internalType": "address",
          "name": "",
          "type": "address"
        },
        {
          "internalType": "uint256",
          "name": "",
          "type": "uint256"
        },
        {
          "internalType": "uint256",
          "name": "",
          "type": "uint256"
        },
        {
          "internalType": "bytes",
          "name": "",
          "type": "bytes"
        }
      ],
      "name": "onERC1155Received",
      "outputs": [
        {
          "internalType": "bytes4",
          "name": "",
          "type": "bytes4"
        }
      ],
      "stateMutability": "nonpayable",
      "type": "function"
    },
    {
      "inputs": [],
      "name": "owner",
      "outputs": [
        {
          "internalType": "address",
          "name": "",
          "type": "address"
        }
      ],
      "stateMutability": "view",
      "type": "function"
    },
    {
      "inputs": [
        {
          "internalType": "uint256",
          "name": "",
          "type": "uint256"
        }
      ],
      "name": "properties",
      "outputs": [
        {
          "internalType": "string",
          "name": "location",
          "type": "string"
        },
        {
          "internalType": "string",
          "name": "city",
          "type": "string"
        },
        {
          "internalType": "uint256",
          "name": "totalArea",
          "type": "uint256"
        },
        {
          "internalType": "string",
          "name": "areaUnit",
          "type": "string"
        },
        {
          "internalType": "uint256",
          "name": "totalFractions",
          "type": "uint256"
        },
        {
          "internalType": "uint256",
          "name": "pricePerFraction",
          "type": "uint256"
        },
        {
          "internalType": "uint256",
          "name": "createdAt",
          "type": "uint256"
        },
        {
          "internalType": "address payable",
          "name": "originalOwner",
          "type": "address"
        },
        {
          "internalType": "string",
          "name": "ipfsMetadata",
          "type": "string"
        },
        {
          "internalType": "bool",
          "name": "isVerified",
          "type": "bool"
        }
      ],
      "stateMutability": "view",
      "type": "function"
    },
    {
      "inputs": [
        {
          "internalType": "uint256",
          "name": "propertyId",
          "type": "uint256"
        },
        {
          "internalType": "uint256",
          "name": "amount",
          "type": "uint256"
        }
      ],
      "name": "purchaseFractions",
      "outputs": [],
      "stateMutability": "payable",
      "type": "function"
    },
    {
      "inputs": [],
      "name": "renounceOwnership",
      "outputs": [],
      "stateMutability": "nonpayable",
      "type": "function"
    },
    {
      "inputs": [
        {
          "internalType": "uint256",
          "name": "",
          "type": "uint256"
        }
      ],
      "name": "rentPool",
      "outputs": [
        {
          "internalType": "uint256",
          "name": "",
          "type": "uint256"
        }
      ],
      "stateMutability": "view",
      "type": "function"
    },
    {
      "inputs": [
        {
          "internalType": "address",
          "name": "from",
          "type": "address"
        },
        {
          "internalType": "address",
          "name": "to",
          "type": "address"
        },
        {
          "internalType": "uint256[]",
          "name": "ids",
          "type": "uint256[]"
        },
        {
          "internalType": "uint256[]",
          "name": "values",
          "type": "uint256[]"
        },
        {
          "internalType": "bytes",
          "name": "data",
          "type": "bytes"
        }
      ],
      "name": "safeBatchTransferFrom",
      "outputs": [],
      "stateMutability": "nonpayable",
      "type": "function"
    },
    {
      "inputs": [
        {
          "internalType": "address",
          "name": "from",
          "type": "address"
        },
        {
          "internalType": "address",
          "name": "to",
          "type": "address"
        },
        {
          "internalType": "uint256",
          "name": "id",
          "type": "uint256"
        },
        {
          "internalType": "uint256",
          "name": "value",
          "type": "uint256"
        },
        {
          "internalType": "bytes",
          "name": "data",
          "type": "bytes"
        }
      ],
      "name": "safeTransferFrom",
      "outputs": [],
      "stateMutability": "nonpayable",
      "type": "function"
    },
    {
      "inputs": [
        {
          "internalType": "address",
          "name": "operator",
          "type": "address"
        },
        {
          "internalType": "bool",
          "name": "approved",
          "type": "bool"
        }
      ],
      "name": "setApprovalForAll",
      "outputs": [],
      "stateMutability": "nonpayable",
      "type": "function"
    },
    {
      "inputs": [
        {
          "internalType": "string",
          "name": "newuri",
          "type": "string"
        }
      ],
      "name": "setURI",
      "outputs": [],
      "stateMutability": "nonpayable",
      "type": "function"
    },
    {
      "inputs": [
        {
          "internalType": "bytes4",
          "name": "interfaceId",
          "type": "bytes4"
        }
      ],
      "name": "supportsInterface",
      "outputs": [
        {
          "internalType": "bool",
          "name": "",
          "type": "bool"
        }
      ],
      "stateMutability": "view",
      "type": "function"
    },
    {
      "inputs": [
        {
          "internalType": "address",
          "name": "newOwner",
          "type": "address"
        }
      ],
      "name": "transferOwnership",
      "outputs": [],
      "stateMutability": "nonpayable",
      "type": "function"
    },
    {
      "inputs": [
        {
          "internalType": "uint256",
          "name": "",
          "type": "uint256"
        }
      ],
      "name": "uri",
      "outputs": [
        {
          "internalType": "string",
          "name": "",
          "type": "string"
        }
      ],
      "stateMutability": "view",
      "type": "function"
    },
    {
      "inputs": [
        {
          "internalType": "uint256",
          "name": "propertyId",
          "type": "uint256"
        }
      ],
      "name": "verifyProperty",
      "outputs": [],
      "stateMutability": "nonpayable",
      "type": "function"
    }
  ],
  "bytecode": "0x60806040523480156200001157600080fd5b5060408051808201909152601e81527f68747470733a2f2f697066732e696f2f697066732f7b69647d2e6a736f6e00006020820152339062000053816200009a565b506001600160a01b0381166200008357604051631e4fbdf760e01b81526000600482015260240160405180910390fd5b6200008e81620000ac565b5060016004556200026f565b6002620000a88282620001a3565b5050565b600380546001600160a01b038381166001600160a01b0319831681179093556040519116919082907f8be0079c531659141344cd1fd0a4f28419497f9722a3daafe3b4186f6b6457e090600090a35050565b634e487b7160e01b600052604160045260246000fd5b600181811c908216806200012957607f821691505b6020821081036200014a57634e487b7160e01b600052602260045260246000fd5b50919050565b601f8211156200019e57600081815260208120601f850160051c81016020861015620001795750805b601f850160051c820191505b818110156200019a5782815560010162000185565b5050505b505050565b81516001600160401b03811115620001bf57620001bf620000fe565b620001d781620001d0845462000114565b8462000150565b602080601f8311600181146200020f5760008415620001f65750858301515b600019600386901b1c1916600185901b1785556200019a565b600085815260208120601f198616915b8281101562000240578886015182559484019460019091019084016200021f565b50858210156200025f5787850151600019600388901b60f8161c191681555b5050505050600190811b01905550565b6131c6806200027f6000396000f3fe6080604052600436106101655760003560e01c8063715018a6116100d1578063b8cdbc591161008a578063f23a6e6111610064578063f23a6e6114610478578063f242432a146104a4578063f2fde38b146104c4578063f7b10808146104e457600080fd5b8063b8cdbc59146103f3578063bc197c8114610413578063e985e9c51461045857600080fd5b8063715018a61461032b578063790112cf146103405780638da5cb5b14610360578063902f74b714610388578063a22cb465146103c0578063ac37a58d146103e057600080fd5b806323c9b8c41161012357806323c9b8c41461025e5780632eb2c2d61461027e57806332665ffb1461029e5780633c29ce32146102cb5780634212a8ae146102de5780634e1273f4146102fe57600080fd5b8062fdd58e1461016a57806301b4884b1461019d57806301ffc9a7146101ca57806302fe5305146101fa5780630e89341c1461021c57806317aaf5ed14610249575b600080fd5b34801561017657600080fd5b5061018a6101853660046126ef565b61051a565b6040519081526020015b60405180910390f35b3480156101a957600080fd5b5061018a6101b8366004612719565b60076020526000908152604090205481565b3480156101d657600080fd5b506101ea6101e5366004612748565b610542565b6040519015158152602001610194565b34801561020657600080fd5b5061021a610215366004612823565b61054d565b005b34801561022857600080fd5b5061023c610237366004612719565b610561565b60405161019491906128a6565b34801561025557600080fd5b5060055461018a565b34801561026a57600080fd5b5061021a610279366004612719565b6105f5565b34801561028a57600080fd5b5061021a610299366004612948565b610aae565b3480156102aa57600080fd5b506102be6102b9366004612719565b610b15565b60405161019491906129f2565b61021a6102d9366004612719565b610e5c565b3480156102ea57600080fd5b5061021a6102f9366004612719565b610f4a565b34801561030a57600080fd5b5061031e610319366004612ad2565b61101c565b6040516101949190612bcd565b34801561033757600080fd5b5061021a6110f1565b34801561034c57600080fd5b5061018a61035b366004612be0565b611105565b34801561036c57600080fd5b506003546040516001600160a01b039091168152602001610194565b34801561039457600080fd5b5061018a6103a3366004612caa565b600860209081526000928352604080842090915290825290205481565b3480156103cc57600080fd5b5061021a6103db366004612cd6565b61138b565b61021a6103ee366004612d12565b61139a565b3480156103ff57600080fd5b5061018a61040e366004612caa565b6118b6565b34801561041f57600080fd5b5061043f61042e366004612948565b63bc197c8160e01b95945050505050565b6040516001600160e01b03199091168152602001610194565b34801561046457600080fd5b506101ea610473366004612d34565b611bff565b34801561048457600080fd5b5061043f610493366004612d5e565b63f23a6e6160e01b95945050505050565b3480156104b057600080fd5b5061021a6104bf366004612d5e565b611c2d565b3480156104d057600080fd5b5061021a6104df366004612dc3565b611c8c565b3480156104f057600080fd5b506105046104ff366004612719565b611cc7565b6040516101949a99989796959493929190612dde565b6000818152602081815260408083206001600160a01b03861684529091529020545b92915050565b600061053c82611f44565b610555611f69565b61055e81611f96565b50565b60606002805461057090612e74565b80601f016020809104026020016040519081016040528092919081815260200182805461059c90612e74565b80156105e95780601f106105be576101008083540402835291602001916105e9565b820191906000526020600020905b8154815290600101906020018083116105cc57829003601f168201915b50505050509050919050565b6105fd611fa2565b6000818152600660205260408082208151610140810190925280548290829061062590612e74565b80601f016020809104026020016040519081016040528092919081815260200182805461065190612e74565b801561069e5780601f106106735761010080835404028352916020019161069e565b820191906000526020600020905b81548152906001019060200180831161068157829003601f168201915b505050505081526020016001820180546106b790612e74565b80601f01602080910402602001604051908101604052809291908181526020018280546106e390612e74565b80156107305780601f1061070557610100808354040283529160200191610730565b820191906000526020600020905b81548152906001019060200180831161071357829003601f168201915b505050505081526020016002820154815260200160038201805461075390612e74565b80601f016020809104026020016040519081016040528092919081815260200182805461077f90612e74565b80156107cc5780601f106107a1576101008083540402835291602001916107cc565b820191906000526020600020905b8154815290600101906020018083116107af57829003601f168201915b505050918352505060048201546020820152600582015460408201526006820154606082015260078201546001600160a01b0316608082015260088201805460a09092019161081a90612e74565b80601f016020809104026020016040519081016040528092919081815260200182805461084690612e74565b80156108935780601f1061086857610100808354040283529160200191610893565b820191906000526020600020905b81548152906001019060200180831161087657829003601f168201915b50505091835250506009919091015460ff16151560209091015260c08101519091506108da5760405162461bcd60e51b81526004016108d190612eae565b60405180910390fd5b60006108e6338461051a565b90506000811161092d5760405162461bcd60e51b8152602060048201526012602482015271139bc8199c9858dd1a5bdb9cc81bdddb995960721b60448201526064016108d1565b6000838152600760205260409020548061097d5760405162461bcd60e51b81526020600482015260116024820152704e6f2072656e7420617661696c61626c6560781b60448201526064016108d1565b608083015160009061098f8484612efb565b6109999190612f12565b6000868152600860209081526040808320338452909152812054919250906109c19083612f34565b905060008111610a075760405162461bcd60e51b8152602060048201526011602482015270139bc81d5b98db185a5b5959081c995b9d607a1b60448201526064016108d1565b600086815260086020908152604080832033845290915281208054839290610a30908490612f47565b9091555050604051339082156108fc029083906000818181858888f19350505050158015610a62573d6000803e3d6000fd5b5060408051828152426020820152339188917fe6c895c94245554dc0af3b57ec3c991fcde7d8d4365025960bcbf906bd624dc6910160405180910390a3505050505061055e6001600455565b336001600160a01b0386168114801590610acf5750610acd8682611bff565b155b15610b005760405163711bec9160e11b81526001600160a01b038083166004830152871660248201526044016108d1565b610b0d8686868686611fcc565b505050505050565b610b766040518061014001604052806060815260200160608152602001600081526020016060815260200160008152602001600081526020016000815260200160006001600160a01b03168152602001606081526020016000151581525090565b60008281526006602081905260409091200154610ba55760405162461bcd60e51b81526004016108d190612eae565b6000828152600660205260409081902081516101408101909252805482908290610bce90612e74565b80601f0160208091040260200160405190810160405280929190818152602001828054610bfa90612e74565b8015610c475780601f10610c1c57610100808354040283529160200191610c47565b820191906000526020600020905b815481529060010190602001808311610c2a57829003601f168201915b50505050508152602001600182018054610c6090612e74565b80601f0160208091040260200160405190810160405280929190818152602001828054610c8c90612e74565b8015610cd95780601f10610cae57610100808354040283529160200191610cd9565b820191906000526020600020905b815481529060010190602001808311610cbc57829003601f168201915b5050505050815260200160028201548152602001600382018054610cfc90612e74565b80601f0160208091040260200160405190810160405280929190818152602001828054610d2890612e74565b8015610d755780601f10610d4a57610100808354040283529160200191610d75565b820191906000526020600020905b815481529060010190602001808311610d5857829003601f168201915b505050918352505060048201546020820152600582015460408201526006820154606082015260078201546001600160a01b0316608082015260088201805460a090920191610dc390612e74565b80601f0160208091040260200160405190810160405280929190818152602001828054610def90612e74565b8015610e3c5780601f10610e1157610100808354040283529160200191610e3c565b820191906000526020600020905b815481529060010190602001808311610e1f57829003601f168201915b50505091835250506009919091015460ff16151560209091015292915050565b610e64611fa2565b60008181526006602081905260409091200154610e935760405162461bcd60e51b81526004016108d190612eae565b60003411610ee35760405162461bcd60e51b815260206004820152601760248201527f52656e7420616d6f756e74206d757374206265203e203000000000000000000060448201526064016108d1565b60008181526007602052604081208054349290610f01908490612f47565b90915550506040805134815242602082015282917f4b3d2fa7c486d847aaa08248b93b26c3398f7b94f1bf39a149406adad04a3f23910160405180910390a261055e6001600455565b610f52611f69565b60008181526006602081905260409091200154610f815760405162461bcd60e51b81526004016108d190612eae565b60008181526006602052604090206009015460ff1615610fd65760405162461bcd60e51b815260206004820152601060248201526f105b1c9958591e481d995c9a599a595960821b60448201526064016108d1565b600081815260066020526040808220600901805460ff191660011790555182917f251541517e7fdfbb2cb6b8c70a4fdaa5055dd01495174bcb394e5c6934ae634191a250565b6060815183511461104d5781518351604051635b05999160e01b8152600481019290925260248201526044016108d1565b6000835167ffffffffffffffff8111156110695761106961276c565b604051908082528060200260200182016040528015611092578160200160208202803683370190505b50905060005b84518110156110e9576020808202860101516110bc9060208084028701015161051a565b8282815181106110ce576110ce612f5a565b60209081029190910101526110e281612f70565b9050611098565b509392505050565b6110f9611f69565b6111036000612033565b565b600061110f611fa2565b600084116111575760405162461bcd60e51b815260206004820152601560248201527404672616374696f6e73206d757374206265203e203605c1b60448201526064016108d1565b6000861161119a5760405162461bcd60e51b815260206004820152601060248201526f041726561206d757374206265203e20360841b60448201526064016108d1565b600083116111de5760405162461bcd60e51b815260206004820152601160248201527005072696365206d757374206265203e203607c1b60448201526064016108d1565b6001600560008282546111f19190612f47565b909155505060055460408051610140810182528a815260208082018b90528183018a9052606082018990526080820188905260a082018790524260c08301523360e0830152610100820186905260006101208301819052848152600690915291909120815181906112629082612fd4565b50602082015160018201906112779082612fd4565b5060408201516002820155606082015160038201906112969082612fd4565b506080820151600482015560a0820151600582015560c0820151600682015560e08201516007820180546001600160a01b0319166001600160a01b0390921691909117905561010082015160088201906112f09082612fd4565b506101208201518160090160006101000a81548160ff02191690831515021790555090505061133030828760405180602001604052806000815250612085565b336001600160a01b0316817f7e266b5ab9ee4f65e7b605b0f776473424c32492b210d3ea4cbf98855608923a878c60405161136c929190613094565b60405180910390a390506113806001600455565b979650505050505050565b6113963383836120e2565b5050565b6113a2611fa2565b600082815260066020526040808220815161014081019092528054829082906113ca90612e74565b80601f01602080910402602001604051908101604052809291908181526020018280546113f690612e74565b80156114435780601f1061141857610100808354040283529160200191611443565b820191906000526020600020905b81548152906001019060200180831161142657829003601f168201915b5050505050815260200160018201805461145c90612e74565b80601f016020809104026020016040519081016040528092919081815260200182805461148890612e74565b80156114d55780601f106114aa576101008083540402835291602001916114d5565b820191906000526020600020905b8154815290600101906020018083116114b857829003601f168201915b50505050508152602001600282015481526020016003820180546114f890612e74565b80601f016020809104026020016040519081016040528092919081815260200182805461152490612e74565b80156115715780601f1061154657610100808354040283529160200191611571565b820191906000526020600020905b81548152906001019060200180831161155457829003601f168201915b505050918352505060048201546020820152600582015460408201526006820154606082015260078201546001600160a01b0316608082015260088201805460a0909201916115bf90612e74565b80601f01602080910402602001604051908101604052809291908181526020018280546115eb90612e74565b80156116385780601f1061160d57610100808354040283529160200191611638565b820191906000526020600020905b81548152906001019060200180831161161b57829003601f168201915b50505091835250506009919091015460ff16151560209091015260c08101519091506116765760405162461bcd60e51b81526004016108d190612eae565b600082116116bb5760405162461bcd60e51b81526020600482015260126024820152710416d6f756e74206d757374206265203e20360741b60448201526064016108d1565b816116c6308561051a565b10156117145760405162461bcd60e51b815260206004820152601e60248201527f4e6f7420656e6f756768206672616374696f6e7320617661696c61626c65000060448201526064016108d1565b6000828260a001516117269190612efb565b90508034101561176f5760405162461bcd60e51b8152602060048201526014602482015273125b9cdd59999a58da595b9d081c185e5b595b9d60621b60448201526064016108d1565b61178b3033868660405180602001604052806000815250612178565b60008260e001516001600160a01b03168260405160006040518083038185875af1925050503d80600081146117dc576040519150601f19603f3d011682016040523d82523d6000602084013e6117e1565b606091505b50509050806118325760405162461bcd60e51b815260206004820152601960248201527f5472616e7366657220746f2073656c6c6572206661696c65640000000000000060448201526064016108d1565b8134111561187257336108fc6118488434612f34565b6040518115909202916000818181858888f19350505050158015611870573d6000803e3d6000fd5b505b604051848152339086907f391e04cf2ba8f29888f266b30b26a0c723c4d51f4e59a766d49bc1652a8b5f889060200160405180910390a35050506113966001600455565b60008281526006602052604080822081516101408101909252805483929190829082906118e290612e74565b80601f016020809104026020016040519081016040528092919081815260200182805461190e90612e74565b801561195b5780601f106119305761010080835404028352916020019161195b565b820191906000526020600020905b81548152906001019060200180831161193e57829003601f168201915b5050505050815260200160018201805461197490612e74565b80601f01602080910402602001604051908101604052809291908181526020018280546119a090612e74565b80156119ed5780601f106119c2576101008083540402835291602001916119ed565b820191906000526020600020905b8154815290600101906020018083116119d057829003601f168201915b5050505050815260200160028201548152602001600382018054611a1090612e74565b80601f0160208091040260200160405190810160405280929190818152602001828054611a3c90612e74565b8015611a895780601f10611a5e57610100808354040283529160200191611a89565b820191906000526020600020905b815481529060010190602001808311611a6c57829003601f168201915b505050918352505060048201546020820152600582015460408201526006820154606082015260078201546001600160a01b0316608082015260088201805460a090920191611ad790612e74565b80601f0160208091040260200160405190810160405280929190818152602001828054611b0390612e74565b8015611b505780601f10611b2557610100808354040283529160200191611b50565b820191906000526020600020905b815481529060010190602001808311611b3357829003601f168201915b50505091835250506009919091015460ff16151560209091015260c0810151909150600003611b8357600091505061053c565b6000611b8f848661051a565b905080600003611ba45760009250505061053c565b6000858152600760205260408120546080840151909190611bc58484612efb565b611bcf9190612f12565b60008881526008602090815260408083206001600160a01b038b1684529091529020549091506113809082612f34565b6001600160a01b03918216600090815260016020908152604080832093909416825291909152205460ff1690565b336001600160a01b0386168114801590611c4e5750611c4c8682611bff565b155b15611c7f5760405163711bec9160e11b81526001600160a01b038083166004830152871660248201526044016108d1565b610b0d8686868686612178565b611c94611f69565b6001600160a01b038116611cbe57604051631e4fbdf760e01b8152600060048201526024016108d1565b61055e81612033565b600660205260009081526040902080548190611ce290612e74565b80601f0160208091040260200160405190810160405280929190818152602001828054611d0e90612e74565b8015611d5b5780601f10611d3057610100808354040283529160200191611d5b565b820191906000526020600020905b815481529060010190602001808311611d3e57829003601f168201915b505050505090806001018054611d7090612e74565b80601f0160208091040260200160405190810160405280929190818152602001828054611d9c90612e74565b8015611de95780601f10611dbe57610100808354040283529160200191611de9565b820191906000526020600020905b815481529060010190602001808311611dcc57829003601f168201915b505050505090806002015490806003018054611e0490612e74565b80601f0160208091040260200160405190810160405280929190818152602001828054611e3090612e74565b8015611e7d5780601f10611e5257610100808354040283529160200191611e7d565b820191906000526020600020905b815481529060010190602001808311611e6057829003601f168201915b5050506004840154600585015460068601546007870154600888018054979894979396509194506001600160a01b03169291611eb890612e74565b80601f0160208091040260200160405190810160405280929190818152602001828054611ee490612e74565b8015611f315780601f10611f0657610100808354040283529160200191611f31565b820191906000526020600020905b815481529060010190602001808311611f1457829003601f168201915b5050506009909301549192505060ff168a565b60006001600160e01b03198216630271189760e51b148061053c575061053c82612206565b6003546001600160a01b031633146111035760405163118cdaa760e01b81523360048201526024016108d1565b60026113968282612fd4565b600260045403611fc557604051633ee5aeb560e01b815260040160405180910390fd5b6002600455565b6001600160a01b038416611ff657604051632bfa23e760e11b8152600060048201526024016108d1565b6001600160a01b03851661201f57604051626a0d4560e21b8152600060048201526024016108d1565b61202c8585858585612256565b5050505050565b600380546001600160a01b038381166001600160a01b0319831681179093556040519116919082907f8be0079c531659141344cd1fd0a4f28419497f9722a3daafe3b4186f6b6457e090600090a35050565b6001600160a01b0384166120af57604051632bfa23e760e11b8152600060048201526024016108d1565b60408051600180825260208201869052818301908152606082018590526080820190925290610b0d600087848487612256565b6001600160a01b03821661210b5760405162ced3e160e81b8152600060048201526024016108d1565b6001600160a01b03838116600081815260016020908152604080832094871680845294825291829020805460ff191686151590811790915591519182527f17307eab39ab6107e8899845ad3d59bd9653f200f220920489ca2b5937696c31910160405180910390a3505050565b6001600160a01b0384166121a257604051632bfa23e760e11b8152600060048201526024016108d1565b6001600160a01b0385166121cb57604051626a0d4560e21b8152600060048201526024016108d1565b604080516001808252602082018690528183019081526060820185905260808201909252906121fd8787848487612256565b50505050505050565b60006001600160e01b03198216636cdb3d1360e11b148061223757506001600160e01b031982166303a24d0760e21b145b8061053c57506301ffc9a760e01b6001600160e01b031983161461053c565b612262858585856122a9565b6001600160a01b0384161561202c578251339060010361229b57602084810151908401516122948389898585896124c6565b5050610b0d565b610b0d8187878787876125ea565b80518251146122d85781518151604051635b05999160e01b8152600481019290925260248201526044016108d1565b3360005b83518110156123e7576020818102858101820151908501909101516001600160a01b0388161561238f576000828152602081815260408083206001600160a01b038c16845290915290205481811015612368576040516303dee4c560e01b81526001600160a01b038a1660048201526024810182905260448101839052606481018490526084016108d1565b6000838152602081815260408083206001600160a01b038d16845290915290209082900390555b6001600160a01b038716156123d4576000828152602081815260408083206001600160a01b038b168452909152812080548392906123ce908490612f47565b90915550505b5050806123e090612f70565b90506122dc565b5082516001036124685760208301516000906020840151909150856001600160a01b0316876001600160a01b0316846001600160a01b03167fc3d58168c5ae7397731d063d5bbf3d657854427343f4c083240f7aacaa2d0f628585604051612459929190918252602082015260400190565b60405180910390a4505061202c565b836001600160a01b0316856001600160a01b0316826001600160a01b03167f4a39dc06d4c0dbc64b70af90fd698a233a518aa5d07e595d983b8c0526c8f7fb86866040516124b79291906130ad565b60405180910390a45050505050565b6001600160a01b0384163b15610b0d5760405163f23a6e6160e01b81526001600160a01b0385169063f23a6e619061250a90899089908890889088906004016130db565b6020604051808303816000875af1925050508015612545575060408051601f3d908101601f1916820190925261254291810190613115565b60015b6125ae573d808015612573576040519150601f19603f3d011682016040523d82523d6000602084013e612578565b606091505b5080516000036125a657604051632bfa23e760e11b81526001600160a01b03861660048201526024016108d1565b805160208201fd5b6001600160e01b0319811663f23a6e6160e01b146121fd57604051632bfa23e760e11b81526001600160a01b03861660048201526024016108d1565b6001600160a01b0384163b15610b0d5760405163bc197c8160e01b81526001600160a01b0385169063bc197c819061262e9089908990889088908890600401613132565b6020604051808303816000875af1925050508015612669575060408051601f3d908101601f1916820190925261266691810190613115565b60015b612697573d808015612573576040519150601f19603f3d011682016040523d82523d6000602084013e612578565b6001600160e01b0319811663bc197c8160e01b146121fd57604051632bfa23e760e11b81526001600160a01b03861660048201526024016108d1565b80356001600160a01b03811681146126ea57600080fd5b919050565b6000806040838503121561270257600080fd5b61270b836126d3565b946020939093013593505050565b60006020828403121561272b57600080fd5b5035919050565b6001600160e01b03198116811461055e57600080fd5b60006020828403121561275a57600080fd5b813561276581612732565b9392505050565b634e487b7160e01b600052604160045260246000fd5b604051601f8201601f1916810167ffffffffffffffff811182821017156127ab576127ab61276c565b604052919050565b600082601f8301126127c457600080fd5b813567ffffffffffffffff8111156127de576127de61276c565b6127f1601f8201601f1916602001612782565b81815284602083860101111561280657600080fd5b816020850160208301376000918101602001919091529392505050565b60006020828403121561283557600080fd5b813567ffffffffffffffff81111561284c57600080fd5b612858848285016127b3565b949350505050565b6000815180845260005b818110156128865760208185018101518683018201520161286a565b506000602082860101526020601f19601f83011685010191505092915050565b6020815260006127656020830184612860565b600067ffffffffffffffff8211156128d3576128d361276c565b5060051b60200190565b600082601f8301126128ee57600080fd5b813560206129036128fe836128b9565b612782565b82815260059290921b8401810191818101908684111561292257600080fd5b8286015b8481101561293d5780358352918301918301612926565b509695505050505050565b600080600080600060a0868803121561296057600080fd5b612969866126d3565b9450612977602087016126d3565b9350604086013567ffffffffffffffff8082111561299457600080fd5b6129a089838a016128dd565b945060608801359150808211156129b657600080fd5b6129c289838a016128dd565b935060808801359150808211156129d857600080fd5b506129e5888289016127b3565b9150509295509295909350565b6020815260008251610140806020850152612a11610160850183612860565b91506020850151601f1980868503016040870152612a2f8483612860565b9350604087015160608701526060870151915080868503016080870152612a568483612860565b9350608087015160a087015260a087015160c087015260c087015160e087015260e08701519150610100612a94818801846001600160a01b03169052565b80880151925050610120818786030181880152612ab18584612860565b94508088015192505050612ac88286018215159052565b5090949350505050565b60008060408385031215612ae557600080fd5b823567ffffffffffffffff80821115612afd57600080fd5b818501915085601f830112612b1157600080fd5b81356020612b216128fe836128b9565b82815260059290921b84018101918181019089841115612b4057600080fd5b948201945b83861015612b6557612b56866126d3565b82529482019490820190612b45565b96505086013592505080821115612b7b57600080fd5b50612b88858286016128dd565b9150509250929050565b600081518084526020808501945080840160005b83811015612bc257815187529582019590820190600101612ba6565b509495945050505050565b6020815260006127656020830184612b92565b600080600080600080600060e0888a031215612bfb57600080fd5b873567ffffffffffffffff80821115612c1357600080fd5b612c1f8b838c016127b3565b985060208a0135915080821115612c3557600080fd5b612c418b838c016127b3565b975060408a0135965060608a0135915080821115612c5e57600080fd5b612c6a8b838c016127b3565b955060808a0135945060a08a0135935060c08a0135915080821115612c8e57600080fd5b50612c9b8a828b016127b3565b91505092959891949750929550565b60008060408385031215612cbd57600080fd5b82359150612ccd602084016126d3565b90509250929050565b60008060408385031215612ce957600080fd5b612cf2836126d3565b915060208301358015158114612d0757600080fd5b809150509250929050565b60008060408385031215612d2557600080fd5b50508035926020909101359150565b60008060408385031215612d4757600080fd5b612d50836126d3565b9150612ccd602084016126d3565b600080600080600060a08688031215612d7657600080fd5b612d7f866126d3565b9450612d8d602087016126d3565b93506040860135925060608601359150608086013567ffffffffffffffff811115612db757600080fd5b6129e5888289016127b3565b600060208284031215612dd557600080fd5b612765826126d3565b6000610140808352612df28184018e612860565b90508281036020840152612e06818d612860565b90508a60408401528281036060840152612e20818b612860565b608084018a905260a0840189905260c084018890526001600160a01b03871660e08501528381036101008501529050612e598186612860565b9150508215156101208301529b9a5050505050505050505050565b600181811c90821680612e8857607f821691505b602082108103612ea857634e487b7160e01b600052602260045260246000fd5b50919050565b60208082526017908201527f50726f706572747920646f6573206e6f74206578697374000000000000000000604082015260600190565b634e487b7160e01b600052601160045260246000fd5b808202811582820484141761053c5761053c612ee5565b600082612f2f57634e487b7160e01b600052601260045260246000fd5b500490565b8181038181111561053c5761053c612ee5565b8082018082111561053c5761053c612ee5565b634e487b7160e01b600052603260045260246000fd5b600060018201612f8257612f82612ee5565b5060010190565b601f821115612fcf57600081815260208120601f850160051c81016020861015612fb05750805b601f850160051c820191505b81811015610b0d57828155600101612fbc565b505050565b815167ffffffffffffffff811115612fee57612fee61276c565b61300281612ffc8454612e74565b84612f89565b602080601f831160018114613037576000841561301f5750858301515b600019600386901b1c1916600185901b178555610b0d565b600085815260208120601f198616915b8281101561306657888601518255948401946001909101908401613047565b50858210156130845787850151600019600388901b60f8161c191681555b5050505050600190811b01905550565b8281526040602082015260006128586040830184612860565b6040815260006130c06040830185612b92565b82810360208401526130d28185612b92565b95945050505050565b6001600160a01b03868116825285166020820152604081018490526060810183905260a06080820181905260009061138090830184612860565b60006020828403121561312757600080fd5b815161276581612732565b6001600160a01b0386811682528516602082015260a06040820181905260009061315e90830186612b92565b82810360608401526131708186612b92565b905082810360808401526131848185612860565b9897505050505050505056fea26469706673582212207a3ae037e921afc8034707e3ead5038e14a868c425111fe106f0e3d1b31d3cc564736f6c63430008140033",
  "linkReferences": {},
  "deployedLinkReferences": {}
}