{
  "_format": "hh-sol-artifact-1",
  "contractName": "LandFractionalNFT",
  "sourceName": "contracts/LandFractionalNFT.sol",
  "abi": [
    {
      "inputs": [],
      "stateMutability": "nonpayable",
      "type": "constructor"
    },
    {
      "inputs": [
        {
          "internalType": "address",
          "name": "sender",
          "type": "address"
        },
        {
          "internalType": "uint256",
          "name": "balance",
          "type": "uint256"
        },
        {
          "internalType": "uint256",
          "name": "needed",
          "type": "uint256"
        },
        {
          "internalType": "uint256",
          "name": "tokenId",
          "type": "uint256"
        }
      ],
      "name": "ERC1155InsufficientBalance",
      "type": "error"
    },
    {
      "inputs": [
        {
          "internalType": "address",
          "name": "approver",
          "type": "address"
        }
      ],
      "name": "ERC1155InvalidApprover",
      "type": "error"
    },
    {
      "inputs": [
        {
          "internalType": "uint256",
          "name": "idsLength",
          "type": "uint256"
        },
        {
          "internalType": "uint256",
          "name": "valuesLength",
          "type": "uint256"
        }
      ],
      "name": "ERC1155InvalidArrayLength",
      "type": "error"
    },
    {
      "inputs": [
        {
          "internalType": "address",
          "name": "operator",
          "type": "address"
        }
      ],
      "name": "ERC1155InvalidOperator",
      "type": "error"
    },
    {
      "inputs": [
        {
          "internalType": "address",
          "name": "receiver",
          "type": "address"
        }
      ],
      "name": "ERC1155InvalidReceiver",
      "type": "error"
    },
    {
      "inputs": [
        {
          "internalType": "address",
          "name": "sender",
          "type": "address"
        }
      ],
      "name": "ERC1155InvalidSender",
      "type": "error"
    },
    {
      "inputs": [
        {
          "internalType": "address",
          "name": "operator",
          "type": "address"
        },
        {
          "internalType": "address",
          "name": "owner",
          "type": "address"
        }
      ],
      "name": "ERC1155MissingApprovalForAll",
      "type": "error"
    },
    {
      "inputs": [
        {
          "internalType": "address",
          "name": "owner",
          "type": "address"
        }
      ],
      "name": "OwnableInvalidOwner",
      "type": "error"
    },
    {
      "inputs": [
        {
          "internalType": "address",
          "name": "account",
          "type": "address"
        }
      ],
      "name": "OwnableUnauthorizedAccount",
      "type": "error"
    },
    {
      "inputs": [],
      "name": "ReentrancyGuardReentrantCall",
      "type": "error"
    },
    {
      "anonymous": false,
      "inputs": [
        {
          "indexed": true,
          "internalType": "address",
          "name": "account",
          "type": "address"
        },
        {
          "indexed": true,
          "internalType": "address",
          "name": "operator",
          "type": "address"
        },
        {
          "indexed": false,
          "internalType": "bool",
          "name": "approved",
          "type": "bool"
        }
      ],
      "name": "ApprovalForAll",
      "type": "event"
    },
    {
      "anonymous": false,
      "inputs": [
        {
          "indexed": true,
          "internalType": "uint256",
          "name": "propertyId",
          "type": "uint256"
        },
        {
          "indexed": true,
          "internalType": "address",
          "name": "buyer",
          "type": "address"
        },
        {
          "indexed": false,
          "internalType": "uint256",
          "name": "amount",
          "type": "uint256"
        }
      ],
      "name": "FractionPurchased",
      "type": "event"
    },
    {
      "anonymous": false,
      "inputs": [
        {
          "indexed": true,
          "internalType": "address",
          "name": "previousOwner",
          "type": "address"
        },
        {
          "indexed": true,
          "internalType": "address",
          "name": "newOwner",
          "type": "address"
        }
      ],
      "name": "OwnershipTransferred",
      "type": "event"
    },
    {
      "anonymous": false,
      "inputs": [
        {
          "indexed": true,
          "internalType": "uint256",
          "name": "propertyId",
          "type": "uint256"
        },
        {
          "indexed": true,
          "internalType": "address",
          "name": "owner",
          "type": "address"
        },
        {
          "indexed": false,
          "internalType": "uint256",
          "name": "totalFractions",
          "type": "uint256"
        },
        {
          "indexed": false,
          "internalType": "string",
          "name": "location",
          "type": "string"
        }
      ],
      "name": "PropertyCreated",
      "type": "event"
    },
    {
      "anonymous": false,
      "inputs": [
        {
          "indexed": true,
          "internalType": "uint256",
          "name": "propertyId",
          "type": "uint256"
        }
      ],
      "name": "PropertyVerified",
      "type": "event"
    },
    {
      "anonymous": false,
      "inputs": [
        {
          "indexed": true,
          "internalType": "uint256",
          "name": "propertyId",
          "type": "uint256"
        },
        {
          "indexed": true,
          "internalType": "address",
          "name": "claimer",
          "type": "address"
        },
        {
          "indexed": false,
          "internalType": "uint256",
          "name": "amount",
          "type": "uint256"
        }
      ],
      "name": "RentClaimed",
      "type": "event"
    },
    {
      "anonymous": false,
      "inputs": [
        {
          "indexed": true,
          "internalType": "uint256",
          "name": "propertyId",
          "type": "uint256"
        },
        {
          "indexed": false,
          "internalType": "uint256",
          "name": "totalAmount",
          "type": "uint256"
        }
      ],
      "name": "RentDistributed",
      "type": "event"
    },
    {
      "anonymous": false,
      "inputs": [
        {
          "indexed": true,
          "internalType": "address",
          "name": "operator",
          "type": "address"
        },
        {
          "indexed": true,
          "internalType": "address",
          "name": "from",
          "type": "address"
        },
        {
          "indexed": true,
          "internalType": "address",
          "name": "to",
          "type": "address"
        },
        {
          "indexed": false,
          "internalType": "uint256[]",
          "name": "ids",
          "type": "uint256[]"
        },
        {
          "indexed": false,
          "internalType": "uint256[]",
          "name": "values",
          "type": "uint256[]"
        }
      ],
      "name": "TransferBatch",
      "type": "event"
    },
    {
      "anonymous": false,
      "inputs": [
        {
          "indexed": true,
          "internalType": "address",
          "name": "operator",
          "type": "address"
        },
        {
          "indexed": true,
          "internalType": "address",
          "name": "from",
          "type": "address"
        },
        {
          "indexed": true,
          "internalType": "address",
          "name": "to",
          "type": "address"
        },
        {
          "indexed": false,
          "internalType": "uint256",
          "name": "id",
          "type": "uint256"
        },
        {
          "indexed": false,
          "internalType": "uint256",
          "name": "value",
          "type": "uint256"
        }
      ],
      "name": "TransferSingle",
      "type": "event"
    },
    {
      "anonymous": false,
      "inputs": [
        {
          "indexed": false,
          "internalType": "string",
          "name": "value",
          "type": "string"
        },
        {
          "indexed": true,
          "internalType": "uint256",
          "name": "id",
          "type": "uint256"
        }
      ],
      "name": "URI",
      "type": "event"
    },
    {
      "inputs": [
        {
          "internalType": "address",
          "name": "account",
          "type": "address"
        },
        {
          "internalType": "uint256",
          "name": "id",
          "type": "uint256"
        }
      ],
      "name": "balanceOf",
      "outputs": [
        {
          "internalType": "uint256",
          "name": "",
          "type": "uint256"
        }
      ],
      "stateMutability": "view",
      "type": "function"
    },
    {
      "inputs": [
        {
          "internalType": "address[]",
          "name": "accounts",
          "type": "address[]"
        },
        {
          "internalType": "uint256[]",
          "name": "ids",
          "type": "uint256[]"
        }
      ],
      "name": "balanceOfBatch",
      "outputs": [
        {
          "internalType": "uint256[]",
          "name": "",
          "type": "uint256[]"
        }
      ],
      "stateMutability": "view",
      "type": "function"
    },
    {
      "inputs": [
        {
          "internalType": "uint256",
          "name": "propertyId",
          "type": "uint256"
        }
      ],
      "name": "claimRent",
      "outputs": [],
      "stateMutability": "nonpayable",
      "type": "function"
    },
    {
      "inputs": [
        {
          "internalType": "uint256",
          "name": "",
          "type": "uint256"
        },
        {
          "internalType": "address",
          "name": "",
          "type": "address"
        }
      ],
      "name": "claimedRent",
      "outputs": [
        {
          "internalType": "uint256",
          "name": "",
          "type": "uint256"
        }
      ],
      "stateMutability": "view",
      "type": "function"
    },
    {
      "inputs": [
        {
          "internalType": "string",
          "name": "location",
          "type": "string"
        },
        {
          "internalType": "string",
          "name": "city",
          "type": "string"
        },
        {
          "internalType": "uint256",
          "name": "totalArea",
          "type": "uint256"
        },
        {
          "internalType": "string",
          "name": "areaUnit",
          "type": "string"
        },
        {
          "internalType": "uint256",
          "name": "totalFractions",
          "type": "uint256"
        },
        {
          "internalType": "uint256",
          "name": "pricePerFraction",
          "type": "uint256"
        },
        {
          "internalType": "string",
          "name": "ipfsMetadata",
          "type": "string"
        }
      ],
      "name": "createProperty",
      "outputs": [
        {
          "internalType": "uint256",
          "name": "",
          "type": "uint256"
        }
      ],
      "stateMutability": "nonpayable",
      "type": "function"
    },
    {
      "inputs": [
        {
          "internalType": "uint256",
          "name": "propertyId",
          "type": "uint256"
        }
      ],
      "name": "distributeRent",
      "outputs": [],
      "stateMutability": "payable",
      "type": "function"
    },
    {
      "inputs": [
        {
          "internalType": "uint256",
          "name": "propertyId",
          "type": "uint256"
        }
      ],
      "name": "getProperty",
      "outputs": [
        {
          "components": [
            {
              "internalType": "string",
              "name": "location",
              "type": "string"
            },
            {
              "internalType": "string",
              "name": "city",
              "type": "string"
            },
            {
              "internalType": "uint256",
              "name": "totalArea",
              "type": "uint256"
            },
            {
              "internalType": "string",
              "name": "areaUnit",
              "type": "string"
            },
            {
              "internalType": "uint256",
              "name": "totalFractions",
              "type": "uint256"
            },
            {
              "internalType": "uint256",
              "name": "pricePerFraction",
              "type": "uint256"
            },
            {
              "internalType": "uint256",
              "name": "createdAt",
              "type": "uint256"
            },
            {
              "internalType": "address",
              "name": "originalOwner",
              "type": "address"
            },
            {
              "internalType": "string",
              "name": "ipfsMetadata",
              "type": "string"
            },
            {
              "internalType": "bool",
              "name": "isVerified",
              "type": "bool"
            }
          ],
          "internalType": "struct LandFractionalNFT.LandProperty",
          "name": "",
          "type": "tuple"
        }
      ],
      "stateMutability": "view",
      "type": "function"
    },
    {
      "inputs": [],
      "name": "getTotalProperties",
      "outputs": [
        {
          "internalType": "uint256",
          "name": "",
          "type": "uint256"
        }
      ],
      "stateMutability": "view",
      "type": "function"
    },
    {
      "inputs": [
        {
          "internalType": "uint256",
          "name": "propertyId",
          "type": "uint256"
        },
        {
          "internalType": "address",
          "name": "user",
          "type": "address"
        }
      ],
      "name": "getUnclaimedRent",
      "outputs": [
        {
          "internalType": "uint256",
          "name": "",
          "type": "uint256"
        }
      ],
      "stateMutability": "view",
      "type": "function"
    },
    {
      "inputs": [
        {
          "internalType": "address",
          "name": "account",
          "type": "address"
        },
        {
          "internalType": "address",
          "name": "operator",
          "type": "address"
        }
      ],
      "name": "isApprovedForAll",
      "outputs": [
        {
          "internalType": "bool",
          "name": "",
          "type": "bool"
        }
      ],
      "stateMutability": "view",
      "type": "function"
    },
    {
      "inputs": [],
      "name": "owner",
      "outputs": [
        {
          "internalType": "address",
          "name": "",
          "type": "address"
        }
      ],
      "stateMutability": "view",
      "type": "function"
    },
    {
      "inputs": [
        {
          "internalType": "uint256",
          "name": "",
          "type": "uint256"
        }
      ],
      "name": "properties",
      "outputs": [
        {
          "internalType": "string",
          "name": "location",
          "type": "string"
        },
        {
          "internalType": "string",
          "name": "city",
          "type": "string"
        },
        {
          "internalType": "uint256",
          "name": "totalArea",
          "type": "uint256"
        },
        {
          "internalType": "string",
          "name": "areaUnit",
          "type": "string"
        },
        {
          "internalType": "uint256",
          "name": "totalFractions",
          "type": "uint256"
        },
        {
          "internalType": "uint256",
          "name": "pricePerFraction",
          "type": "uint256"
        },
        {
          "internalType": "uint256",
          "name": "createdAt",
          "type": "uint256"
        },
        {
          "internalType": "address",
          "name": "originalOwner",
          "type": "address"
        },
        {
          "internalType": "string",
          "name": "ipfsMetadata",
          "type": "string"
        },
        {
          "internalType": "bool",
          "name": "isVerified",
          "type": "bool"
        }
      ],
      "stateMutability": "view",
      "type": "function"
    },
    {
      "inputs": [
        {
          "internalType": "uint256",
          "name": "propertyId",
          "type": "uint256"
        },
        {
          "internalType": "uint256",
          "name": "amount",
          "type": "uint256"
        }
      ],
      "name": "purchaseFractions",
      "outputs": [],
      "stateMutability": "payable",
      "type": "function"
    },
    {
      "inputs": [],
      "name": "renounceOwnership",
      "outputs": [],
      "stateMutability": "nonpayable",
      "type": "function"
    },
    {
      "inputs": [
        {
          "internalType": "uint256",
          "name": "",
          "type": "uint256"
        }
      ],
      "name": "rentPool",
      "outputs": [
        {
          "internalType": "uint256",
          "name": "",
          "type": "uint256"
        }
      ],
      "stateMutability": "view",
      "type": "function"
    },
    {
      "inputs": [
        {
          "internalType": "address",
          "name": "from",
          "type": "address"
        },
        {
          "internalType": "address",
          "name": "to",
          "type": "address"
        },
        {
          "internalType": "uint256[]",
          "name": "ids",
          "type": "uint256[]"
        },
        {
          "internalType": "uint256[]",
          "name": "values",
          "type": "uint256[]"
        },
        {
          "internalType": "bytes",
          "name": "data",
          "type": "bytes"
        }
      ],
      "name": "safeBatchTransferFrom",
      "outputs": [],
      "stateMutability": "nonpayable",
      "type": "function"
    },
    {
      "inputs": [
        {
          "internalType": "address",
          "name": "from",
          "type": "address"
        },
        {
          "internalType": "address",
          "name": "to",
          "type": "address"
        },
        {
          "internalType": "uint256",
          "name": "id",
          "type": "uint256"
        },
        {
          "internalType": "uint256",
          "name": "value",
          "type": "uint256"
        },
        {
          "internalType": "bytes",
          "name": "data",
          "type": "bytes"
        }
      ],
      "name": "safeTransferFrom",
      "outputs": [],
      "stateMutability": "nonpayable",
      "type": "function"
    },
    {
      "inputs": [
        {
          "internalType": "address",
          "name": "operator",
          "type": "address"
        },
        {
          "internalType": "bool",
          "name": "approved",
          "type": "bool"
        }
      ],
      "name": "setApprovalForAll",
      "outputs": [],
      "stateMutability": "nonpayable",
      "type": "function"
    },
    {
      "inputs": [
        {
          "internalType": "string",
          "name": "newuri",
          "type": "string"
        }
      ],
      "name": "setURI",
      "outputs": [],
      "stateMutability": "nonpayable",
      "type": "function"
    },
    {
      "inputs": [
        {
          "internalType": "bytes4",
          "name": "interfaceId",
          "type": "bytes4"
        }
      ],
      "name": "supportsInterface",
      "outputs": [
        {
          "internalType": "bool",
          "name": "",
          "type": "bool"
        }
      ],
      "stateMutability": "view",
      "type": "function"
    },
    {
      "inputs": [
        {
          "internalType": "address",
          "name": "newOwner",
          "type": "address"
        }
      ],
      "name": "transferOwnership",
      "outputs": [],
      "stateMutability": "nonpayable",
      "type": "function"
    },
    {
      "inputs": [
        {
          "internalType": "uint256",
          "name": "",
          "type": "uint256"
        }
      ],
      "name": "uri",
      "outputs": [
        {
          "internalType": "string",
          "name": "",
          "type": "string"
        }
      ],
      "stateMutability": "view",
      "type": "function"
    },
    {
      "inputs": [
        {
          "internalType": "uint256",
          "name": "propertyId",
          "type": "uint256"
        }
      ],
      "name": "verifyProperty",
      "outputs": [],
      "stateMutability": "nonpayable",
      "type": "function"
    }
  ],
  "bytecode": "0x60806040523480156200001157600080fd5b5060408051808201909152601e81527f68747470733a2f2f697066732e696f2f697066732f7b69647d2e6a736f6e00006020820152339062000053816200009a565b506001600160a01b0381166200008357604051631e4fbdf760e01b81526000600482015260240160405180910390fd5b6200008e81620000ac565b5060016004556200026f565b6002620000a88282620001a3565b5050565b600380546001600160a01b038381166001600160a01b0319831681179093556040519116919082907f8be0079c531659141344cd1fd0a4f28419497f9722a3daafe3b4186f6b6457e090600090a35050565b634e487b7160e01b600052604160045260246000fd5b600181811c908216806200012957607f821691505b6020821081036200014a57634e487b7160e01b600052602260045260246000fd5b50919050565b601f8211156200019e57600081815260208120601f850160051c81016020861015620001795750805b601f850160051c820191505b818110156200019a5782815560010162000185565b5050505b505050565b81516001600160401b03811115620001bf57620001bf620000fe565b620001d781620001d0845462000114565b8462000150565b602080601f8311600181146200020f5760008415620001f65750858301515b600019600386901b1c1916600185901b1785556200019a565b600085815260208120601f198616915b8281101562000240578886015182559484019460019091019084016200021f565b50858210156200025f5787850151600019600388901b60f8161c191681555b5050505050600190811b01905550565b61314c806200027f6000396000f3fe60806040526004361061013f5760003560e01c80634e1273f4116100b6578063ac37a58d1161006f578063ac37a58d146103ba578063b8cdbc59146103cd578063e985e9c5146103ed578063f242432a1461040d578063f2fde38b1461042d578063f7b108081461044d57600080fd5b80634e1273f4146102d8578063715018a614610305578063790112cf1461031a5780638da5cb5b1461033a578063902f74b714610362578063a22cb4651461039a57600080fd5b806317aaf5ed1161010857806317aaf5ed1461022357806323c9b8c4146102385780632eb2c2d61461025857806332665ffb146102785780633c29ce32146102a55780634212a8ae146102b857600080fd5b8062fdd58e1461014457806301b4884b1461017757806301ffc9a7146101a457806302fe5305146101d45780630e89341c146101f6575b600080fd5b34801561015057600080fd5b5061016461015f366004612675565b610483565b6040519081526020015b60405180910390f35b34801561018357600080fd5b5061016461019236600461269f565b60076020526000908152604090205481565b3480156101b057600080fd5b506101c46101bf3660046126ce565b6104ab565b604051901515815260200161016e565b3480156101e057600080fd5b506101f46101ef3660046127a9565b6104fb565b005b34801561020257600080fd5b5061021661021136600461269f565b61050f565b60405161016e919061282c565b34801561022f57600080fd5b50600554610164565b34801561024457600080fd5b506101f461025336600461269f565b6105a3565b34801561026457600080fd5b506101f46102733660046128ce565b610a57565b34801561028457600080fd5b5061029861029336600461269f565b610abe565b60405161016e9190612978565b6101f46102b336600461269f565b610e05565b3480156102c457600080fd5b506101f46102d336600461269f565b610eee565b3480156102e457600080fd5b506102f86102f3366004612a58565b610fc0565b60405161016e9190612b53565b34801561031157600080fd5b506101f4611095565b34801561032657600080fd5b50610164610335366004612b66565b6110a9565b34801561034657600080fd5b506003546040516001600160a01b03909116815260200161016e565b34801561036e57600080fd5b5061016461037d366004612c30565b600860209081526000928352604080842090915290825290205481565b3480156103a657600080fd5b506101f46103b5366004612c5c565b6113c8565b6101f46103c8366004612c98565b6113d7565b3480156103d957600080fd5b506101646103e8366004612c30565b61183e565b3480156103f957600080fd5b506101c4610408366004612cba565b611b92565b34801561041957600080fd5b506101f4610428366004612ce4565b611bc0565b34801561043957600080fd5b506101f4610448366004612d49565b611c1f565b34801561045957600080fd5b5061046d61046836600461269f565b611c5a565b60405161016e9a99989796959493929190612d64565b6000818152602081815260408083206001600160a01b03861684529091529020545b92915050565b60006001600160e01b03198216636cdb3d1360e11b14806104dc57506001600160e01b031982166303a24d0760e21b145b806104a557506301ffc9a760e01b6001600160e01b03198316146104a5565b610503611ed7565b61050c81611f04565b50565b60606002805461051e90612dfa565b80601f016020809104026020016040519081016040528092919081815260200182805461054a90612dfa565b80156105975780601f1061056c57610100808354040283529160200191610597565b820191906000526020600020905b81548152906001019060200180831161057a57829003601f168201915b50505050509050919050565b6105ab611f10565b600081815260066020526040808220815161014081019092528054829082906105d390612dfa565b80601f01602080910402602001604051908101604052809291908181526020018280546105ff90612dfa565b801561064c5780601f106106215761010080835404028352916020019161064c565b820191906000526020600020905b81548152906001019060200180831161062f57829003601f168201915b5050505050815260200160018201805461066590612dfa565b80601f016020809104026020016040519081016040528092919081815260200182805461069190612dfa565b80156106de5780601f106106b3576101008083540402835291602001916106de565b820191906000526020600020905b8154815290600101906020018083116106c157829003601f168201915b505050505081526020016002820154815260200160038201805461070190612dfa565b80601f016020809104026020016040519081016040528092919081815260200182805461072d90612dfa565b801561077a5780601f1061074f5761010080835404028352916020019161077a565b820191906000526020600020905b81548152906001019060200180831161075d57829003601f168201915b505050918352505060048201546020820152600582015460408201526006820154606082015260078201546001600160a01b0316608082015260088201805460a0909201916107c890612dfa565b80601f01602080910402602001604051908101604052809291908181526020018280546107f490612dfa565b80156108415780601f1061081657610100808354040283529160200191610841565b820191906000526020600020905b81548152906001019060200180831161082457829003601f168201915b50505091835250506009919091015460ff16151560209091015260c08101519091506108885760405162461bcd60e51b815260040161087f90612e34565b60405180910390fd5b60006108943384610483565b9050600081116108db5760405162461bcd60e51b8152602060048201526012602482015271139bc8199c9858dd1a5bdb9cc81bdddb995960721b604482015260640161087f565b6000838152600760205260409020548061092b5760405162461bcd60e51b81526020600482015260116024820152704e6f2072656e7420617661696c61626c6560781b604482015260640161087f565b608083015160009061093d8484612e81565b6109479190612e98565b60008681526008602090815260408083203384529091528120549192509061096f9083612eba565b9050600081116109b55760405162461bcd60e51b8152602060048201526011602482015270139bc81d5b98db185a5b5959081c995b9d607a1b604482015260640161087f565b6000868152600860209081526040808320338452909152812080548392906109de908490612ecd565b9091555050604051339082156108fc029083906000818181858888f19350505050158015610a10573d6000803e3d6000fd5b50604051818152339087907f5be9cabf6144ebe8142e4997e2bd7a73203c02a1f0be71b72fed6cb00303272f9060200160405180910390a3505050505061050c6001600455565b336001600160a01b0386168114801590610a785750610a768682611b92565b155b15610aa95760405163711bec9160e11b81526001600160a01b0380831660048301528716602482015260440161087f565b610ab68686868686611f3a565b505050505050565b610b1f6040518061014001604052806060815260200160608152602001600081526020016060815260200160008152602001600081526020016000815260200160006001600160a01b03168152602001606081526020016000151581525090565b60008281526006602081905260409091200154610b4e5760405162461bcd60e51b815260040161087f90612e34565b6000828152600660205260409081902081516101408101909252805482908290610b7790612dfa565b80601f0160208091040260200160405190810160405280929190818152602001828054610ba390612dfa565b8015610bf05780601f10610bc557610100808354040283529160200191610bf0565b820191906000526020600020905b815481529060010190602001808311610bd357829003601f168201915b50505050508152602001600182018054610c0990612dfa565b80601f0160208091040260200160405190810160405280929190818152602001828054610c3590612dfa565b8015610c825780601f10610c5757610100808354040283529160200191610c82565b820191906000526020600020905b815481529060010190602001808311610c6557829003601f168201915b5050505050815260200160028201548152602001600382018054610ca590612dfa565b80601f0160208091040260200160405190810160405280929190818152602001828054610cd190612dfa565b8015610d1e5780601f10610cf357610100808354040283529160200191610d1e565b820191906000526020600020905b815481529060010190602001808311610d0157829003601f168201915b505050918352505060048201546020820152600582015460408201526006820154606082015260078201546001600160a01b0316608082015260088201805460a090920191610d6c90612dfa565b80601f0160208091040260200160405190810160405280929190818152602001828054610d9890612dfa565b8015610de55780601f10610dba57610100808354040283529160200191610de5565b820191906000526020600020905b815481529060010190602001808311610dc857829003601f168201915b50505091835250506009919091015460ff16151560209091015292915050565b610e0d611f10565b60008181526006602081905260409091200154610e3c5760405162461bcd60e51b815260040161087f90612e34565b60003411610e8c5760405162461bcd60e51b815260206004820152601760248201527f52656e7420616d6f756e74206d757374206265203e2030000000000000000000604482015260640161087f565b60008181526007602052604081208054349290610eaa908490612ecd565b909155505060405134815281907fe119edd602f8057f976e78f3580fad7c24700f494e6ddca97279c332a213f3849060200160405180910390a261050c6001600455565b610ef6611ed7565b60008181526006602081905260409091200154610f255760405162461bcd60e51b815260040161087f90612e34565b60008181526006602052604090206009015460ff1615610f7a5760405162461bcd60e51b815260206004820152601060248201526f105b1c9958591e481d995c9a599a595960821b604482015260640161087f565b600081815260066020526040808220600901805460ff191660011790555182917f251541517e7fdfbb2cb6b8c70a4fdaa5055dd01495174bcb394e5c6934ae634191a250565b60608151835114610ff15781518351604051635b05999160e01b81526004810192909252602482015260440161087f565b6000835167ffffffffffffffff81111561100d5761100d6126f2565b604051908082528060200260200182016040528015611036578160200160208202803683370190505b50905060005b845181101561108d5760208082028601015161106090602080840287010151610483565b82828151811061107257611072612ee0565b602090810291909101015261108681612ef6565b905061103c565b509392505050565b61109d611ed7565b6110a76000611fa1565b565b60006110b3611f10565b600084116110fb5760405162461bcd60e51b815260206004820152601560248201527404672616374696f6e73206d757374206265203e203605c1b604482015260640161087f565b6000861161113e5760405162461bcd60e51b815260206004820152601060248201526f041726561206d757374206265203e20360841b604482015260640161087f565b6040805180820190915260058152646d61726c6160d81b6020918201528551908601207fc04c170ffce9c1207434d29b73ef71b857655b76d0dd9239018e22f8728515f614806111cf57506040805180820190915260058152641ad85b985b60da1b6020918201528551908601207fbaf8b95fe736d2feedb16a502d9ae06503b3a27ddba526f36dcdd413389771c4145b61121b5760405162461bcd60e51b815260206004820152601b60248201527f556e6974206d757374206265206d61726c61206f72206b616e616c0000000000604482015260640161087f565b60016005600082825461122e9190612ecd565b909155505060055460408051610140810182528a815260208082018b90528183018a9052606082018990526080820188905260a082018790524260c08301523360e08301526101008201869052600061012083018190528481526006909152919091208151819061129f9082612f5a565b50602082015160018201906112b49082612f5a565b5060408201516002820155606082015160038201906112d39082612f5a565b506080820151600482015560a0820151600582015560c0820151600682015560e08201516007820180546001600160a01b0319166001600160a01b03909216919091179055610100820151600882019061132d9082612f5a565b506101208201518160090160006101000a81548160ff02191690831515021790555090505061136d33828760405180602001604052806000815250611ff3565b336001600160a01b0316817f7e266b5ab9ee4f65e7b605b0f776473424c32492b210d3ea4cbf98855608923a878c6040516113a992919061301a565b60405180910390a390506113bd6001600455565b979650505050505050565b6113d3338383612050565b5050565b6113df611f10565b6000828152600660205260408082208151610140810190925280548290829061140790612dfa565b80601f016020809104026020016040519081016040528092919081815260200182805461143390612dfa565b80156114805780601f1061145557610100808354040283529160200191611480565b820191906000526020600020905b81548152906001019060200180831161146357829003601f168201915b5050505050815260200160018201805461149990612dfa565b80601f01602080910402602001604051908101604052809291908181526020018280546114c590612dfa565b80156115125780601f106114e757610100808354040283529160200191611512565b820191906000526020600020905b8154815290600101906020018083116114f557829003601f168201915b505050505081526020016002820154815260200160038201805461153590612dfa565b80601f016020809104026020016040519081016040528092919081815260200182805461156190612dfa565b80156115ae5780601f10611583576101008083540402835291602001916115ae565b820191906000526020600020905b81548152906001019060200180831161159157829003601f168201915b505050918352505060048201546020820152600582015460408201526006820154606082015260078201546001600160a01b0316608082015260088201805460a0909201916115fc90612dfa565b80601f016020809104026020016040519081016040528092919081815260200182805461162890612dfa565b80156116755780601f1061164a57610100808354040283529160200191611675565b820191906000526020600020905b81548152906001019060200180831161165857829003601f168201915b50505091835250506009919091015460ff16151560209091015260c08101519091506116b35760405162461bcd60e51b815260040161087f90612e34565b600082116116f85760405162461bcd60e51b81526020600482015260126024820152710416d6f756e74206d757374206265203e20360741b604482015260640161087f565b6000828260a0015161170a9190612e81565b9050803410156117535760405162461bcd60e51b8152602060048201526014602482015273125b9cdd59999a58da595b9d081c185e5b595b9d60621b604482015260640161087f565b6117628260e0015185856120e6565b61177d33858560405180602001604052806000815250611ff3565b803411156117bd57336108fc6117938334612eba565b6040518115909202916000818181858888f193505050501580156117bb573d6000803e3d6000fd5b505b8160e001516001600160a01b03166108fc829081150290604051600060405180830381858888f193505050501580156117fa573d6000803e3d6000fd5b50604051838152339085907f391e04cf2ba8f29888f266b30b26a0c723c4d51f4e59a766d49bc1652a8b5f889060200160405180910390a350506113d36001600455565b600082815260066020526040808220815161014081019092528054839291908290829061186a90612dfa565b80601f016020809104026020016040519081016040528092919081815260200182805461189690612dfa565b80156118e35780601f106118b8576101008083540402835291602001916118e3565b820191906000526020600020905b8154815290600101906020018083116118c657829003601f168201915b505050505081526020016001820180546118fc90612dfa565b80601f016020809104026020016040519081016040528092919081815260200182805461192890612dfa565b80156119755780601f1061194a57610100808354040283529160200191611975565b820191906000526020600020905b81548152906001019060200180831161195857829003601f168201915b505050505081526020016002820154815260200160038201805461199890612dfa565b80601f01602080910402602001604051908101604052809291908181526020018280546119c490612dfa565b8015611a115780601f106119e657610100808354040283529160200191611a11565b820191906000526020600020905b8154815290600101906020018083116119f457829003601f168201915b505050918352505060048201546020820152600582015460408201526006820154606082015260078201546001600160a01b0316608082015260088201805460a090920191611a5f90612dfa565b80601f0160208091040260200160405190810160405280929190818152602001828054611a8b90612dfa565b8015611ad85780601f10611aad57610100808354040283529160200191611ad8565b820191906000526020600020905b815481529060010190602001808311611abb57829003601f168201915b50505091835250506009919091015460ff16151560209091015260c0810151909150611b165760405162461bcd60e51b815260040161087f90612e34565b6000611b228486610483565b905080600003611b37576000925050506104a5565b6000858152600760205260408120546080840151909190611b588484612e81565b611b629190612e98565b60008881526008602090815260408083206001600160a01b038b1684529091529020549091506113bd9082612eba565b6001600160a01b03918216600090815260016020908152604080832093909416825291909152205460ff1690565b336001600160a01b0386168114801590611be15750611bdf8682611b92565b155b15611c125760405163711bec9160e11b81526001600160a01b0380831660048301528716602482015260440161087f565b610ab6868686868661214e565b611c27611ed7565b6001600160a01b038116611c5157604051631e4fbdf760e01b81526000600482015260240161087f565b61050c81611fa1565b600660205260009081526040902080548190611c7590612dfa565b80601f0160208091040260200160405190810160405280929190818152602001828054611ca190612dfa565b8015611cee5780601f10611cc357610100808354040283529160200191611cee565b820191906000526020600020905b815481529060010190602001808311611cd157829003601f168201915b505050505090806001018054611d0390612dfa565b80601f0160208091040260200160405190810160405280929190818152602001828054611d2f90612dfa565b8015611d7c5780601f10611d5157610100808354040283529160200191611d7c565b820191906000526020600020905b815481529060010190602001808311611d5f57829003601f168201915b505050505090806002015490806003018054611d9790612dfa565b80601f0160208091040260200160405190810160405280929190818152602001828054611dc390612dfa565b8015611e105780601f10611de557610100808354040283529160200191611e10565b820191906000526020600020905b815481529060010190602001808311611df357829003601f168201915b5050506004840154600585015460068601546007870154600888018054979894979396509194506001600160a01b03169291611e4b90612dfa565b80601f0160208091040260200160405190810160405280929190818152602001828054611e7790612dfa565b8015611ec45780601f10611e9957610100808354040283529160200191611ec4565b820191906000526020600020905b815481529060010190602001808311611ea757829003601f168201915b5050506009909301549192505060ff168a565b6003546001600160a01b031633146110a75760405163118cdaa760e01b815233600482015260240161087f565b60026113d38282612f5a565b600260045403611f3357604051633ee5aeb560e01b815260040160405180910390fd5b6002600455565b6001600160a01b038416611f6457604051632bfa23e760e11b81526000600482015260240161087f565b6001600160a01b038516611f8d57604051626a0d4560e21b81526000600482015260240161087f565b611f9a85858585856121dc565b5050505050565b600380546001600160a01b038381166001600160a01b0319831681179093556040519116919082907f8be0079c531659141344cd1fd0a4f28419497f9722a3daafe3b4186f6b6457e090600090a35050565b6001600160a01b03841661201d57604051632bfa23e760e11b81526000600482015260240161087f565b60408051600180825260208201869052818301908152606082018590526080820190925290610ab66000878484876121dc565b6001600160a01b0382166120795760405162ced3e160e81b81526000600482015260240161087f565b6001600160a01b03838116600081815260016020908152604080832094871680845294825291829020805460ff191686151590811790915591519182527f17307eab39ab6107e8899845ad3d59bd9653f200f220920489ca2b5937696c31910160405180910390a3505050565b6001600160a01b03831661210f57604051626a0d4560e21b81526000600482015260240161087f565b604080516001808252602082018590528183019081526060820184905260a08201909252600060808201818152919291611f9a918791859085906121dc565b6001600160a01b03841661217857604051632bfa23e760e11b81526000600482015260240161087f565b6001600160a01b0385166121a157604051626a0d4560e21b81526000600482015260240161087f565b604080516001808252602082018690528183019081526060820185905260808201909252906121d387878484876121dc565b50505050505050565b6121e88585858561222f565b6001600160a01b03841615611f9a5782513390600103612221576020848101519084015161221a83898985858961244c565b5050610ab6565b610ab6818787878787612570565b805182511461225e5781518151604051635b05999160e01b81526004810192909252602482015260440161087f565b3360005b835181101561236d576020818102858101820151908501909101516001600160a01b03881615612315576000828152602081815260408083206001600160a01b038c168452909152902054818110156122ee576040516303dee4c560e01b81526001600160a01b038a16600482015260248101829052604481018390526064810184905260840161087f565b6000838152602081815260408083206001600160a01b038d16845290915290209082900390555b6001600160a01b0387161561235a576000828152602081815260408083206001600160a01b038b16845290915281208054839290612354908490612ecd565b90915550505b50508061236690612ef6565b9050612262565b5082516001036123ee5760208301516000906020840151909150856001600160a01b0316876001600160a01b0316846001600160a01b03167fc3d58168c5ae7397731d063d5bbf3d657854427343f4c083240f7aacaa2d0f6285856040516123df929190918252602082015260400190565b60405180910390a45050611f9a565b836001600160a01b0316856001600160a01b0316826001600160a01b03167f4a39dc06d4c0dbc64b70af90fd698a233a518aa5d07e595d983b8c0526c8f7fb868660405161243d929190613033565b60405180910390a45050505050565b6001600160a01b0384163b15610ab65760405163f23a6e6160e01b81526001600160a01b0385169063f23a6e61906124909089908990889088908890600401613061565b6020604051808303816000875af19250505080156124cb575060408051601f3d908101601f191682019092526124c89181019061309b565b60015b612534573d8080156124f9576040519150601f19603f3d011682016040523d82523d6000602084013e6124fe565b606091505b50805160000361252c57604051632bfa23e760e11b81526001600160a01b038616600482015260240161087f565b805160208201fd5b6001600160e01b0319811663f23a6e6160e01b146121d357604051632bfa23e760e11b81526001600160a01b038616600482015260240161087f565b6001600160a01b0384163b15610ab65760405163bc197c8160e01b81526001600160a01b0385169063bc197c81906125b490899089908890889088906004016130b8565b6020604051808303816000875af19250505080156125ef575060408051601f3d908101601f191682019092526125ec9181019061309b565b60015b61261d573d8080156124f9576040519150601f19603f3d011682016040523d82523d6000602084013e6124fe565b6001600160e01b0319811663bc197c8160e01b146121d357604051632bfa23e760e11b81526001600160a01b038616600482015260240161087f565b80356001600160a01b038116811461267057600080fd5b919050565b6000806040838503121561268857600080fd5b61269183612659565b946020939093013593505050565b6000602082840312156126b157600080fd5b5035919050565b6001600160e01b03198116811461050c57600080fd5b6000602082840312156126e057600080fd5b81356126eb816126b8565b9392505050565b634e487b7160e01b600052604160045260246000fd5b604051601f8201601f1916810167ffffffffffffffff81118282101715612731576127316126f2565b604052919050565b600082601f83011261274a57600080fd5b813567ffffffffffffffff811115612764576127646126f2565b612777601f8201601f1916602001612708565b81815284602083860101111561278c57600080fd5b816020850160208301376000918101602001919091529392505050565b6000602082840312156127bb57600080fd5b813567ffffffffffffffff8111156127d257600080fd5b6127de84828501612739565b949350505050565b6000815180845260005b8181101561280c576020818501810151868301820152016127f0565b506000602082860101526020601f19601f83011685010191505092915050565b6020815260006126eb60208301846127e6565b600067ffffffffffffffff821115612859576128596126f2565b5060051b60200190565b600082601f83011261287457600080fd5b813560206128896128848361283f565b612708565b82815260059290921b840181019181810190868411156128a857600080fd5b8286015b848110156128c357803583529183019183016128ac565b509695505050505050565b600080600080600060a086880312156128e657600080fd5b6128ef86612659565b94506128fd60208701612659565b9350604086013567ffffffffffffffff8082111561291a57600080fd5b61292689838a01612863565b9450606088013591508082111561293c57600080fd5b61294889838a01612863565b9350608088013591508082111561295e57600080fd5b5061296b88828901612739565b9150509295509295909350565b60208152600082516101408060208501526129976101608501836127e6565b91506020850151601f19808685030160408701526129b584836127e6565b93506040870151606087015260608701519150808685030160808701526129dc84836127e6565b9350608087015160a087015260a087015160c087015260c087015160e087015260e08701519150610100612a1a818801846001600160a01b03169052565b80880151925050610120818786030181880152612a3785846127e6565b94508088015192505050612a4e8286018215159052565b5090949350505050565b60008060408385031215612a6b57600080fd5b823567ffffffffffffffff80821115612a8357600080fd5b818501915085601f830112612a9757600080fd5b81356020612aa76128848361283f565b82815260059290921b84018101918181019089841115612ac657600080fd5b948201945b83861015612aeb57612adc86612659565b82529482019490820190612acb565b96505086013592505080821115612b0157600080fd5b50612b0e85828601612863565b9150509250929050565b600081518084526020808501945080840160005b83811015612b4857815187529582019590820190600101612b2c565b509495945050505050565b6020815260006126eb6020830184612b18565b600080600080600080600060e0888a031215612b8157600080fd5b873567ffffffffffffffff80821115612b9957600080fd5b612ba58b838c01612739565b985060208a0135915080821115612bbb57600080fd5b612bc78b838c01612739565b975060408a0135965060608a0135915080821115612be457600080fd5b612bf08b838c01612739565b955060808a0135945060a08a0135935060c08a0135915080821115612c1457600080fd5b50612c218a828b01612739565b91505092959891949750929550565b60008060408385031215612c4357600080fd5b82359150612c5360208401612659565b90509250929050565b60008060408385031215612c6f57600080fd5b612c7883612659565b915060208301358015158114612c8d57600080fd5b809150509250929050565b60008060408385031215612cab57600080fd5b50508035926020909101359150565b60008060408385031215612ccd57600080fd5b612cd683612659565b9150612c5360208401612659565b600080600080600060a08688031215612cfc57600080fd5b612d0586612659565b9450612d1360208701612659565b93506040860135925060608601359150608086013567ffffffffffffffff811115612d3d57600080fd5b61296b88828901612739565b600060208284031215612d5b57600080fd5b6126eb82612659565b6000610140808352612d788184018e6127e6565b90508281036020840152612d8c818d6127e6565b90508a60408401528281036060840152612da6818b6127e6565b608084018a905260a0840189905260c084018890526001600160a01b03871660e08501528381036101008501529050612ddf81866127e6565b9150508215156101208301529b9a5050505050505050505050565b600181811c90821680612e0e57607f821691505b602082108103612e2e57634e487b7160e01b600052602260045260246000fd5b50919050565b60208082526017908201527f50726f706572747920646f6573206e6f74206578697374000000000000000000604082015260600190565b634e487b7160e01b600052601160045260246000fd5b80820281158282048414176104a5576104a5612e6b565b600082612eb557634e487b7160e01b600052601260045260246000fd5b500490565b818103818111156104a5576104a5612e6b565b808201808211156104a5576104a5612e6b565b634e487b7160e01b600052603260045260246000fd5b600060018201612f0857612f08612e6b565b5060010190565b601f821115612f5557600081815260208120601f850160051c81016020861015612f365750805b601f850160051c820191505b81811015610ab657828155600101612f42565b505050565b815167ffffffffffffffff811115612f7457612f746126f2565b612f8881612f828454612dfa565b84612f0f565b602080601f831160018114612fbd5760008415612fa55750858301515b600019600386901b1c1916600185901b178555610ab6565b600085815260208120601f198616915b82811015612fec57888601518255948401946001909101908401612fcd565b508582101561300a5787850151600019600388901b60f8161c191681555b5050505050600190811b01905550565b8281526040602082015260006127de60408301846127e6565b6040815260006130466040830185612b18565b82810360208401526130588185612b18565b95945050505050565b6001600160a01b03868116825285166020820152604081018490526060810183905260a0608082018190526000906113bd908301846127e6565b6000602082840312156130ad57600080fd5b81516126eb816126b8565b6001600160a01b0386811682528516602082015260a0604082018190526000906130e490830186612b18565b82810360608401526130f68186612b18565b9050828103608084015261310a81856127e6565b9897505050505050505056fea26469706673582212209e9bb436356dd64cd5135c13a9d756d6253508494c88e3554864116f3da71b4964736f6c63430008140033",
  "linkReferences": {},
  "deployedLinkReferences": {}
}