{
  "_format": "hh-sol-artifact-1",
  "contractName": "ElectronicsNFT",
  "sourceName": "contracts/ElectronicsNFT.sol",
  "abi": [
    {
      "inputs": [],
      "stateMutability": "nonpayable",
      "type": "constructor"
    },
    {
      "inputs": [],
      "name": "AccessControlBadConfirmation",
      "type": "error"
    },
    {
      "inputs": [
        {
          "internalType": "address",
          "name": "account",
          "type": "address"
        },
        {
          "internalType": "bytes32",
          "name": "neededRole",
          "type": "bytes32"
        }
      ],
      "name": "AccessControlUnauthorizedAccount",
      "type": "error"
    },
    {
      "inputs": [
        {
          "internalType": "address",
          "name": "sender",
          "type": "address"
        },
        {
          "internalType": "uint256",
          "name": "tokenId",
          "type": "uint256"
        },
        {
          "internalType": "address",
          "name": "owner",
          "type": "address"
        }
      ],
      "name": "ERC721IncorrectOwner",
      "type": "error"
    },
    {
      "inputs": [
        {
          "internalType": "address",
          "name": "operator",
          "type": "address"
        },
        {
          "internalType": "uint256",
          "name": "tokenId",
          "type": "uint256"
        }
      ],
      "name": "ERC721InsufficientApproval",
      "type": "error"
    },
    {
      "inputs": [
        {
          "internalType": "address",
          "name": "approver",
          "type": "address"
        }
      ],
      "name": "ERC721InvalidApprover",
      "type": "error"
    },
    {
      "inputs": [
        {
          "internalType": "address",
          "name": "operator",
          "type": "address"
        }
      ],
      "name": "ERC721InvalidOperator",
      "type": "error"
    },
    {
      "inputs": [
        {
          "internalType": "address",
          "name": "owner",
          "type": "address"
        }
      ],
      "name": "ERC721InvalidOwner",
      "type": "error"
    },
    {
      "inputs": [
        {
          "internalType": "address",
          "name": "receiver",
          "type": "address"
        }
      ],
      "name": "ERC721InvalidReceiver",
      "type": "error"
    },
    {
      "inputs": [
        {
          "internalType": "address",
          "name": "sender",
          "type": "address"
        }
      ],
      "name": "ERC721InvalidSender",
      "type": "error"
    },
    {
      "inputs": [
        {
          "internalType": "uint256",
          "name": "tokenId",
          "type": "uint256"
        }
      ],
      "name": "ERC721NonexistentToken",
      "type": "error"
    },
    {
      "inputs": [],
      "name": "ReentrancyGuardReentrantCall",
      "type": "error"
    },
    {
      "anonymous": false,
      "inputs": [
        {
          "indexed": true,
          "internalType": "address",
          "name": "owner",
          "type": "address"
        },
        {
          "indexed": true,
          "internalType": "address",
          "name": "approved",
          "type": "address"
        },
        {
          "indexed": true,
          "internalType": "uint256",
          "name": "tokenId",
          "type": "uint256"
        }
      ],
      "name": "Approval",
      "type": "event"
    },
    {
      "anonymous": false,
      "inputs": [
        {
          "indexed": true,
          "internalType": "address",
          "name": "owner",
          "type": "address"
        },
        {
          "indexed": true,
          "internalType": "address",
          "name": "operator",
          "type": "address"
        },
        {
          "indexed": false,
          "internalType": "bool",
          "name": "approved",
          "type": "bool"
        }
      ],
      "name": "ApprovalForAll",
      "type": "event"
    },
    {
      "anonymous": false,
      "inputs": [
        {
          "indexed": false,
          "internalType": "uint256",
          "name": "_fromTokenId",
          "type": "uint256"
        },
        {
          "indexed": false,
          "internalType": "uint256",
          "name": "_toTokenId",
          "type": "uint256"
        }
      ],
      "name": "BatchMetadataUpdate",
      "type": "event"
    },
    {
      "anonymous": false,
      "inputs": [
        {
          "indexed": true,
          "internalType": "string",
          "name": "serialNumber",
          "type": "string"
        },
        {
          "indexed": true,
          "internalType": "address",
          "name": "reporter",
          "type": "address"
        }
      ],
      "name": "DeviceBlacklisted",
      "type": "event"
    },
    {
      "anonymous": false,
      "inputs": [
        {
          "indexed": true,
          "internalType": "uint256",
          "name": "tokenId",
          "type": "uint256"
        },
        {
          "indexed": true,
          "internalType": "address",
          "name": "owner",
          "type": "address"
        },
        {
          "indexed": false,
          "internalType": "string",
          "name": "serialNumber",
          "type": "string"
        },
        {
          "indexed": false,
          "internalType": "string",
          "name": "tokenURI",
          "type": "string"
        }
      ],
      "name": "DeviceMinted",
      "type": "event"
    },
    {
      "anonymous": false,
      "inputs": [
        {
          "indexed": true,
          "internalType": "uint256",
          "name": "tokenId",
          "type": "uint256"
        },
        {
          "indexed": true,
          "internalType": "address",
          "name": "verifier",
          "type": "address"
        }
      ],
      "name": "DeviceVerified",
      "type": "event"
    },
    {
      "anonymous": false,
      "inputs": [
        {
          "indexed": false,
          "internalType": "uint256",
          "name": "_tokenId",
          "type": "uint256"
        }
      ],
      "name": "MetadataUpdate",
      "type": "event"
    },
    {
      "anonymous": false,
      "inputs": [
        {
          "indexed": true,
          "internalType": "uint256",
          "name": "tokenId",
          "type": "uint256"
        },
        {
          "indexed": true,
          "internalType": "address",
          "name": "reviewer",
          "type": "address"
        },
        {
          "indexed": false,
          "internalType": "bytes32",
          "name": "reviewHash",
          "type": "bytes32"
        }
      ],
      "name": "ReviewSubmitted",
      "type": "event"
    },
    {
      "anonymous": false,
      "inputs": [
        {
          "indexed": true,
          "internalType": "bytes32",
          "name": "role",
          "type": "bytes32"
        },
        {
          "indexed": true,
          "internalType": "bytes32",
          "name": "previousAdminRole",
          "type": "bytes32"
        },
        {
          "indexed": true,
          "internalType": "bytes32",
          "name": "newAdminRole",
          "type": "bytes32"
        }
      ],
      "name": "RoleAdminChanged",
      "type": "event"
    },
    {
      "anonymous": false,
      "inputs": [
        {
          "indexed": true,
          "internalType": "bytes32",
          "name": "role",
          "type": "bytes32"
        },
        {
          "indexed": true,
          "internalType": "address",
          "name": "account",
          "type": "address"
        },
        {
          "indexed": true,
          "internalType": "address",
          "name": "sender",
          "type": "address"
        }
      ],
      "name": "RoleGranted",
      "type": "event"
    },
    {
      "anonymous": false,
      "inputs": [
        {
          "indexed": true,
          "internalType": "bytes32",
          "name": "role",
          "type": "bytes32"
        },
        {
          "indexed": true,
          "internalType": "address",
          "name": "account",
          "type": "address"
        },
        {
          "indexed": true,
          "internalType": "address",
          "name": "sender",
          "type": "address"
        }
      ],
      "name": "RoleRevoked",
      "type": "event"
    },
    {
      "anonymous": false,
      "inputs": [
        {
          "indexed": true,
          "internalType": "address",
          "name": "from",
          "type": "address"
        },
        {
          "indexed": true,
          "internalType": "address",
          "name": "to",
          "type": "address"
        },
        {
          "indexed": true,
          "internalType": "uint256",
          "name": "tokenId",
          "type": "uint256"
        }
      ],
      "name": "Transfer",
      "type": "event"
    },
    {
      "inputs": [],
      "name": "DEFAULT_ADMIN_ROLE",
      "outputs": [
        {
          "internalType": "bytes32",
          "name": "",
          "type": "bytes32"
        }
      ],
      "stateMutability": "view",
      "type": "function"
    },
    {
      "inputs": [],
      "name": "RETAILER_ROLE",
      "outputs": [
        {
          "internalType": "bytes32",
          "name": "",
          "type": "bytes32"
        }
      ],
      "stateMutability": "view",
      "type": "function"
    },
    {
      "inputs": [],
      "name": "VENDOR_ROLE",
      "outputs": [
        {
          "internalType": "bytes32",
          "name": "",
          "type": "bytes32"
        }
      ],
      "stateMutability": "view",
      "type": "function"
    },
    {
      "inputs": [],
      "name": "VERIFIER_ROLE",
      "outputs": [
        {
          "internalType": "bytes32",
          "name": "",
          "type": "bytes32"
        }
      ],
      "stateMutability": "view",
      "type": "function"
    },
    {
      "inputs": [
        {
          "internalType": "address",
          "name": "retailer",
          "type": "address"
        }
      ],
      "name": "addRetailer",
      "outputs": [],
      "stateMutability": "nonpayable",
      "type": "function"
    },
    {
      "inputs": [
        {
          "internalType": "address",
          "name": "vendor",
          "type": "address"
        }
      ],
      "name": "addVendor",
      "outputs": [],
      "stateMutability": "nonpayable",
      "type": "function"
    },
    {
      "inputs": [
        {
          "internalType": "address",
          "name": "verifier",
          "type": "address"
        }
      ],
      "name": "addVerifier",
      "outputs": [],
      "stateMutability": "nonpayable",
      "type": "function"
    },
    {
      "inputs": [
        {
          "internalType": "address",
          "name": "to",
          "type": "address"
        },
        {
          "internalType": "uint256",
          "name": "tokenId",
          "type": "uint256"
        }
      ],
      "name": "approve",
      "outputs": [],
      "stateMutability": "nonpayable",
      "type": "function"
    },
    {
      "inputs": [
        {
          "internalType": "address",
          "name": "owner",
          "type": "address"
        }
      ],
      "name": "balanceOf",
      "outputs": [
        {
          "internalType": "uint256",
          "name": "",
          "type": "uint256"
        }
      ],
      "stateMutability": "view",
      "type": "function"
    },
    {
      "inputs": [
        {
          "internalType": "string",
          "name": "",
          "type": "string"
        }
      ],
      "name": "blacklistedSerials",
      "outputs": [
        {
          "internalType": "bool",
          "name": "",
          "type": "bool"
        }
      ],
      "stateMutability": "view",
      "type": "function"
    },
    {
      "inputs": [
        {
          "internalType": "uint256",
          "name": "tokenId",
          "type": "uint256"
        }
      ],
      "name": "getApproved",
      "outputs": [
        {
          "internalType": "address",
          "name": "",
          "type": "address"
        }
      ],
      "stateMutability": "view",
      "type": "function"
    },
    {
      "inputs": [
        {
          "internalType": "uint256",
          "name": "tokenId",
          "type": "uint256"
        }
      ],
      "name": "getDevice",
      "outputs": [
        {
          "components": [
            {
              "internalType": "string",
              "name": "brand",
              "type": "string"
            },
            {
              "internalType": "string",
              "name": "model",
              "type": "string"
            },
            {
              "internalType": "string",
              "name": "serialNumber",
              "type": "string"
            },
            {
              "internalType": "string",
              "name": "warrantyExpiry",
              "type": "string"
            },
            {
              "internalType": "uint256",
              "name": "mintedAt",
              "type": "uint256"
            },
            {
              "internalType": "address",
              "name": "originalOwner",
              "type": "address"
            },
            {
              "internalType": "bool",
              "name": "isVerified",
              "type": "bool"
            },
            {
              "internalType": "enum ElectronicsNFT.DeviceStatus",
              "name": "status",
              "type": "uint8"
            },
            {
              "internalType": "uint256",
              "name": "ownerCount",
              "type": "uint256"
            }
          ],
          "internalType": "struct ElectronicsNFT.ElectronicDevice",
          "name": "",
          "type": "tuple"
        }
      ],
      "stateMutability": "view",
      "type": "function"
    },
    {
      "inputs": [
        {
          "internalType": "string",
          "name": "serialNumber",
          "type": "string"
        }
      ],
      "name": "getDeviceBySerial",
      "outputs": [
        {
          "components": [
            {
              "internalType": "string",
              "name": "brand",
              "type": "string"
            },
            {
              "internalType": "string",
              "name": "model",
              "type": "string"
            },
            {
              "internalType": "string",
              "name": "serialNumber",
              "type": "string"
            },
            {
              "internalType": "string",
              "name": "warrantyExpiry",
              "type": "string"
            },
            {
              "internalType": "uint256",
              "name": "mintedAt",
              "type": "uint256"
            },
            {
              "internalType": "address",
              "name": "originalOwner",
              "type": "address"
            },
            {
              "internalType": "bool",
              "name": "isVerified",
              "type": "bool"
            },
            {
              "internalType": "enum ElectronicsNFT.DeviceStatus",
              "name": "status",
              "type": "uint8"
            },
            {
              "internalType": "uint256",
              "name": "ownerCount",
              "type": "uint256"
            }
          ],
          "internalType": "struct ElectronicsNFT.ElectronicDevice",
          "name": "",
          "type": "tuple"
        }
      ],
      "stateMutability": "view",
      "type": "function"
    },
    {
      "inputs": [
        {
          "internalType": "bytes32",
          "name": "role",
          "type": "bytes32"
        }
      ],
      "name": "getRoleAdmin",
      "outputs": [
        {
          "internalType": "bytes32",
          "name": "",
          "type": "bytes32"
        }
      ],
      "stateMutability": "view",
      "type": "function"
    },
    {
      "inputs": [
        {
          "internalType": "bytes32",
          "name": "role",
          "type": "bytes32"
        },
        {
          "internalType": "address",
          "name": "account",
          "type": "address"
        }
      ],
      "name": "grantRole",
      "outputs": [],
      "stateMutability": "nonpayable",
      "type": "function"
    },
    {
      "inputs": [
        {
          "internalType": "bytes32",
          "name": "role",
          "type": "bytes32"
        },
        {
          "internalType": "address",
          "name": "account",
          "type": "address"
        }
      ],
      "name": "hasRole",
      "outputs": [
        {
          "internalType": "bool",
          "name": "",
          "type": "bool"
        }
      ],
      "stateMutability": "view",
      "type": "function"
    },
    {
      "inputs": [
        {
          "internalType": "address",
          "name": "owner",
          "type": "address"
        },
        {
          "internalType": "address",
          "name": "operator",
          "type": "address"
        }
      ],
      "name": "isApprovedForAll",
      "outputs": [
        {
          "internalType": "bool",
          "name": "",
          "type": "bool"
        }
      ],
      "stateMutability": "view",
      "type": "function"
    },
    {
      "inputs": [
        {
          "internalType": "uint256",
          "name": "tokenId",
          "type": "uint256"
        }
      ],
      "name": "isDeviceVerified",
      "outputs": [
        {
          "internalType": "bool",
          "name": "",
          "type": "bool"
        }
      ],
      "stateMutability": "view",
      "type": "function"
    },
    {
      "inputs": [
        {
          "internalType": "address",
          "name": "to",
          "type": "address"
        },
        {
          "internalType": "string",
          "name": "serialNumber",
          "type": "string"
        },
        {
          "internalType": "string",
          "name": "brand",
          "type": "string"
        },
        {
          "internalType": "string",
          "name": "model",
          "type": "string"
        },
        {
          "internalType": "string",
          "name": "warrantyExpiry",
          "type": "string"
        },
        {
          "internalType": "string",
          "name": "tokenURI",
          "type": "string"
        }
      ],
      "name": "mintElectronic",
      "outputs": [
        {
          "internalType": "uint256",
          "name": "",
          "type": "uint256"
        }
      ],
      "stateMutability": "nonpayable",
      "type": "function"
    },
    {
      "inputs": [],
      "name": "name",
      "outputs": [
        {
          "internalType": "string",
          "name": "",
          "type": "string"
        }
      ],
      "stateMutability": "view",
      "type": "function"
    },
    {
      "inputs": [
        {
          "internalType": "uint256",
          "name": "tokenId",
          "type": "uint256"
        }
      ],
      "name": "ownerOf",
      "outputs": [
        {
          "internalType": "address",
          "name": "",
          "type": "address"
        }
      ],
      "stateMutability": "view",
      "type": "function"
    },
    {
      "inputs": [
        {
          "internalType": "address",
          "name": "verifier",
          "type": "address"
        }
      ],
      "name": "removeVerifier",
      "outputs": [],
      "stateMutability": "nonpayable",
      "type": "function"
    },
    {
      "inputs": [
        {
          "internalType": "bytes32",
          "name": "role",
          "type": "bytes32"
        },
        {
          "internalType": "address",
          "name": "callerConfirmation",
          "type": "address"
        }
      ],
      "name": "renounceRole",
      "outputs": [],
      "stateMutability": "nonpayable",
      "type": "function"
    },
    {
      "inputs": [
        {
          "internalType": "string",
          "name": "serialNumber",
          "type": "string"
        }
      ],
      "name": "reportStolen",
      "outputs": [],
      "stateMutability": "nonpayable",
      "type": "function"
    },
    {
      "inputs": [
        {
          "internalType": "bytes32",
          "name": "role",
          "type": "bytes32"
        },
        {
          "internalType": "address",
          "name": "account",
          "type": "address"
        }
      ],
      "name": "revokeRole",
      "outputs": [],
      "stateMutability": "nonpayable",
      "type": "function"
    },
    {
      "inputs": [
        {
          "internalType": "address",
          "name": "from",
          "type": "address"
        },
        {
          "internalType": "address",
          "name": "to",
          "type": "address"
        },
        {
          "internalType": "uint256",
          "name": "tokenId",
          "type": "uint256"
        }
      ],
      "name": "safeTransferFrom",
      "outputs": [],
      "stateMutability": "nonpayable",
      "type": "function"
    },
    {
      "inputs": [
        {
          "internalType": "address",
          "name": "from",
          "type": "address"
        },
        {
          "internalType": "address",
          "name": "to",
          "type": "address"
        },
        {
          "internalType": "uint256",
          "name": "tokenId",
          "type": "uint256"
        },
        {
          "internalType": "bytes",
          "name": "data",
          "type": "bytes"
        }
      ],
      "name": "safeTransferFrom",
      "outputs": [],
      "stateMutability": "nonpayable",
      "type": "function"
    },
    {
      "inputs": [
        {
          "internalType": "address",
          "name": "operator",
          "type": "address"
        },
        {
          "internalType": "bool",
          "name": "approved",
          "type": "bool"
        }
      ],
      "name": "setApprovalForAll",
      "outputs": [],
      "stateMutability": "nonpayable",
      "type": "function"
    },
    {
      "inputs": [
        {
          "internalType": "uint256",
          "name": "tokenId",
          "type": "uint256"
        },
        {
          "internalType": "bytes32",
          "name": "reviewHash",
          "type": "bytes32"
        }
      ],
      "name": "submitReview",
      "outputs": [],
      "stateMutability": "nonpayable",
      "type": "function"
    },
    {
      "inputs": [
        {
          "internalType": "bytes4",
          "name": "interfaceId",
          "type": "bytes4"
        }
      ],
      "name": "supportsInterface",
      "outputs": [
        {
          "internalType": "bool",
          "name": "",
          "type": "bool"
        }
      ],
      "stateMutability": "view",
      "type": "function"
    },
    {
      "inputs": [],
      "name": "symbol",
      "outputs": [
        {
          "internalType": "string",
          "name": "",
          "type": "string"
        }
      ],
      "stateMutability": "view",
      "type": "function"
    },
    {
      "inputs": [
        {
          "internalType": "uint256",
          "name": "tokenId",
          "type": "uint256"
        }
      ],
      "name": "tokenURI",
      "outputs": [
        {
          "internalType": "string",
          "name": "",
          "type": "string"
        }
      ],
      "stateMutability": "view",
      "type": "function"
    },
    {
      "inputs": [],
      "name": "totalMinted",
      "outputs": [
        {
          "internalType": "uint256",
          "name": "",
          "type": "uint256"
        }
      ],
      "stateMutability": "view",
      "type": "function"
    },
    {
      "inputs": [
        {
          "internalType": "address",
          "name": "from",
          "type": "address"
        },
        {
          "internalType": "address",
          "name": "to",
          "type": "address"
        },
        {
          "internalType": "uint256",
          "name": "tokenId",
          "type": "uint256"
        }
      ],
      "name": "transferFrom",
      "outputs": [],
      "stateMutability": "nonpayable",
      "type": "function"
    },
    {
      "inputs": [
        {
          "internalType": "uint256",
          "name": "tokenId",
          "type": "uint256"
        }
      ],
      "name": "verifyDevice",
      "outputs": [],
      "stateMutability": "nonpayable",
      "type": "function"
    }
  ],
  "bytecode": "0x60806040523480156200001157600080fd5b506040518060400160405280601981526020017f4469676974616c20476f6f647320456c656374726f6e696373000000000000008152506040518060400160405280600381526020016244474560e81b815250816000908162000075919062000225565b50600162000084828262000225565b505060016008555062000099600033620000cd565b50620000c67f0ce23c3e399818cfee81a7ab0880f714e53d7672b08df0fa62f2843416e1ea0933620000cd565b50620002f1565b60008281526007602090815260408083206001600160a01b038516845290915281205460ff16620001765760008381526007602090815260408083206001600160a01b03861684529091529020805460ff191660011790556200012d3390565b6001600160a01b0316826001600160a01b0316847f2f8788117e7eff1d82e926ec794901d17c78024a50270940304540a733656f0d60405160405180910390a45060016200017a565b5060005b92915050565b634e487b7160e01b600052604160045260246000fd5b600181811c90821680620001ab57607f821691505b602082108103620001cc57634e487b7160e01b600052602260045260246000fd5b50919050565b601f8211156200022057600081815260208120601f850160051c81016020861015620001fb5750805b601f850160051c820191505b818110156200021c5782815560010162000207565b5050505b505050565b81516001600160401b0381111562000241576200024162000180565b620002598162000252845462000196565b84620001d2565b602080601f831160018114620002915760008415620002785750858301515b600019600386901b1c1916600185901b1785556200021c565b600085815260208120601f198616915b82811015620002c257888601518255948401946001909101908401620002a1565b5085821015620002e15787850151600019600388901b60f8161c191681555b5050505050600190811b01905550565b612b4b80620003016000396000f3fe608060405234801561001057600080fd5b50600436106102115760003560e01c80638ec4f50511610125578063bf295071116100ad578063d547741f1161007c578063d547741f146104aa578063e7705db6146104bd578063e985e9c5146104d2578063ecb390a1146104e5578063f42f4b6e146104f857600080fd5b8063bf29507114610443578063c87b56dd14610456578063ca2dfd0a14610469578063cc1522241461047c57600080fd5b806395d89b41116100f457806395d89b4114610405578063a217fddf1461040d578063a22cb46514610415578063a2309ff814610428578063b88d4fde1461043057600080fd5b80638ec4f505146103b75780639000b3d6146103ca57806391d14854146103dd578063926a694d146103f057600080fd5b80632f2ff15d116101a857806352069f3f1161017757806352069f3f146103585780636352211e1461036b57806370a082311461037e57806370fe9a4014610391578063870890da146103a457600080fd5b80632f2ff15d1461030c57806336568abe1461031f57806342842e0e1461033257806345e0f7531461034557600080fd5b806309f110b1116101e457806309f110b1146102935780632115e7bf146102b357806323b872dd146102d6578063248a9ca3146102e957600080fd5b806301ffc9a71461021657806306fdde031461023e578063081812fc14610253578063095ea7b31461027e575b600080fd5b61022961022436600461230e565b61050b565b60405190151581526020015b60405180910390f35b61024661051c565b604051610235919061237b565b61026661026136600461238e565b6105ae565b6040516001600160a01b039091168152602001610235565b61029161028c3660046123c3565b6105d7565b005b6102a66102a136600461238e565b6105e6565b6040516102359190612425565b6102c8600080516020612ab683398151915281565b604051908152602001610235565b6102916102e43660046124f8565b610901565b6102c86102f736600461238e565b60009081526007602052604090206001015490565b61029161031a366004612534565b61098c565b61029161032d366004612534565b6109b1565b6102916103403660046124f8565b6109e9565b610291610353366004612560565b610a04565b61022961036636600461238e565b610a27565b61026661037936600461238e565b610a6b565b6102c861038c366004612560565b610a76565b61029161039f366004612627565b610abe565b6102916103b236600461238e565b610bf2565b6102916103c5366004612560565b610cea565b6102916103d8366004612560565b610d0d565b6102296103eb366004612534565b610d30565b6102c8600080516020612ad683398151915281565b610246610d5b565b6102c8600081565b61029161042336600461265c565b610d6a565b6009546102c8565b61029161043e366004612698565b610d75565b610291610451366004612714565b610d8d565b61024661046436600461238e565b610e7a565b610291610477366004612560565b610f8b565b61022961048a366004612627565b8051602081830181018051600d8252928201919093012091525460ff1681565b6102916104b8366004612534565b610faa565b6102c8600080516020612af683398151915281565b6102296104e0366004612736565b610fcf565b6102c86104f3366004612760565b610ffd565b6102a6610506366004612627565b611349565b60006105168261168e565b92915050565b60606000805461052b90612841565b80601f016020809104026020016040519081016040528092919081815260200182805461055790612841565b80156105a45780601f10610579576101008083540402835291602001916105a4565b820191906000526020600020905b81548152906001019060200180831161058757829003601f168201915b5050505050905090565b60006105b9826116b3565b506000828152600460205260409020546001600160a01b0316610516565b6105e28282336116ec565b5050565b6105ee612290565b6000828152600260205260409020546001600160a01b031661062b5760405162461bcd60e51b81526004016106229061287b565b60405180910390fd5b6000828152600a6020526040908190208151610120810190925280548290829061065490612841565b80601f016020809104026020016040519081016040528092919081815260200182805461068090612841565b80156106cd5780601f106106a2576101008083540402835291602001916106cd565b820191906000526020600020905b8154815290600101906020018083116106b057829003601f168201915b505050505081526020016001820180546106e690612841565b80601f016020809104026020016040519081016040528092919081815260200182805461071290612841565b801561075f5780601f106107345761010080835404028352916020019161075f565b820191906000526020600020905b81548152906001019060200180831161074257829003601f168201915b5050505050815260200160028201805461077890612841565b80601f01602080910402602001604051908101604052809291908181526020018280546107a490612841565b80156107f15780601f106107c6576101008083540402835291602001916107f1565b820191906000526020600020905b8154815290600101906020018083116107d457829003601f168201915b5050505050815260200160038201805461080a90612841565b80601f016020809104026020016040519081016040528092919081815260200182805461083690612841565b80156108835780601f1061085857610100808354040283529160200191610883565b820191906000526020600020905b81548152906001019060200180831161086657829003601f168201915b50505091835250506004820154602082015260058201546001600160a01b038116604083015260ff600160a01b8204811615156060840152608090920191600160a81b9091041660028111156108db576108db6123ed565b60028111156108ec576108ec6123ed565b81526020016006820154815250509050919050565b6001600160a01b03821661092b57604051633250574960e11b815260006004820152602401610622565b60006109388383336116f9565b9050836001600160a01b0316816001600160a01b031614610986576040516364283d7b60e01b81526001600160a01b0380861660048301526024820184905282166044820152606401610622565b50505050565b6000828152600760205260409020600101546109a781611953565b6109868383611960565b6001600160a01b03811633146109da5760405163334bd91960e11b815260040160405180910390fd5b6109e482826119f4565b505050565b6109e483838360405180602001604052806000815250610d75565b6000610a0f81611953565b6105e2600080516020612ad68339815191528361098c565b6000818152600260205260408120546001600160a01b0316610a4b57506000919050565b506000908152600a6020526040902060050154600160a01b900460ff1690565b6000610516826116b3565b60006001600160a01b038216610aa2576040516322718ad960e21b815260006004820152602401610622565b506001600160a01b031660009081526003602052604090205490565b600080516020612af6833981519152610ad681611953565b6000825111610b185760405162461bcd60e51b815260206004820152600e60248201526d125b9d985b1a59081cd95c9a585b60921b6044820152606401610622565b600d82604051610b2891906128a4565b9081526040519081900360200190205460ff1615610b7e5760405162461bcd60e51b8152602060048201526013602482015272105b1c9958591e48189b1858dadb1a5cdd1959606a1b6044820152606401610622565b6001600d83604051610b9091906128a4565b908152604051908190036020018120805492151560ff19909316929092179091553390610bbe9084906128a4565b604051908190038120907f2b8365a3b06bf76ded847e39ac66b961cc263e6fc4d2a6222f33de9f111d99f490600090a35050565b600080516020612af6833981519152610c0a81611953565b6000828152600260205260409020546001600160a01b0316610c3e5760405162461bcd60e51b81526004016106229061287b565b6000828152600a6020526040902060050154600160a01b900460ff1615610c9a5760405162461bcd60e51b815260206004820152601060248201526f105b1c9958591e481d995c9a599a595960821b6044820152606401610622565b6000828152600a6020526040808220600501805460ff60a01b1916600160a01b17905551339184917faa923c50e943bc69a792cd6243243373b6a812ea9c0b64fa9aba8a934128ab5c9190a35050565b6000610cf581611953565b6105e2600080516020612ab68339815191528361098c565b6000610d1881611953565b6105e2600080516020612af68339815191528361098c565b60009182526007602090815260408084206001600160a01b0393909316845291905290205460ff1690565b60606001805461052b90612841565b6105e2338383611a61565b610d80848484610901565b6109863385858585611b00565b6000828152600260205260409020546001600160a01b0316610dc15760405162461bcd60e51b81526004016106229061287b565b6000828152600c6020908152604080832033845290915290205460ff1615610e1e5760405162461bcd60e51b815260206004820152601060248201526f105b1c9958591e481c995d9a595dd95960821b6044820152606401610622565b6000828152600c602090815260408083203380855290835292819020805460ff191660011790555183815284917f14a245c2c1e780ac3e626180f87fcc714f950469cbf4b35ca0feecce5e429eee910160405180910390a35050565b6060610e85826116b3565b5060008281526006602052604081208054610e9f90612841565b80601f0160208091040260200160405190810160405280929190818152602001828054610ecb90612841565b8015610f185780601f10610eed57610100808354040283529160200191610f18565b820191906000526020600020905b815481529060010190602001808311610efb57829003601f168201915b505050505090506000610f3660408051602081019091526000815290565b90508051600003610f48575092915050565b815115610f7a578082604051602001610f629291906128c0565b60405160208183030381529060405292505050919050565b610f8384611c2b565b949350505050565b6000610f9681611953565b6105e2600080516020612af6833981519152835b600082815260076020526040902060010154610fc581611953565b61098683836119f4565b6001600160a01b03918216600090815260056020908152604080832093909416825291909152205460ff1690565b6000611007611ca0565b6001600160a01b03871661104f5760405162461bcd60e51b815260206004820152600f60248201526e496e76616c6964206164647265737360881b6044820152606401610622565b60008651116110925760405162461bcd60e51b815260206004820152600f60248201526e14d95c9a585b081c995c5d5a5c9959608a1b6044820152606401610622565b600d866040516110a291906128a4565b9081526040519081900360200190205460ff161561110d5760405162461bcd60e51b815260206004820152602260248201527f446576696365207265706f727465642073746f6c656e2f626c61636b6c697374604482015261195960f21b6064820152608401610622565b600b8660405161111d91906128a4565b90815260200160405180910390205460001461117b5760405162461bcd60e51b815260206004820152601960248201527f44657669636520616c72656164792072656769737465726564000000000000006044820152606401610622565b6009805490600061118b83612905565b9091555050600954604080516101208101825287815260208101879052908101889052606081018590524260808201526001600160a01b03891660a0820152600060c0820181905260e0820190815260006020918201819052838152600a90915260409020815181906111fe9082612964565b50602082015160018201906112139082612964565b50604082015160028201906112289082612964565b506060820151600382019061123d9082612964565b506080820151600482015560a082015160058201805460c08501511515600160a01b026001600160a81b03199091166001600160a01b03909316929092179190911780825560e0840151919060ff60a81b1916600160a81b8360028111156112a7576112a76123ed565b0217905550610100820151816006015590505080600b886040516112cb91906128a4565b908152604051908190036020019020556112e58882611cca565b6112ef8184611ce4565b876001600160a01b0316817f5386e65881f2fc137aed7aa612faf9f636c7e1e444e6e6b6223958f50ceb2ad6898660405161132b929190612a24565b60405180910390a3905061133f6001600855565b9695505050505050565b611351612290565b6000600b8360405161136391906128a4565b9081526020016040518091039020549050806000036113b75760405162461bcd60e51b815260206004820152601060248201526f11195d9a58d9481b9bdd08199bdd5b9960821b6044820152606401610622565b6000818152600a602052604090819020815161012081019092528054829082906113e090612841565b80601f016020809104026020016040519081016040528092919081815260200182805461140c90612841565b80156114595780601f1061142e57610100808354040283529160200191611459565b820191906000526020600020905b81548152906001019060200180831161143c57829003601f168201915b5050505050815260200160018201805461147290612841565b80601f016020809104026020016040519081016040528092919081815260200182805461149e90612841565b80156114eb5780601f106114c0576101008083540402835291602001916114eb565b820191906000526020600020905b8154815290600101906020018083116114ce57829003601f168201915b5050505050815260200160028201805461150490612841565b80601f016020809104026020016040519081016040528092919081815260200182805461153090612841565b801561157d5780601f106115525761010080835404028352916020019161157d565b820191906000526020600020905b81548152906001019060200180831161156057829003601f168201915b5050505050815260200160038201805461159690612841565b80601f01602080910402602001604051908101604052809291908181526020018280546115c290612841565b801561160f5780601f106115e45761010080835404028352916020019161160f565b820191906000526020600020905b8154815290600101906020018083116115f257829003601f168201915b50505091835250506004820154602082015260058201546001600160a01b038116604083015260ff600160a01b8204811615156060840152608090920191600160a81b909104166002811115611667576116676123ed565b6002811115611678576116786123ed565b8152602001600682015481525050915050919050565b60006001600160e01b03198216637965db0b60e01b1480610516575061051682611d34565b6000818152600260205260408120546001600160a01b03168061051657604051637e27328960e01b815260048101849052602401610622565b6109e48383836001611d59565b600080611707858585611e5f565b90506001600160a01b0381161580159061172957506001600160a01b03851615155b15610f8357611746600080516020612ab683398151915282610d30565b80156117675750611765600080516020612ab683398151915286610d30565b155b80156117885750611786600080516020612ad683398151915286610d30565b155b80156117a957506117a7600080516020612af683398151915286610d30565b155b156117de576000848152600a6020526040902060058101805460ff60a81b1916600160a91b1790556001600690910155610f83565b60026000858152600a6020526040902060050154600160a81b900460ff16600281111561180d5761180d6123ed565b0361188b5761182a600080516020612ab683398151915286610d30565b1561185e576000848152600a6020526040902060050180546001919060ff60a81b1916600160a81b835b0217905550610f83565b6000848152600a60205260408120600601805460019290611880908490612a52565b90915550610f839050565b6118a3600080516020612af683398151915282610d30565b80156118c257506118c2600080516020612ad683398151915286610d30565b156118ec576000848152600a60205260408120600501805460ff60a81b1916600160a81b83611854565b611904600080516020612ad683398151915282610d30565b80156119235750611923600080516020612ab683398151915286610d30565b15610f83576000938452600a6020526040909320600501805460ff60a81b1916600160a81b179055509092915050565b61195d8133611f58565b50565b600061196c8383610d30565b6119ec5760008381526007602090815260408083206001600160a01b03861684529091529020805460ff191660011790556119a43390565b6001600160a01b0316826001600160a01b0316847f2f8788117e7eff1d82e926ec794901d17c78024a50270940304540a733656f0d60405160405180910390a4506001610516565b506000610516565b6000611a008383610d30565b156119ec5760008381526007602090815260408083206001600160a01b0386168085529252808320805460ff1916905551339286917ff6391f5c32d9c69d2a47ea670b442974b53935d1edc7fd64eb21e047a839171b9190a4506001610516565b6001600160a01b038216611a9357604051630b61174360e31b81526001600160a01b0383166004820152602401610622565b6001600160a01b03838116600081815260056020908152604080832094871680845294825291829020805460ff191686151590811790915591519182527f17307eab39ab6107e8899845ad3d59bd9653f200f220920489ca2b5937696c31910160405180910390a3505050565b6001600160a01b0383163b15611c2457604051630a85bd0160e11b81526001600160a01b0384169063150b7a0290611b42908890889087908790600401612a65565b6020604051808303816000875af1925050508015611b7d575060408051601f3d908101601f19168201909252611b7a91810190612a98565b60015b611be6573d808015611bab576040519150601f19603f3d011682016040523d82523d6000602084013e611bb0565b606091505b508051600003611bde57604051633250574960e11b81526001600160a01b0385166004820152602401610622565b805160208201fd5b6001600160e01b03198116630a85bd0160e11b14611c2257604051633250574960e11b81526001600160a01b0385166004820152602401610622565b505b5050505050565b6060611c36826116b3565b506000611c4e60408051602081019091526000815290565b90506000815111611c6e5760405180602001604052806000815250611c99565b80611c7884611f91565b604051602001611c899291906128c0565b6040516020818303038152906040525b9392505050565b600260085403611cc357604051633ee5aeb560e01b815260040160405180910390fd5b6002600855565b6105e2828260405180602001604052806000815250612024565b6000828152600660205260409020611cfc8282612964565b506040518281527ff8e1a15aba9398e019f0b49df1a4fde98ee17ae345cb5f6b5e2c27f5033e8ce79060200160405180910390a15050565b60006001600160e01b03198216632483248360e11b148061051657506105168261203c565b8080611d6d57506001600160a01b03821615155b15611e2f576000611d7d846116b3565b90506001600160a01b03831615801590611da95750826001600160a01b0316816001600160a01b031614155b8015611dbc5750611dba8184610fcf565b155b15611de55760405163a9fbf51f60e01b81526001600160a01b0384166004820152602401610622565b8115611e2d5783856001600160a01b0316826001600160a01b03167f8c5be1e5ebec7d5bd14f71427d1e84f3dd0314c0f7b2291e5b200ac8c7c3b92560405160405180910390a45b505b5050600090815260046020526040902080546001600160a01b0319166001600160a01b0392909216919091179055565b6000828152600260205260408120546001600160a01b0390811690831615611e8c57611e8c81848661208c565b6001600160a01b03811615611eca57611ea9600085600080611d59565b6001600160a01b038116600090815260036020526040902080546000190190555b6001600160a01b03851615611ef9576001600160a01b0385166000908152600360205260409020805460010190555b60008481526002602052604080822080546001600160a01b0319166001600160a01b0389811691821790925591518793918516917fddf252ad1be2c89b69c2b068fc378daa952ba7f163c4a11628f55a4df523b3ef91a4949350505050565b611f628282610d30565b6105e25760405163e2517d3f60e01b81526001600160a01b038216600482015260248101839052604401610622565b60606000611f9e836120f0565b600101905060008167ffffffffffffffff811115611fbe57611fbe61257b565b6040519080825280601f01601f191660200182016040528015611fe8576020820181803683370190505b5090508181016020015b600019016f181899199a1a9b1b9c1cb0b131b232b360811b600a86061a8153600a8504945084611ff257509392505050565b61202e83836121c8565b6109e4336000858585611b00565b60006001600160e01b031982166380ac58cd60e01b148061206d57506001600160e01b03198216635b5e139f60e01b145b8061051657506301ffc9a760e01b6001600160e01b0319831614610516565b61209783838361222d565b6109e4576001600160a01b0383166120c557604051637e27328960e01b815260048101829052602401610622565b60405163177e802f60e01b81526001600160a01b038316600482015260248101829052604401610622565b60008072184f03e93ff9f4daa797ed6e38ed64bf6a1f0160401b831061212f5772184f03e93ff9f4daa797ed6e38ed64bf6a1f0160401b830492506040015b6d04ee2d6d415b85acef8100000000831061215b576d04ee2d6d415b85acef8100000000830492506020015b662386f26fc10000831061217957662386f26fc10000830492506010015b6305f5e1008310612191576305f5e100830492506008015b61271083106121a557612710830492506004015b606483106121b7576064830492506002015b600a83106105165760010192915050565b6001600160a01b0382166121f257604051633250574960e11b815260006004820152602401610622565b6000612200838360006116f9565b90506001600160a01b038116156109e4576040516339e3563760e11b815260006004820152602401610622565b60006001600160a01b03831615801590610f835750826001600160a01b0316846001600160a01b0316148061226757506122678484610fcf565b80610f835750506000908152600460205260409020546001600160a01b03908116911614919050565b604051806101200160405280606081526020016060815260200160608152602001606081526020016000815260200160006001600160a01b03168152602001600015158152602001600060028111156122eb576122eb6123ed565b8152602001600081525090565b6001600160e01b03198116811461195d57600080fd5b60006020828403121561232057600080fd5b8135611c99816122f8565b60005b8381101561234657818101518382015260200161232e565b50506000910152565b6000815180845261236781602086016020860161232b565b601f01601f19169290920160200192915050565b602081526000611c99602083018461234f565b6000602082840312156123a057600080fd5b5035919050565b80356001600160a01b03811681146123be57600080fd5b919050565b600080604083850312156123d657600080fd5b6123df836123a7565b946020939093013593505050565b634e487b7160e01b600052602160045260246000fd5b6003811061242157634e487b7160e01b600052602160045260246000fd5b9052565b602081526000825161012080602085015261244461014085018361234f565b91506020850151601f1980868503016040870152612462848361234f565b9350604087015191508086850301606087015261247f848361234f565b935060608701519150808685030160808701525061249d838261234f565b925050608085015160a085015260a08501516124c460c08601826001600160a01b03169052565b5060c085015180151560e08601525060e08501516101006124e781870183612403565b959095015193019290925250919050565b60008060006060848603121561250d57600080fd5b612516846123a7565b9250612524602085016123a7565b9150604084013590509250925092565b6000806040838503121561254757600080fd5b82359150612557602084016123a7565b90509250929050565b60006020828403121561257257600080fd5b611c99826123a7565b634e487b7160e01b600052604160045260246000fd5b600067ffffffffffffffff808411156125ac576125ac61257b565b604051601f8501601f19908116603f011681019082821181831017156125d4576125d461257b565b816040528093508581528686860111156125ed57600080fd5b858560208301376000602087830101525050509392505050565b600082601f83011261261857600080fd5b611c9983833560208501612591565b60006020828403121561263957600080fd5b813567ffffffffffffffff81111561265057600080fd5b610f8384828501612607565b6000806040838503121561266f57600080fd5b612678836123a7565b91506020830135801515811461268d57600080fd5b809150509250929050565b600080600080608085870312156126ae57600080fd5b6126b7856123a7565b93506126c5602086016123a7565b925060408501359150606085013567ffffffffffffffff8111156126e857600080fd5b8501601f810187136126f957600080fd5b61270887823560208401612591565b91505092959194509250565b6000806040838503121561272757600080fd5b50508035926020909101359150565b6000806040838503121561274957600080fd5b612752836123a7565b9150612557602084016123a7565b60008060008060008060c0878903121561277957600080fd5b612782876123a7565b9550602087013567ffffffffffffffff8082111561279f57600080fd5b6127ab8a838b01612607565b965060408901359150808211156127c157600080fd5b6127cd8a838b01612607565b955060608901359150808211156127e357600080fd5b6127ef8a838b01612607565b9450608089013591508082111561280557600080fd5b6128118a838b01612607565b935060a089013591508082111561282757600080fd5b5061283489828a01612607565b9150509295509295509295565b600181811c9082168061285557607f821691505b60208210810361287557634e487b7160e01b600052602260045260246000fd5b50919050565b6020808252600f908201526e151bdad95b881b9bdd08199bdd5b99608a1b604082015260600190565b600082516128b681846020870161232b565b9190910192915050565b600083516128d281846020880161232b565b8351908301906128e681836020880161232b565b01949350505050565b634e487b7160e01b600052601160045260246000fd5b600060018201612917576129176128ef565b5060010190565b601f8211156109e457600081815260208120601f850160051c810160208610156129455750805b601f850160051c820191505b81811015611c2257828155600101612951565b815167ffffffffffffffff81111561297e5761297e61257b565b6129928161298c8454612841565b8461291e565b602080601f8311600181146129c757600084156129af5750858301515b600019600386901b1c1916600185901b178555611c22565b600085815260208120601f198616915b828110156129f6578886015182559484019460019091019084016129d7565b5085821015612a145787850151600019600388901b60f8161c191681555b5050505050600190811b01905550565b604081526000612a37604083018561234f565b8281036020840152612a49818561234f565b95945050505050565b80820180821115610516576105166128ef565b6001600160a01b038581168252841660208201526040810183905260806060820181905260009061133f9083018461234f565b600060208284031215612aaa57600080fd5b8151611c99816122f856fe2a5f906c256a5d799494fcd066e1f6c077689de1cdb65052a1624de4bace99bfb66d507c1e3c1bc237b923feddf01f16873f6a23c218ec08d1c8983da3c563090ce23c3e399818cfee81a7ab0880f714e53d7672b08df0fa62f2843416e1ea09a2646970667358221220653c11aa2ebb84f765661d536c9a81ab5d849fcce39abc6236145586e78c9f2164736f6c63430008140033",
  "linkReferences": {},
  "deployedLinkReferences": {}
}